:020000040800F2
:100000008005002001010008E3280008C521000840
:10001000E1280008BF0A00085D2C0008000000006D
:10002000000000000000000000000000E7280008B9
:10003000510B000800000000E5280008E92800082E
:100040001B0100081B0100081B0100081B01000820
:100050001B0100081B0100081B0100081B01000810
:100060001B0100081B0100081B0100081B01000800
:100070001B0100081B010008C10A00081B01000841
:100080001B0100081B0100081B0100081B010008E0
:100090001B0100081B0100081B0100081B010008D0
:1000A0001B0100081B0100081B0100081B010008C0
:1000B0001B0100081B0100081B0100081B010008B0
:1000C0001B0100081B0100081B0100081B010008A0
:1000D0001B010008512C00081B0100081B0100082F
:1000E0001B0100081B0100081B010008DFF80CD0F1
:1000F00000F082FC00480047994B00088005002072
:100100000648804706480047FEE7FEE7FEE7FEE7B1
:10011000FEE7FEE7FEE7FEE7FEE7FEE74B29000805
:10012000ED0000082DE9F0410024061B254671F181
:10013000000605DA01240027D0EB070067EB010178
:10014000161E73F1000605DA0027D2EB070201251F
:1001500067EB030300F022FB86460E4617469C46DB
:10016000AC4204D00025D0EB050E65EB010624B1AE
:100170000020D2EB000760EB030C704631463A4694
:100180006346BDE8F081202A04DB203A21FA02F020
:100190000021704721FA02F3D040C2F120029140C1
:1001A000084319467047D2B201E000F8012B491EFE
:1001B000FBD270470022F6E710B513460A46044604
:1001C0001946FFF7F0FF204610BD30B50446002069
:1001D000034600E05B1C934203D2E05CCD5C401B15
:1001E000F8D030BDF0B480EA0102D40F4200B2EB87
:1001F000410F02D20246084611464A0042D0C30DC2
:10020000DDB2C1F3C752AD1A202D35DAC1F31601A4
:1002100041F4000204B15242C5F1200602FA06F18F
:100220002A411044B3EBD05F23D0C4B1012DA0EB21
:10023000C35009DCF0BC4FF0004202EAC352DBB20B
:1002400000F5000000F005BB400000F1807000EBFD
:10025000C350A0F1807040EAD170490009E049081C
:1002600041EAC071A0EBC35000F50000400800EB6C
:10027000C350F0BC00F0E4BA6142012202EB41013C
:10028000001BF6E7F0BC704781F00041AAE780F060
:100290000040A7E780EA010210B502F000434000E9
:1002A00022D04A001FD0010E01EB1261C0F35600AC
:1002B000C2F3560240F4000042F40002A0FB022008
:1002C00000047F39140400D0401C50EA124001D4CD
:1002D0004000491EC2B20C0604EBD010401C40087E
:1002E000802A02D003E0002010BD20F00100002988
:1002F00000DA0020184310BD30B480EA010202F099
:10030000004530F0004221F0004013D090B1C30D01
:10031000D40DC2F31601C0F31600E41A41F4000133
:1003200040F400027D34914201D3641C00E0490096
:10033000002C02DA30BC002070474FF4000000238C
:10034000914201D3891A034340084FEA4101F7D192
:1003500051B1914202D14FF0004105E002D24FF07D
:10036000010101E06FF0010103EBC450284430BCEF
:1003700000F066BA420005D0C0F3C7525242914223
:1003800001DC0020704700EBC15070472DE9FE4FA3
:10039000804681EA0300C00F0C46009021F0004126
:1003A00023F00045B8EB0200A94105D240462146A2
:1003B00090461C460B46024623F00040104347D0AF
:1003C000270DC7F30A00C3F30A510290401A0190A7
:1003D00040286BDAC3F3130040F4801B0098924668
:1003E00020B10023D2EB030A63EB0B0B01985946B3
:1003F000C0F14002504600F002FA06460D46504653
:100400005946019A00F00AFA10EB080061410024F5
:1004100087EA115284EAE7731A4340D0009A62B324
:10042000019A012A4FEA075215DC001B61EB020119
:100430004FF0004202EA0752CDE90042001C41F5AC
:10044000801132462B4600F041FA03B0BDE8F08F30
:1004500040462146F9E7001B61EB0201001C41F513
:10046000801300185B412018A2F5001747EB030129
:1004700040EAD570B6196D4111E06D084FEA3606B5
:1004800045EAC0754FEA0752001B61EB0201001CF0
:1004900041F5801149084FEA3000001951413246B8
:1004A0002B4603B0BDE8F04F00F001BA00980122DE
:1004B00040000023D0EB020263EBE073009821467A
:1004C0004FEAE074B8EB000061EB0401E9E783F068
:1004D00000435BE781F0004158E72DE9FE4F81EAD8
:1004E000030404F0004421F0004100944FF0000B9D
:1004F00023F0004350EA01045ED052EA03045BD0CB
:10050000C3F30A54C1F30A552C44A4F2F334019402
:10051000A0FB0254C1F3130141F48011C3F3130390
:1005200043F4801301FB024400FB034E840A970A44
:1005300044EA815447EA8357A4FB076802958D0A71
:1005400005FB07854FEA932C04FB0C542705029DFD
:100550004FEA065847EA1637B5EB08056EEB070C6D
:10056000870E920E47EA811742EA8312A7FB020127
:10057000B6EB0B0164EB00042B0D43EA0C335E1861
:1005800044EB1C50DA465146E7FB0201C5F3130465
:100590004FEA0B3343EA14534FEA0432019C43EA17
:1005A0000603A4F10C040294009CCDE900B400F011
:1005B0008DF903B0BDE8F08F00200146F9E72DE981
:1005C000F04D81EA030404F0004B21F0004514468D
:1005D0004FF0000A23F0004150EA050220D054EA0F
:1005E00001021DD0C5F30A570246C5F31303C1F338
:1005F0001300C1F30A5640F4801543F48013A7EBAF
:100600000608101BD64608F2FD3873EB050002D32E
:1006100008F1010801E092185B41B8F1000F03DA1C
:1006200000200146BDE8F08D00204FF48011064601
:1006300084460EE0171B73EB050705D3121B63EB13
:10064000050306434CEA010C49084FEA30009218B2
:100650005B4150EA0107EDD152EA030012D082EA71
:10066000040083EA0501084305D0101BAB4106D204
:100670000122002306E000224FF0004302E06FF069
:10068000010253101AEB06004CEB085110EB0A0064
:1006900041EB0B01BDE8F04D00F009B9C10F80EA54
:1006A000E0700844CA079623002100F0D2B89623D0
:1006B0000022114600F0CDB800F0004220F00040CA
:1006C000C10DC0F3160040F400007F2901DA0020BC
:1006D0007047962903DCC1F19601C84001E09639C4
:1006E0008840002AF4D04042704720F00040C10DFD
:1006F000C0F3160040F400007F2901DA00207047A3
:10070000962903DCC1F19601C840704796398840AC
:10071000704700F0004230F000400AD0C10D01F5F2
:100720006071C0F3160042EA0151C208400711434C
:10073000704700200146704701F0004330B421F0BB
:10074000004150EA010206D00A0DA2F56072C1F321
:100750001301002A02DC30BC00207047440F44EA39
:10076000C104C100E01830BC00EBC25000F068B812
:1007700030B50B46014600202022012409E021FA71
:1007800002F59D4205D303FA02F5491B04FA02F56E
:100790002844151EA2F10102F1DC30BD2DE9F05F05
:1007A0000546002092469B468846064681464024E0
:1007B0001BE02846414647462246FFF7E4FC5346E5
:1007C0005A46C01A914110D311461846224600F0ED
:1007D00016F82D1A67EB01084F462246012000212A
:1007E00000F00DF817EB00094E41201EA4F10104A2
:1007F000DFDC484631462A464346BDE8F09F202AC2
:1008000004DB203A00FA02F1002070479140C2F167
:10081000200320FA03F3194390407047202A06DB97
:10082000CB17203A41FA02F043EAE07306E041FABE
:1008300002F3D040C2F120029140084319467047AC
:100840000029A8BF7047401C490008BF20F00100E4
:10085000704710B4B0FA80FC00FA0CF050EA0104C2
:1008600004BF10BC704749B1CCF1200421FA04F454
:1008700011FA0CF118BF012121430843A3EB0C012D
:10088000CB1D4FEA00614FEA102042BF002010BC90
:10089000704700EBC35010440029A4BF10BC704740
:1008A000401C490008BF20F0010010BC704710B583
:1008B000141E73F1000408DA401C41F10001921883
:1008C0005B411A4301D120F0010010BD2DE9F04D2C
:1008D00092469B4611B1B1FA81F202E0B0FA80F281
:1008E00020329046FFF78BFF04460F4640EA0A008D
:1008F00041EA0B0153465A46084313D0114653EAC6
:10090000010019D0C8F140025046FFF73CFC0546F3
:100910000E46504659464246FFF771FF084305D040
:10092000012004E020463946BDE8F08D0020054353
:1009300046EAE0762C4337430A986305E40AA0EBC5
:1009400008000022FD0A44EA47540A3002D500207C
:100950000146E9E7010510196941DDE9084500197B
:100960006941BDE8F04DA2E770B521F000430343B3
:100970000CD0C1F30A550024D5EB040564EB040345
:10098000D617AD1AB34102DB0020014670BD201816
:1009900041EB025170BDC1F30A52C1F3130140F2A1
:1009A000FF3341F480119A4202DA00200146704779
:1009B00040F233439A42A2F2334202DC5242FFF742
:1009C000E2BBFFF71CBF000030B5041E71F100044C
:1009D00004DB4FF00044404264EB0101141E73F14C
:1009E000000405DB1C464FF00043524263EB040356
:1009F000994208BF904230BD064C074D06E0E068C2
:100A000040F0010394E8070098471034AC42F6D355
:100A1000FFF770FB206A0008406A00082DE9F04DDE
:100A200000231A461B1A8A4103DB00200146BDE859
:100A3000F08DC1F30A52C1F3130141F480154FF058
:100A4000000BD10702D100186D41521E0027044649
:100A500040F2FF11384601EB620A3E4680460246EC
:100A600000204FF48011FFF78EFBC2197141BB18B3
:100A700046EB0100B4EB030C75EB000C04D3E41A55
:100A800065EB000517460E46241908F101006D417B
:100A900080463428E3DDF91946EB0600091BA8411E
:100AA00003D24FF0FF32134601E0002213461BEB46
:100AB000070046EB0A51BDE8F04DFFF7F8BEFEE730
:100AC000014800F0B7B800002C01002030B590F8C4
:100AD00040500124AC40C56B6C600468636043689F
:100AE000102B036803D099600068C26030BD9A6023
:100AF0000068C16030BD00003EB5094C94F83D501F
:100B0000242DFBD0CDE900320A4640F6FF740146A1
:100B100002940123024800F0FFFB00203EBD0000CC
:100B2000900000203EB5094C94F83D50242DFBD098
:100B3000CDE900320A4640F6FF74014602940123D3
:100B4000024800F011FD00203EBD00009000002092
:100B5000704772B6FEE710B590F821100022022906
:100B600005D00421816380F82020012010BD016898
:100B70000B6823F00E030B6001680B6823F0010380
:100B80000B6090F84030C46B012101FA03F36360FD
:100B900080F8211080F82020104610BD10B590F884
:100BA00021100024022903D00421816301243DE0A7
:100BB00001680A6822F00E020A6001680A6822F0E1
:100BC00001020A601A4A0168914201D1012121E023
:100BD000174A1432914201D110211BE0144A2832E5
:100BE000914201D1891515E0114A3C32914201D15F
:100BF00089140FE00E4A5032914202D14FF48031F5
:100C000008E00B4A6432914202D14FF4801101E0B6
:100C10004FF08071064A083A5160012180F8211096
:100C2000002180F82010416B01B18847204610BD9B
:100C3000080002402DE9F05FC16B0C6801680B6889
:100C4000D0F840C0042202FA0CF2494DDFF824A18A
:100C5000494E4A4FDFF828B1DFF828E122422CD074
:100C60005A072AD50A68920603D40A6822F00402B9
:100C70000A600168A94201D1042219E0514501D15D
:100C8000402215E0B14202D14FF4806210E0B94237
:100C900002D14FF480420BE0594502D14FF480223B
:100CA00006E0714502D14FF4800201E04FF080620E
:100CB0002F4908394A60C16A3BE04FF0020808FA40
:100CC0000CF818EA040F4FF000094FF0010235D07C
:100CD0005FEA837832D50B689B0605D40B6823F056
:100CE0000A030B6080F821200168A94201D1022289
:100CF00019E0514501D1202215E0B14202D14FF453
:100D0000007210E0B94202D14FF400520BE0594595
:100D100002D14FF4003206E0714502D14FF40012C7
:100D200001E04FF00072124908394A6080F82090C3
:100D3000816A00291AD0BDE8F05F0847082505FA46
:100D40000CF5254212D01B0710D50B6823F00E03BB
:100D50000B6090F84010C36B02FA01F15960826396
:100D600080F8212080F82090016BE2E7BDE8F09F39
:100D7000080002401C0002403000024044000240D3
:100D8000580002406C00024030B528B308C813492F
:100D900014221944B1FBF2F18900C1631049816347
:100DA000022141771A6843F6F0718A43D0E90014B2
:100DB0002143D0E902452C4321430469214344697E
:100DC00021438469214311431960002141630122B9
:100DD00042770177084630BD012030BDF8FFFDBFE6
:100DE0000000024070B5044690F82000002501285C
:100DF0000CD0012084F8200094F821600020012EFE
:100E000006D084F820000225284670BD022070BD5F
:100E1000022684F82160A0632068066826F0010697
:100E200006602046FFF752FEE06A0028206801684D
:100E300002D041F00E0106E021F0040101602068BB
:100E4000016841F00A0101602068016841F0010178
:100E50000160D9E770B5044600F0FEF80546601C55
:100E600002D004480078044400F0F6F8401BA04289
:100E7000FAD370BD0C0000202DE9F84FDFF8B891CF
:100E80000024A9F1040B23460F2709F1040AABF152
:100E9000040EC9E00125A5402A40AA427DD1674E33
:100EA000D1F804C0ACEB0608B44532D014DCBCF178
:100EB000030F3AD009DCBCF1000F2AD0BCF1010FBE
:100EC0001CD0BCF1020F31D11DE0BCF1110F17D0C5
:100ED000BCF1120F2AD119E0B8F5881F19D006DC31
:100EE000B8F5803F15D0B8F5801F1FD111E0B8F5D7
:100EF000001F0ED0B8F5041F18D10AE0CB6815E02A
:100F0000CB681B1D12E0CB6808330FE0CB680C33B5
:100F10000CE08B682BB1012B4FF0080303D0456127
:100F200004E0042302E0056100E00023FF2A01D869
:100F3000064601E000F104064FEA840501D9A5F157
:100F40002005D6F8008007FA05FC28EA0C0803FA09
:100F500005F548EA0508C6F800804D68ED0062D541
:100F6000374DAE6946F00106AE61AD6924F0030667
:100F700005F001050095334D06EB050CDCF8085033
:100F8000A607360F07FA06F825EA0805DFF8B88045
:100F9000404503D14FF0000817E044E0DFF8AC8093
:100FA000404502D14FF001080FE0DFF8A480404532
:100FB00002D14FF0020808E0DFF89880404502D1E6
:100FC0004FF0030801E04FF0040808FA06F848EA79
:100FD0000508CCF808804D68D9F80060ED024D4650
:100FE00001D5164300E096432E604D68DAF80060A4
:100FF000AD02554601D5164300E096432E604D687C
:10100000DBF80060AD035D4601D5164300E0964372
:101010002E604D68DEF80060ED03754601D516437D
:1010200000E096432E60641C0D682A46E5407FF47C
:1010300031AFBDE8F88F0000080401400000111036
:10104000001002400000014000080140000C014077
:101050000010014000140140014880687047000002
:101060000C00002070B5040025D094F83D00002548
:1010700020B984F83C50204600F00EFB242084F870
:101080003D002068016821F00101016020680168CD
:1010900041F4004101602068016821F400410160D1
:1010A00000F056FC4D4A6168914201D84C4900E07D
:1010B0004C49884201D2012070BD4B492368B0FBE6
:1010C000F1F15E6826F03F060E435E60636893426E
:1010D00006D94FF4967359434FF47A73B1FBF3F189
:1010E0002368491C1E6A26F03F0631431962616875
:1010F000914210D84900401EB0FBF1F2521CC2F3DD
:101100000B02042A01D2042022E0B0FBF1F0401CC3
:10111000C0F30B001CE0A268F2B301EBC10303EBC8
:101120000116431EB3FBF6F35B1C43F480431B051F
:1011300049D092B301EBC10202EB0111401EB0FB9A
:10114000F1F0401CC0F30B0040F4804040F400403C
:101150002168CA694CF6FF739A431043C861D4E909
:10116000071001432068026822F0C00211430160A9
:10117000D4E9030101432068826848F2FF339A43AF
:1011800011438160D4E9050108432168CA6822F04F
:10119000FF021043C86001E00EE016E0206801681D
:1011A00041F0010101602564202084F83D002563A1
:1011B00084F83E50002070BD01EB4106431EB3FB96
:1011C000F6F35B1CB3E70120C2E701EB4101401ECF
:1011D000B0FBF1F0401CC0F30B00B7E7A0860100A4
:1011E00080841E0000093D0040420F002DE9F84FA9
:1011F0001F4690468A460446DDF82890FFF72CFFEC
:10120000054694F83D0020287FD11923012240494A
:101210002046009501F03AF9002876D194F83C0078
:10122000012872D0012084F83C0020680168C907B9
:1012300003D1016841F0010101602068016821F4D7
:1012400000610160212084F83D00102084F83E00F8
:1012500000262664C4F824806785608D20852D488B
:10126000E0622B464A465146204600F0C3FF90B943
:10127000206841698069009036E02A464946204648
:1012800001F0E2F950B1206C042804D12068016813
:1012900041F4007101600120BDE8F88F606A2168A7
:1012A00000780861606A401C6062618D491E61853A
:1012B000218D491E89B2218522685369DB435B0772
:1012C0000BD451B100781061606A401C6062608D7F
:1012D000401E6085208D401E20852A4649462046B6
:1012E00001F0A8F80028CED1208D0028C5D154F8EF
:1012F0003D0B016841F400710160202004F81E09D3
:10130000E67766770020C7E7FFE70220C4E7000022
:10131000020010000000FFFF2DE9FF4F83B0002501
:10132000DDE910799A4693460446DDF84880009539
:10133000FFF792FE064694F83D0020287CD1192341
:10134000012285492046009601F0A0F80028F5D139
:1013500094F83C0001286FD0012084F83C002068FC
:101360000168C90703D1016841F0010101602068EB
:10137000016821F400610160222084F83D004020D2
:1013800084F83E0025646762A4F82A90608D208569
:101390007248E062CDE9008653465A4620460499D9
:1013A00000F076FF00287DD1208DDFF8B491202752
:1013B00068B1012814D00228206801681ED041F4C9
:1013C000806101602068416980690090B6E0206812
:1013D000416981690091016841F400710160ADE0EB
:1013E0002068016821F48061016072B6206841695B
:1013F00081690091016841F400710AE041F40061E3
:10140000016072B62068416981690091016821F428
:101410008061016062B691E0032868D801280CD091
:10142000022843464FF000024946204600960FD05E
:1014300001F02CF8B0BB10E08BE03246414620466C
:1014400001F0CAF870BB20680069616A08706CE03E
:1014500001F01CF830BB72B634E02068016821F45A
:101460008061016072B620680069616A0870606A14
:10147000401C6062208D401E2085608D401E60856E
:10148000384846F2A8110068B0FBF1F0C0EBC0008C
:1014900000EB80000090401E009008D0206840695A
:1014A000C04300E029E040070CD50098F3E744F87A
:1014B000305F6773A573206940F02000206162B639
:1014C00025731AE02068016841F40071016020680A
:1014D0000069616A0870606A401C6062218D491E63
:1014E0002185618D491E618562B621681BE0324607
:1014F0004146204601F070F818B1012007B0BDE860
:10150000F08F20680069616A0870606A401C606240
:10151000218D491E2185618D491E618521684A6999
:10152000D24352070AD409690170606A401C6062A4
:10153000208D401E2085608D401E6085208D0028F6
:101540007FF46AAF84F83D7084F83E5084F83C50D4
:10155000D4E70220D2E70000020010000000FFFFE5
:1015600004000100180000202DE9FF4F83B09A46C7
:10157000DDE9119793460446DDF84080FFF76CFDE6
:10158000054694F83D0020287FD1192301224049C7
:101590002046009500F07AFF002876D194F83C00B0
:1015A000012872D0012084F83C0020680168C90736
:1015B00003D1016841F0010101602068016821F454
:1015C00000610160212084F83D00402084F83E0045
:1015D00000262664C4F82480A4F82A90608D208513
:1015E0002C48E062CDE9007553465A4620460499DE
:1015F00000F0CCFE70B930E02A463946204601F0B2
:1016000023F858B1206C042804D12068016841F403
:1016100000710160012007B0BDE8F08F606A2168A9
:1016200000780861606A401C6062218D491E89B2A1
:101630002185628D521E628522685369DB435B07F8
:101640000BD469B100781061606A401C6062208D23
:10165000401E2085608D401E6085208D0028CBD1E6
:101660002A463946204600F0E5FE0028CAD154F843
:101670003D0B016841F400710160202004F81E094F
:10168000E67766770020C6E7FFE70220C3E70000A1
:10169000020010000000FFFF10B586B0002100918D
:1016A00001910291039100680F4988421AD10F4CB1
:1016B000A06940F00800A061A069694600F0080038
:1016C0000490C0200090122001900320039008484D
:1016D000FFF7D2FBE06940F40010E061E06900F43C
:1016E0000010049006B010BD0054004000100240ED
:1016F000000C014002488168027811448160704703
:101700000C000020074810B5016841F0100101608D
:10171000032000F075F80F2000F006F800F024F820
:10172000002010BD0020024070B50D4D04464FF45E
:101730007A712878B1FBF0F00A490968B1FBF0F042
:1017400000F0DCFA48B9102C07D200222146501EC6
:1017500000F036F800206C6070BD012070BD000004
:101760000C000020180000200C4808B5816941F0E9
:1017700001018161816901F001010091C16941F0BC
:101780008051C161C06900F08050009004484168F8
:1017900021F0E06141F00071416008BD001002409D
:1017A00000000140002809DB00F01F0201219140E8
:1017B0004009800000F1E020C0F8001170470000EF
:1017C000F0B40E4B1B680C46C3F30223C3F10705AC
:1017D000042D00D90425191D072901D2002300E09A
:1017E000DB1E012606FA05F1491E214099409E4064
:1017F000761E16403143F0BC01F06EBA0CED00E0ED
:10180000064900F0070208684FF6FF03184040EA57
:101810000220034A10430860704700000CED00E00E
:101820000000FA052DE9F0470F46050061D0434E50
:10183000306800F00700B84209D2306820F0070095
:1018400038433060306800F00700B84251D1286852
:101850003B4C810712D5400703D5606840F4E06037
:1018600060602878000703D5606840F460506060CD
:101870006068A96820F0F000084360602878C0071D
:1018800028D06868012810D02168022810D0890764
:1018900000292EDA616821F0030101436160FFF73E
:1018A000DBFB804641F288390DE021688903EFE7D0
:1018B0008901EDE7FFF7D0FBA0EB0801494502D90C
:1018C0000320BDE8F0876068696800F00C00B0EBA9
:1018D000810FEFD1306800F00700B8420BD93068B3
:1018E00020F0070038433060306800F00700B8424D
:1018F00001D00120E5E72878400705D56068E96850
:1019000020F4E060084360602878000706D560682E
:10191000296920F4605040EAC100606000F038F8A6
:101920006168084AC1F30311515CC8400649086068
:1019300006480068FFF7F8FE0020C2E700200240DA
:10194000001002407A5C00081800002010000020FF
:101950000448054900684968044AC1F30221515C02
:10196000C840704718000020001002408A5C000840
:101970000448054900684968044AC1F3C221515C22
:10198000C840704718000020001002408A5C000820
:101990000E4A51680E4801F00C03042B11D0082B9D
:1019A0000FD10C48C1F38343C903C05C0AD5516809
:1019B000084AC1F34041921E515C054A5043B0FBB6
:1019C000F1F070470449484370470000001002409E
:1019D00000127A006A5C000800093D002DE9F84F0A
:1019E000040070D02078C04DC00749D06868C0F3AB
:1019F0008100012807D06868C0F38100022809D15E
:101A00006868C00306D52868800339D56068002857
:101A1000E7D035E06068B0F5803F0BD010B1B0F58D
:101A2000A02F11D0286820F480302860286820F486
:101A3000802002E0286840F480302860606890B11F
:101A4000FFF70AFB06460AE0286840F48020286079
:101A5000F0E700BFFFF700FB801B642873D82868FD
:101A60008003F7D50CE0FFF7F7FA064605E000BF64
:101A7000FFF7F2FA801B6428F0D828688003F7D4B7
:101A800020789A4E80074FF001094FF0000839D5B1
:101A9000686810F00C0F07D06868C0F38100022856
:101AA00009D16868C00306D42868800714D5206966
:101AB000012808D110E02069B0B1C6F80090FFF706
:101AC000CBFA074605E00AE1FFF7C6FAC01B022879
:101AD000C4D828688007F7D52868616920F0F80025
:101AE00040EAC10028600DE0C6F80080FFF7B4FAB4
:101AF000074604E0FFF7B0FAC01B022823D8286885
:101B00008007F7D4207800072CD57948A169D9B18E
:101B1000C0F80090FFF7A0FA074604E0FFF79CFA30
:101B2000C01B02280FD8686A8007F7D571484FF4A8
:101B3000FA510068B0FBF1F0009000BF0098411E20
:101B40000091FAD20EE080E0C0F80080FFF784FA3E
:101B5000074604E0FFF780FAC01B022875D8686AC0
:101B60008007F7D42078400760D5E8690027C000D7
:101B700008D4E86940F08050E861E869012700F086
:101B8000805000905C480168C90513D40168834601
:101B900041F480710160FFF75FFA824606E000BF02
:101BA000FFF75AFAA0EB0A0064284ED8DBF80000D1
:101BB000C005F5D5E06801280AD008B1052813D082
:101BC000286A20F001002862286A20F0040002E060
:101BD000286A40F001002862E06841F2883B98B131
:101BE000FFF73AFA82460BE0286A40F004002862C8
:101BF000EEE700BFFFF730FAA0EB0A0159455AD8CB
:101C0000286A8007F6D50CE0FFF726FA824605E041
:101C1000FFF722FAA0EB0A0159454CD8286A800741
:101C2000F6D41FB1E86920F08050E861E06988B31C
:101C30006968C1F38101022944D00228C6F8608096
:101C400004D0FFF709FA044638E034E0FFF704FA5D
:101C5000074604E0FFF700FAC01B02282BD82868CB
:101C60008001F7D4206AB0F5803F05D16868A1688B
:101C700020F4003008436860D4E90801084369682B
:101C800021F4741108436860C6F86090FFF7E4F926
:101C9000044606E025E000BFFFF7DEF9001B02283E
:101CA00009D828688001F7D51BE000BFFFF7D4F9F9
:101CB000001B022802D90320BDE8F88F28688001A4
:101CC000F4D40EE00128F7D06868226A00F480316D
:101CD000914204D1616A00F47010884201D0012061
:101CE000EAE70020E8E7000000100240000042425E
:101CF00080044242180000200070004010B5401ED1
:101D0000B0F1807F01D3012010BD4FF0E02460616D
:101D10000F21601700F0E0FF0020A0610720206184
:101D2000002010BD70477047F8B501680446086888
:101D3000CA684B6910F00F0F4FF0000559D003F03F
:101D4000010602F49077374365D0C10705D0D1056D
:101D500003D5616C41F001016164410705D5D907E4
:101D600003D0616C41F002016164810705D5D90798
:101D700003D0616C41F004016164010707D502F0F2
:101D80002001314303D0616C41F008016164616C52
:101D900000293AD0800604D5900602D5204600F0EE
:101DA0005DFE20684069616CC0F38010090700D4B3
:101DB00060B3204600F01DFE20684069400621D532
:101DC0002068143050E8001F21F0400140E8001264
:101DD000002AF5D1E06BA8B16D494163E06BFEF7D5
:101DE000DDFE002811D0E06B416B01B0BDE8F04092
:101DF000084783060FD593060DD52046BDE8F84069
:101E000000F02CBE2046FFF78EFFF8BD2046FFF7FE
:101E10008AFF6564F8BD266B2023012E7CD1C6069F
:101E20007AD5D60678D508684868009048694FF09A
:101E30000206400640D5E16B086840680004000CCB
:101E4000E8D0A28D8242E5D9E085886920282DD08E
:101E500020680C3050E8001F21F4807140E8001227
:101E6000002AF5D12068143050E8001F21F001014C
:101E700040E80012002AF5D12068143050E8001F15
:101E800021F0400140E80012002AF5D184F84230E8
:101E9000256320680C3050E8001F21F0100140E855
:101EA0000012002AF5D1E06BFEF755FE6663A08DA7
:101EB000E18D401A81B22AE0A08DE18D401A81B2F5
:101EC000E08D0028A6D00029A4D022680C3252E868
:101ED000000F20F4907042E80007002FF5D1206831
:101EE000143050E8002F22F0010240E80027002FB4
:101EF000F5D184F84230256320680C3050E8002F7B
:101F000022F0100240E80023002BF5D16663204642
:101F1000FFF708FFF8BDFFE705062BD5150629D505
:101F200094F841002128F5D1A068B0F5805F01D177
:101F30002069B0B1206A411C2162216800784860A4
:101F4000E08C401E0004000CE084E3D12068C168EE
:101F500021F08001C1602068C16841F04001C1608A
:101F6000D8E7206A0088C0F308004860206A801C17
:101F70002062E5E74006CDD55006CBD5CA6820469D
:101F800022F04002CA6084F8413000F019F9C1E73C
:101F90004D29000870B5040004D094F841000025D4
:101FA00010B106E0012070BD84F84050204600F0DA
:101FB00023F8242084F841002068C16821F40051EE
:101FC000C160204600F0ACFD2068016921F4904119
:101FD00001612068416921F02A0141612068C168DE
:101FE00041F40051C1606564202084F8410084F808
:101FF00042006563002070BD70B586B000250646BE
:10200000009501950295039500682349884240D1C7
:102010002249886940F480408861886900F48040E2
:102020000490886940F00400886188691C4C00F0C5
:1020300004000490481500900220019003200390B2
:1020400069462046FEF718FF2015CDE900056946D0
:1020500020460295FEF710FF134C12482060102016
:10206000C4E901058020C4E9030580016561C4E974
:1020700006502046FEF788FE08B1FEF76AFDB463FD
:102080000022114625206662FFF79AFB2520FFF704
:1020900089FB06B070BD000000380140001002400E
:1020A00000080140440002402C01002070472DE947
:1020B000F843044690F841001F4616460D46202876
:1020C00002D00220BDE8F8837DB176B100206064C3
:1020D000212084F84100FEF7BFFFA6848046E684F5
:1020E000A068B0F5805F02D003E00120EAE7206934
:1020F00010B12E4600250EE000260CE0802120467F
:1021000000F06AFDA0B9AEB116F8010B2168486075
:10211000E08C401EE084E08C43464FF000020097C4
:102120000028EBD14FF04001204600F055FD30B1C2
:102130000320C7E735F8020BC0F30800E6E72020CC
:1021400084F841000020BDE770B5044690F84100D6
:10215000202801D0022070BD49B342B32162A2847D
:10216000E28400206064212384F84130A56B114B88
:10217000AB62A56B104BEB62A56B104B2B63A36B93
:102180005863256813462A1DA06BFEF72BFE2168B5
:102190006FF0400008602068143050E8001F41F0E4
:1021A000800140E80012002AF5D1002070BD012016
:1021B00070BD0000A7290008E92900085D29000872
:1021C00070477047FEE701684A69D24352050FD451
:1021D0006FF480624A61002140F8301F2022427370
:1021E0008173026942F004020261017301207047A9
:1021F00000207047F8B50446C06A1E460D461746D3
:10220000082807D0012805D010F5803F02D0206BA8
:10221000122804D12068016841F4807101601346DE
:1022200000224FF001112046009600F02FF940B136
:1022300020680068C00502D54FF4007020640320B8
:10224000F8BD2069B0F5804F0ED00620216800EA65
:10225000D51040F0F000086133463A460B4920465D
:1022600000F05CF978B902E005F0FE0000E0E8B2A9
:1022700021680861054933463A46891F204600F027
:102280004DF90028DCD00120F8BD00000800010055
:102290002DE9F84F0446006889460B9D0168984671
:1022A000174641F4806101602068016841F4807143
:1022B000016000954FF0011B0022594620460A9B01
:1022C00000F0E4F84FF4007A40B120680068C005DF
:1022D00001D5C4F840A00320BDE8F88F216809F0BB
:1022E000FE0008612B46284920460A9A00F016F99C
:1022F000F0BB20684169806900902A4620460A990F
:1023000000F0A2F940B1206C04283AD1206801689D
:1023100041F40071016034E0FEB2B8F1010F09D060
:102320002168380A08612A4620460A9900F08CF98B
:102330000028E8D1206806612A4620460A9900F064
:1023400083F90028DFD12068016841F480710160C1
:1023500000950022594620460A9B00F097F8002875
:10236000B3D1216809F0FF0040F00100086100E0EE
:1023700007E02B46044920460A9A00F0CFF80028CF
:10238000AAD00120A8E70000020001002DE9F843CF
:10239000044600680D46DDE9089701689846164630
:1023A00041F4807101604B4600224FF0011120463C
:1023B000009700F06BF848B120680068C00502D5AE
:1023C0004FF4007020640320BDE8F883216805F015
:1023D000FE0008613B464A461549204600F09EF83B
:1023E00088B920684169806900903A46494620468C
:1023F00000F02AF948B1206C042804D12068016853
:1024000041F4007101600120DEE7F5B2B8F1010F7F
:1024100009D02168300A08613A464946204600F052
:1024200013F90028E7D1206805610020CCE70000FF
:102430000200010070B516460D4604461EE0204617
:10244000FFF7C1FE08B1012070BD681C16D0FEF771
:1024500003FE801BA84200D885B920684069C043AC
:1024600040070BD5002044F8300F20216173A07382
:10247000216941F0200121612073E4E7206840696F
:10248000C0434007DBD4002070BD00002DE9F047B9
:10249000984617460D460446C1F30746DDF82090DE
:1024A0002AE000BFB8F1FF3F26D0FEF7D5FDA0EB34
:1024B0000901414502D8B8F1000F1DD12068012E55
:1024C00016D0806925EA00000004000C12D000201C
:1024D000B84211D1002044F8300F20216173A0735D
:1024E000216941F02001216120730120BDE8F087BE
:1024F0004069E7E70120EBE72068012E0AD08069F8
:1025000025EA00000004000C06D00020B842C9D023
:102510000020EBE74069F3E70120F7E72DE9F047FA
:10252000984616460D4604464FF000094FF0200A23
:10253000C1F3074723E020684069C043400515D434
:102540002068016841F40071016021686FF48060C7
:102550004861C4F8309084F83DA084F83E90216C26
:1025600041F00401216484F83C9021E0701C06D005
:10257000FEF772FDA0EB0800B04203D816B1012FA0
:102580001FD021E02068012F15D0806925EA0000C6
:102590000004000C18D000BF44F8309F84F80DA050
:1025A00084F80E90216941F02001216184F80C909B
:1025B0000120BDE8F087406925EA00000004000C16
:1025C000EAD12068406901E02068806925EA0000BE
:1025D0000004000CAFD1ECE72DE9F0410025904656
:1025E0000E460446202728E04069C043C0060CD4AC
:1025F00054F8301B6FF01000486144F810596777A9
:10260000A577206A2062257714E0FEF725FDA0EB70
:102610000800B04200D886B920684069C04340062F
:102620000BD544F8305F6773A573206940F0200034
:10263000206125730120BDE8F08120684169C9430C
:102640004906D1D40020F6E770B516460D4604467B
:102650001EE02046FFF7B7FD08B1012070BD681CE1
:1026600016D0FEF7F9FC801BA84200D885B9206877
:102670004069C04300060BD5002044F8300F2021EC
:102680006173A073216941F0200121612073E4E7A7
:1026900020684069C0430006DBD4002070BD10B53F
:1026A00080216B2000F08AF86420FEF7D3FB002124
:1026B0006B2000F083F8032000F04BF8002000F0BE
:1026C00043F8322000F062F80021382000F076F85C
:1026D00000216A2000F072F80021232000F06EF83B
:1026E0008021372000F06AF8752000F011F8682882
:1026F00001D0012010BD01216B2000F05FF8002106
:102700006C2000F05BF8322000F040F8002010BD93
:102710001FB500218DF80C100A4900BF91F83D202B
:10272000242AFBD040F6FF73012203A98DE80E0096
:1027300013460246D1210348FEF7EEFD9DF80C003A
:1027400004B010BD90000020C006010E1C2000F057
:1027500035B8C006010E1B2000F030B8BC2801D3EC
:10276000012110E0622801D302210CE02A2801D3C4
:10277000032108E0142801D3042104E00A2801D32E
:10278000052100E006211A2000F018B810B5044613
:102790004FF47A70844201D9044602E0042C00D23E
:1027A0000424B0FBF4F0401EC1B2192000F006F87A
:1027B0006008BDE81040FFF7D1BF00001FB58DF8DD
:1027C0000C100A4991F83D20242AFBD040F6FF73F3
:1027D000012203A98DE80E0013460246D0210348CA
:1027E000FEF7C2FE04B0002010BD000090000020E3
:1027F000094808B5416941F0010141614069002281
:1028000000F00100009011460E20FEF7D9FFBDE850
:1028100008400E20FEF7C6BF00100240114808B560
:10282000816941F010018161816901F0100100911D
:10283000816941F020018161816901F020010091ED
:10284000816941F004018161816901F00401009115
:10285000816941F008018161806900F00800009001
:1028600008BD0000001002400D4810B50B49016082
:102870000C49416000214FF480428160C0E903129D
:1028800041618161C1610162FEF7ECFB002803D068
:10289000BDE81040FEF75DB910BD000000540040D7
:1028A00090000020801A06000C4810B50A4901600B
:1028B0004FF4E1314160002181600C22C160C0E928
:1028C00004128161C161FFF765FB002803D0BDE8F8
:1028D0001040FEF73EB910BD00380140E400002072
:1028E000FEE7FEE770477047FEF704BF30B58FB0D4
:1028F00028216846FDF75EFC14210AA8FDF75AFC62
:1029000001210804CDE9001000240294022504915D
:10291000CDE907504FF4E01009906846FFF75EF8E4
:1029200008B172B6FEE70F20CDE90A054FF48060CA
:10293000CDE90C4002210AA80E94FEF773FF00288F
:1029400001D072B6FEE70FB030BD704710B5406AD7
:102950000021C185C184FFF7E6F910BD70B5446A56
:102960002068406994F84110C0F3C0100025212967
:1029700004D118B1E584204600F062F8206840696F
:1029800094F84210C0F38010222904D118B1E585D3
:10299000204600F02EF8606C40F010006064204685
:1029A000FFF7C1F970BD10B50146406A09680968B2
:1029B000890616D40021C1840168143151E8002F22
:1029C00022F0800241E80023002BF5D101680C3190
:1029D00051E8002F42F0400241E80023002BF5D1DE
:1029E00010BDFFF7EDFB10BD10B5406AFFF7E9FB26
:1029F00010BD01680C3151E8002F22F4907241E8BB
:102A00000023002BF5D10168143151E8002F22F08A
:102A1000010241E80023002BF5D1016B012909D106
:102A200001680C3151E8002F22F0100241E8002328
:102A3000002BF5D1202180F842100021016370475E
:102A400001680C3151E8002F22F0C00241E8002358
:102A5000002BF5D1202180F84110704708B590F87F
:102A60004210222901D0022008BD82684FF4805311
:102A70009A4201D1016921B1816A9A421BD04AB1BF
:102A80000AE00268816A5268C2F308020A80816A19
:102A9000891C08E0026972B10268526802F07F0284
:102AA0000A70816A491C8162C18D491E0904090CA2
:102AB000C18503D01BE002685268F1E70168CA686B
:102AC00022F02002CA600168CA6822F48072CA60DB
:102AD00001684A6922F001024A61202180F842100F
:102AE00000214163026B012A03D0FFF7DFFA0020C7
:102AF00008BD016301680C3151E8002F22F010027B
:102B000041E80023002BF5D101680A68D20602D5FE
:102B10000A6849680091818DFFF704F9E7E7000032
:102B200070B5044600680169E26821F44051114320
:102B300001612169A0680843616908432168CA6886
:102B400041F20C639A430243CA6020684169A2695A
:102B500021F44071114341611E492068884202D12D
:102B6000FEF706FF01E0FEF7F3FE00EBC00101EB0C
:102B70000012606864218000B2FBF0F3B3FBF1F354
:102B80006FF018067343B2FBF0F5B2FBF0F605EBFD
:102B90008305322303EB0515B5FBF1F5B6FBF1F622
:102BA00005F0F00505EB0615B2FBF0F6B2FBF0F010
:102BB000B0FBF1F06FF01802504306EB800003EB1E
:102BC0000010B0FBF1F0216800F00F00284488608D
:102BD00070BD0000003801402DE9F04198461746CD
:102BE0000E460446069D27E0681C25D02DB1FEF751
:102BF00033FAA0EB0800A8421ED920680C3050E838
:102C0000001F21F4D07140E80012002AF5D120689D
:102C1000143050E8001F21F0010140E80012002AA2
:102C2000F5D1202084F8410084F84200002084F887
:102C300040000320BDE8F0812068006836EA00000B
:102C400004D00020B842CFD00020F3E70120F9E7FC
:102C50000148FFF769B80000E4000020FEE700002B
:102C60000FB4054B10B503A9044A029800F084F98B
:102C700010BC5DF814FB00008146000854000020E1
:102C80000FB41CB50246002007AC00290BD0491E2A
:102C9000CDE90021054B6A462146069800F06CF903
:102CA000009A002111701CBC5DF814FBA7360008C7
:102CB000490050EAC12018BF04204A0D18BF40F057
:102CC000010040F2FF72B2EB515F08BF40F002001A
:102CD000012808BF052070470907090E002804DBFA
:102CE00000F1E02080F80014704700F00F0000F1C0
:102CF000E02080F8141D70472DE9F0414F1E00EBD5
:102D0000C7010446D1E9000115461E4637F0060208
:102D10000DD02A463346FDF7E0FB7F1E04EBC703C8
:102D2000D3E90023FDF732FB37F00602F1D1022F81
:102D300025D0042F13D0062F18BFBDE8F0812A46F6
:102D40003346FDF7CAFBD4E90A23FDF71FFB2A46E9
:102D50003346FDF7C2FBD4E90823FDF717FB2A46EB
:102D60003346FDF7BAFBD4E90623FDF70FFB2A46ED
:102D70003346FDF7B2FBD4E90423FDF707FB2A46EF
:102D80003346FDF7AAFBD4E90223FDF7FFFA2A46F2
:102D90003346FDF7A2FBD4E90023BDE8F041FDF77F
:102DA000F5BA0122FDF7E0BDFDF7F0BA00221346A7
:102DB00010461146FDF703BC024A00201107FDF73B
:102DC000D3BD000001FDFFFF02E008C8121F08C1CB
:102DD000002AFAD170477047002001E001C1121F9C
:102DE000002AFBD1704700000149086070470000CD
:102DF000580000202DE9FF5F82B00021DDE904309A
:102E0000020DDDF840B0034318D044F61050A2F292
:102E1000FF3242431514119801281FD0A5EB0B0077
:102E2000401C5FEA000A4FF000064E4FDFF8389171
:102E3000B046504615D5CAF1000413E0119801249C
:102E40004AA3012801D16FEA0B010298119AC0E947
:102E50000031C0E9024206B0BDE8F09FCBF10000AE
:102E6000DFE704460021404A491842EB0450CDE90F
:102E7000001012E0E00707D032463B464046494684
:102E8000FDF72BFB8046894632463B4610461946E5
:102E9000FDF723FB06460F466410002CEAD1DDE95E
:102EA0000401DDE90023BAF1000F06DAFDF715FB96
:102EB00042464B46FDF711FB05E0FDF780FB42461D
:102EC0004B46FDF77CFB04460E460022284BFDF7DF
:102ED0007BFD03D84FF0FF30014607E00022254B71
:102EE00020463146FDF752FAFDF755FD102409E062
:102EF000002C0ADB0A220023FDF750FC039B303232
:102F00001A55641E50EA0102F2D1641C039AC4F1FE
:102F100011031444119A012A03D0012208430DD150
:102F20000AE0084304D000204FF0110B119072E723
:102F3000A3EB0B056D1E0DE05B4504DD4FF00002B9
:102F400005F1010504E003DA4FF00002A5F10105E7
:102F5000002AECD002981199C0E90231C0E900457D
:102F600079E70000000014400000F03F300000004E
:102F70000000F0430000E03F2DE9FF4F95B09B4675
:102F80008946064600250FE2252877D100242746EA
:102F9000F84A0121059400E0044316F8013F203B64
:102FA00001FA03F01042F7D130782A2811D06FF0DF
:102FB0002F033078A0F13002092A16D8059A44F080
:102FC000020402EB820203EB42021044761C0590DD
:102FD000EFE759F8042B0592002A03DA504244F433
:102FE0000054059044F00204761C30782E2816D147
:102FF00016F8010F44F004042A280DD06FF02F02B8
:103000003078A0F13003092B09D807EB870302EBD6
:103010004303C718761CF3E759F8047B761C307815
:103020006C280FD006DC4C2817D068280DD06A28F1
:1030300014D104E0742810D07A280FD10DE044F4A4
:1030400000140AE044F4801401E044F4401472785F
:10305000824202D104F58014761C761C30786628F2
:103060000BD013DC582877D009DC002875D0452810
:10307000F6D04628F4D047281AD19DE118E06328FD
:1030800035D0642879D0652812D195E1702873D0A5
:1030900008DC6728F1D069286FD06E280DD06F2822
:1030A00006D1B5E073282CD0752875D0782874D057
:1030B0005A46179990476D1C75E1C4F302500228D7
:1030C00009D003280DD0D9F8001004280DD00D60C8
:1030D00009F1040967E1D9F80010EA17C1E90052C3
:1030E000F6E7D9F800100D80F2E70D70F0E719F857
:1030F000041B8DF8001000208DF80100EA46012025
:1031000003E059F804AB4FF0FF3061074FF00001C6
:1031100002D40DE008F101018846B9420FDA80457A
:10312000F8DB1AF808100029F4D108E008F10101D1
:1031300088468142FADB1AF808100029F6D1059872
:103140005B46A0EB080721463846179A00F094FA30
:10315000284400EB080507E04DE029E10DE01AF8EE
:10316000010B5A4617999047B8F10108F7D25B4610
:1031700021463846179A13E142E00A220092C4F32E
:1031800002524FF0000A022A08D059F804CB032A51
:103190004FEAEC710AD00DE029E02AE009F10701BD
:1031A00021F00702F2E802C1914609E00FFA8CFC17
:1031B0004FEAEC71042A03D14FFA8CFC4FEAEC7110
:1031C000002907DA0A460021DCF1000C61EB02015C
:1031D0002D2202E0220504D52B228DF804200122A5
:1031E00003E0E20701D02022F7E7904659E00A21E8
:1031F00002E010220DE010214FF0000A00910BE0D8
:1032000010224FF0000A44F004040827009203E063
:1032100008224FF0000A0092C4F30252022A05D09D
:1032200059F804CB0021032A08D009E009F107016D
:1032300021F00702F2E802C1914605E01FFA8CFC7A
:10324000042A01D10CF0FF0C4FF00008220728D50A
:10325000702806D0009B83F0100353EA0A0305D0C0
:103260000EE040228DF80420012208E05CEA010211
:1032700006D030228DF804208DF8050002229046F9
:10328000009B83F0080353EA0A030AD15CEA0102B7
:1032900001D1620705D530228DF804204FF00108D6
:1032A0007F1E582804D034A003900EA802900DE091
:1032B00036A0F9E753466046009AFDF76FFA844658
:1032C0000398825C0298401E029002705CEA010042
:1032D000F0D1029806A9081A00F1200A600702D569
:1032E00024F4803400E00127574502DDA7EB0A00F3
:1032F00000E0002000EB0A01009005984144401ACC
:103300000590E00306D45B462146179A059800F025
:10331000B3F90544002706E001A85A46C05D179995
:1033200090476D1C7F1C4745F6DBE0030CD55B46E0
:103330002146179A059800F09FF9054404E03020D3
:103340005A46179990476D1C0099481E0090002915
:10335000F5DC08E0029802995A460078491C02916F
:10336000179990476D1CBAF10001AAF1010AF1DC2E
:1033700065E1000009280100303132333435363739
:1033800038396162636465660000000030313233B1
:103390003435363738394142434445460000000051
:1033A00000F058F90544761C307800287FF4ECAD25
:1033B00019B02846BDE8F08F620700D4062709F14E
:1033C000070222F0070CFCE80223E14603F0004864
:1033D0005FEA080C02D00FF2702C0DE05FEA045C8B
:1033E00002D50FF2682C07E05FEAC47C02D00FF22E
:1033F000602C01E0AFF2700C4FF0FF3823F0004377
:10340000CDF850C065280CD006DC452809D04628E8
:103410001DD047283DD13DE0662818D067287ED1D1
:1034200038E00021112F01DB112000E0781CCDE9EC
:10343000000106A90EA8FFF7DDFCDDE90F010E9AD9
:1034400003910021009207F1010A04914DE04FF031
:1034500000400097CDE9011006A90EA8FFF7CAFCAD
:10346000DDE90F0203920E9B11990022DDF80CA0FA
:103470000093049211B9791C00EB010AB7EB0A0022
:1034800004D4C0F1FF3007F1010A0490AAEB070051
:10349000019044E0012F00DA01270021112F01DD06
:1034A000112000E03846CDE9000106A90EA8FFF77B
:1034B000A1FCDDE90F010E9A039100210491009215
:1034C000BA4621070CD40399514500DA8A46BAF16D
:1034D000010F05DD009AAAF10101515C302908D0E5
:1034E000B84202DA10F1040F06DA0121CDE9011029
:1034F00015E0AAF10101E9E7002805DC049901447F
:103500000491AAEB000102E0411C514500DD8A460E
:103510000499401A401C01904FF00040029020078F
:1035200004D40198504501DBCDF8048000208DF8CB
:103530004F0002980DF14F07B0F1004F25D02B201E
:103540000E9002984FF0020800280CDA40420290D8
:103550002D200E9007E00A210298FDF709F930317D
:10356000029007F8011DB8F10001A8F10108F2DC92
:1035700002980028EFD1791E0E980870307800F07C
:10358000200040F0450007F8020D12A8C01B00F112
:1035900007081498007800B1012000EB0A01019897
:1035A00001EBE07105984144401A401E0590E0038C
:1035B00006D45B462146179A059800F05DF805444D
:1035C0001498007818B15A46179990476D1CE0037B
:1035D00024D55B462146179A059800F04DF805441E
:1035E0001CE00498002807DBDDE90301884203DDC5
:1035F0000098405C179901E0179930205A4690478F
:10360000049805F10105401C04900198401E0190AA
:1036100004D12E205A46179990476D1CBAF100012B
:10362000AAF1010ADDDC05E017F8010B5A461799EB
:1036300090476D1CB8F10001A8F10108F4DC5B466D
:103640002146179A0598ABE62D0000002B000000DC
:10365000200000002DE9F041044600251E461746D3
:10366000880404D405E039462020B0476D1C641E50
:10367000F9D52846BDE8F0812DE9F0410446002542
:103680001E469046C80301D5302700E02027880455
:1036900004D505E041463846B0476D1C641EF9D597
:1036A0002846BDE8F0814A68002A06D00A68531C03
:1036B0000B6010704868401E486070472DE9FE4F4F
:1036C00007460E460025684600F0E6FF00246FF02E
:1036D0000F0AE8464FF0010957F8240056F8241065
:1036E000401A00D54042FCF7D9FF5146FCF742FE94
:1036F00058F8241011F0FF4F0BD0FCF7FDFD4FF0F0
:103700007E51FCF7C1FD0A4920F00040884205DCEB
:1037100007E0084908440849884202D309FA04F03E
:103720000543641C032CD7DB2846BDE8FE8F000050
:10373000295C0F3E666666C19A99D9002DE9F04D65
:103740008D4F21F0004A86B005460C46BA452ADB6B
:10375000AAEB070028430AD08848824501DC1AD129
:10376000CDB106B02846BDE8F04DFFF71ABB844A3C
:10377000844B2846FCF7B1FE07460E46824A834B2F
:1037800028462146FCF7A9FE06B03A463346BDE876
:10379000F04DFCF7FBBD0120FFF726FB06B0BDE8AE
:1037A000F04DFFF703BB7A48824542DABAF1795F00
:1037B0000BDA2846FFF77CFA042808BFFFF7FCFA6B
:1037C000284606B02146BDE8F08D2A460B46104635
:1037D000FCF783FE834602466E480E460B460621E2
:1037E0007844FFF789FA5A463346FCF776FE80465E
:1037F00069488A465A46334604217844FFF77CFAE2
:103800005A463346FCF769FE00223B46FCF7BEFDF4
:1038100002460B4640465146FCF7D1FE2A46234657
:10382000FCF75BFE06B02A462346BDE8F04DFCF7E8
:10383000ADBD284624F0004100223D463B46FCF742
:1038400049FE4FF0FF32FDF78FF806460246534817
:103850000F460B4606217844FFF74EFA32463B46A8
:10386000FCF73BFECDE900014D4832463B460421C2
:103870007844FFF741FA32463B46FCF72EFE002221
:103880002B46FCF783FD834602913046394602F011
:10389000C5F9804643480D46504517DCDDE9000177
:1038A0005A46029BFCF78BFE42462B46FCF715FE60
:1038B00042462B46FCF76AFD0122FDF755F8304AD7
:1038C000304BFCF704FE304A304B4CE04FF0000A1E
:1038D00052460B464046FCF759FDCDE903105246CF
:1038E0002B4610461946FCF7F8FD32463B46FCF7DE
:1038F000F1FDDDE90332FCF762FE06460F46DDE925
:1039000000015A46029BFCF75AFE834600910122B1
:1039100030463946FDF728F8194A1A4BFCF7DAFD0C
:1039200006460F46012240462946FDF71DF85A4635
:10393000009BFCF7D2FD32463B46FCF7C8FD06462D
:103940000F46012250462946FDF70EF80E4DDFF8CE
:1039500058802A464346FCF7BDFD32463B46FCF7FD
:10396000B9FD2A464346FCF7B5FD002CD8BF81F0CF
:10397000004106B0BDE8F08D0000F03F0000F07F90
:10398000075C143326A6913C182D4454FB21F93FC3
:103990000000E03FFC3000001231000086300000E3
:1039A0009C3000003333EF3FFB21E93F2DE9F84F16
:1039B00004460D4621F0004000917349814211DC1C
:1039C0007249884201DC06D12CB120462946BDE867
:1039D000F84FFFF7E6B96E48002DCCBF6D496E4930
:1039E000BDE8F88F6D49814211DD6D498142D8BF34
:1039F0004FF0FF366DDD20462946FFF759F90428C0
:103A000008BFFFF7D9F920462946BDE8F88F654978
:103A1000654F25F00045814233DD6449814219DD5F
:103A2000002632464FF0804320462946FCF7AEFC84
:103A300080468A46012220462946FCF795FF00224F
:103A40003B46FCF744FD42465346FCF7B8FD0446AE
:103A50000D463EE001260022BA463B462046294656
:103A6000FCF794FC80460F46002253462046294628
:103A7000FCF72DFD42463B46FCF7A1FD04460D46F2
:103A800027E04B4981421BDDDFF828A102260022F6
:103A9000534620462946FCF720FD00223B46FCF712
:103AA00075FC80460F460022534620462946FCF707
:103AB0000EFD42463B46FCF782FD04460D4608E0FB
:103AC000032622462B4600203B49FCF778FD04469E
:103AD0000D4622462B4610461946FCF7FEFC8B4647
:103AE000824602460B46FCF7F8FC0746024633487E
:103AF00088460B4606217844FFF7FEF852465B469F
:103B0000FCF7EBFC82462E488B463A46434605219D
:103B10007844FFF7F1F83A464346FCF7DEFC0246EC
:103B20000B46002E504659460CDAFCF72FFC224675
:103B30002B46FCF7D2FC01B022462B46BDE8F04FE5
:103B4000FCF7C8BCFCF722FC22462B46FCF7C5FC60
:103B50001C4A7A4402EBC603D3E90023FCF7B7FC06
:103B600022462B46FCF7B3FC174A7A4402EBC60305
:103B7000D3E90023FCF7AEFC009A002AB8BF81F01D
:103B80000041BDE8F88F0000000010440000F07F05
:103B9000182D4454FB21F93FFB21F9BF0000DC3F05
:103BA0000000203E0000F33F0000F03F0000E63F31
:103BB000008003400000F83F0000F0BF9E2E000090
:103BC0005C2E0000FA2D0000C22D00002DE9F04D02
:103BD0009446CCF1000423F000464CEA0404524F12
:103BE00046EAD4749A46884621F00042BC4206D880
:103BF000454240EA050442EAD474BC4204D9BDE817
:103C0000F04D6246FFF7D0B8AAF14055A5F17F65A7
:103C100055EA0C040BD0022404EAAA74434DDFF8E1
:103C200010E144EAD87452EA000B04D00CE0BDE87D
:103C3000F04DFFF7BBBE002C14BF012CBDE8F08D8A
:103C4000022C30D0032C32D056EA0C0B0AD0BE42E4
:103C500020D1BA4209D126F0804622F08042334674
:103C6000114617E000291ADB25E0DFF8C8B0FB4455
:103C7000002C04BFDBE90001BDE8F08D012C02BF80
:103C8000DBE9000181F00041BDE8F08D022C0AD093
:103C9000032C0CD0BA4212D1B8F1000F0BDA234832
:103CA0002549BDE8F08D28462449BDE8F08D284619
:103CB0007146BDE8F08D1D482149BDE8F08D921B8D
:103CC00012153C2AC4BF19481D490EDCBAF1000F79
:103CD000BEBF12F13C0F0020014606DB6246FCF736
:103CE0006EFC21F00041FFF761FE002C08BFBDE82B
:103CF000F08D012C04BF81F00041BDE8F08D114A28
:103D0000114B022C07D0FCF7E2FB2A46BDE8F04D30
:103D10000A4BFCF7DCBBFCF7DAFB2A46BDE8F04DAA
:103D2000064BFCF7D7BB00000000F07F182D445471
:103D3000FB2109C0562D0000FB21F9BFFB210940E2
:103D4000FB21F93F075C143326A6A13C08B560B1FE
:103D500020208DF8000028208DF8010030208DF8FB
:103D6000020038208DF8030004E0A32204216846F5
:103D7000FCF719FA6A46042140F69E2001F056FE2F
:103D800001F014FB08BD00003EB5044602208DF88A
:103D90000000CA208DF80100E3208DF80200092000
:103DA0008DF803006A460421682001F03FFEA3203D
:103DB0008DF80000610609D5C0218DF80110C821D9
:103DC0008DF80210C2218DF8031005E08DF8010076
:103DD0008DF802008DF8030014F4C07F09D0C421CF
:103DE0008DF80410CC218DF80510C6218DF8061031
:103DF00005E08DF804008DF805008DF806008DF8BB
:103E000008008DF807008DF809006A460A2140F67F
:103E1000A72001F00BFEA0074FF0D80503D020200B
:103E20008DF8000001E08DF800506A46012140F64F
:103E3000B62001F0FBFDA00601D5012000E0002026
:103E400000F08EF814F4C07F1ED0E0050AD5B22031
:103E50008DF800008B208DF80100B6208DF802004F
:103E60009B2009E0B0208DF8000080208DF8010033
:103E7000B4208DF8020090208DF803006A460421DA
:103E800040F6A22001F0D2FDE1074FF40B6022D0F2
:103E9000F8218DF800106A46012101F0C7FDFA21D2
:103EA000072000F039FB072000F004FB012000F0A0
:103EB00021FB642000F0C4FB4FF4FA7000F0D0FB4B
:103EC000C821254800F0BEFA282000F0D3FA0A20C5
:103ED00000F0E0FA05E08DF800506A46012101F09B
:103EE000A5FDA00703D5D9208DF8000001E08DF8CD
:103EF00000506A46012140F23D7001F097FD6007D5
:103F000001D5012000E0002000F048F8E00601D5CE
:103F1000012000E00020FFF719FF104D44F00800D9
:103F2000688101F043FA0020A873600601D50620DD
:103F3000A87314F4C07F02D0A87B801DA87314F06E
:103F4000140F02D0A87B1030A873A00702D0A87B62
:103F5000001DA87300203EBD09E3CA0270010020C5
:103F60000EB54FF4976310B106A107C901E008A28E
:103F700007CA8DE807006A460921184601F056FD78
:103F80000EBD0000B8AAB38DB4980D355D000000D9
:103F9000B8AAAAAAB088C3C5C700000008B560B116
:103FA000C0208DF80000C2208DF80100C4208DF8DB
:103FB0000200C6208DF8030004E08B22042168462D
:103FC000FCF7F1F86A46042140F6982001F02EFD36
:103FD00001F0ECF908BD0000C8234FF480620249EB
:103FE00040F6F63001F0C4B8E45C00082DE9FF4F5C
:103FF00089B01746DDE9165200244C4E88468146AA
:104000002C80A246B07B694601F05EF94FF0FF3B81
:1040100018B158460DB0BDE8F08F708910F0140F3C
:104020003CD0009909BA21F0FF039DF803100B431F
:104030003B6001991B1409BA21F0FF029DF807109B
:104040005B430A437A6002999DF80B4009BA21F05C
:10405000FF012143B960039C091424BA24F0FF0C2A
:104060009DF80F4012144CEA040CC7F80CC04FEA3C
:104070002C47494302FB023207FB0711114410246D
:10408000A1F17061B1F1007F04D901F08FF9A5F8B9
:1040900000A0BEE7298841F4807129804206694664
:1040A00011D50A19A41D13885BBAA8F800305388EB
:1040B0005BBAA8F80230928852BAA8F804202A887D
:1040C00042F008022A8010F4C07F11D00A19A41D02
:1040D00013885BBAA9F8003053885BBAA9F802309C
:1040E000928852BAA9F804202A8842F070022A80E5
:1040F000800716D00C44E07800F0C00500F03F01C6
:104100006078C00706D0C80801F007013268491C72
:1041100002B190476078000703D5716809B1A8091A
:1041200088470C9800F072FD002073E770010020B2
:104130002DE9FF41044603A800F0D0FEBDF80C00B5
:10414000410CC3032F48028902F00300550754F8BD
:10415000200000D54042C2F3C105960654F8255010
:1041600000D56D42C2F38116D20554F8264000D521
:104170006442A0FB0367C21702FB037200FB01202D
:10418000820042EA9670A5FB0367EA1702FB0372FE
:1041900005FB0122950045EA9672A4FB0367E5172B
:1041A00005FB037304FB01318B0043EA9671030E98
:1041B0008DF80030030C8DF80130030A8DF80230C1
:1041C0008DF80300100E8DF80400100C8DF805001A
:1041D000100A8DF80600080E8DF80800080C8DF8FE
:1041E0000900080A8DF80A008DF807208DF80B10D9
:1041F0006A460C214FF4257001F018FC04B0BDE8AC
:10420000F08100007001002030B5044613A285B093
:1042100007CA8DE807004FF0FF35C82C16D8C82014
:10422000B0FBF4F1491E080A8DF80C008DF80D1052
:1042300003AA022140F2162001F0F8FB30B96A46C9
:104240000C2140F6C12001F0F1FB10B1284605B069
:1042500030BD054884810020F9E70000FEF2ABC4C0
:10426000AAF1DFDFBBAFDFDF70010020F8B5304916
:10427000098901F0030250F822404A0700D5644240
:10428000C1F3C1028B0650F8222000D55242C1F37F
:10429000811350F82330C80500D55B42254984FBC3
:1042A0000140850045EA947082FB0142A40F44EA74
:1042B000820483FB0121950F45EA8105010E8DF8EB
:1042C0000010010C8DF80110010A8DF802108DF814
:1042D00003006A4604214FF4747001F0A7FB4FF00D
:1042E000FF3688B9200E8DF80000200C8DF80100F3
:1042F000200A8DF802008DF803406A4604214FF42D
:10430000757001F093FB08B13046F8BD280E8DF8AA
:104310000000280C8DF80100280A8DF802008DF8A5
:1043200003506A4604214FF4767001F07FFBF8BD1C
:104330007001002009E3CA022DE9FF4104463CA0B8
:1043400004F00303006802903AA0006803903AA0CA
:1043500006683AA0056802A8C15C8DF80010C4F395
:10436000C101425C8DF80120C4F38112805C8DF89C
:10437000020003A8C35C8DF80430415C8DF8051081
:10438000805C8DF806006A46032140F2264001F069
:104390004DFB4FF0FF37E0BB01AA032140F22A405A
:1043A00001F044FBA8BBCDE9006560070BD59DF883
:1043B000000040F001008DF800009DF8040040F07E
:1043C00001008DF80400A0060BD59DF8010040F017
:1043D00001008DF801009DF8050040F001008DF806
:1043E0000500E0050BD59DF8020040F001008DF8B6
:1043F00002009DF8060040F001008DF806006A46B4
:1044000003214FF4886001F011FB10B901AA0321C8
:1044100000E004E040F2314001F008FB18B13846FA
:1044200004B0BDE8F081064804810020F8E70000F0
:104430004CCD6C000CC92C00365676002646660022
:10444000700100204FF47A7290FBF2F008B54843F7
:10445000010E8DF80010010C8DF80110010A8DF885
:1044600002108DF803006A4604214FF4AE7001F08B
:10447000DDFA08BD0521B0FBF1F008B5010A8DF8A1
:1044800000108DF801006A4602214FF4AD7001F072
:10449000CDFA08BD0521B0FBF1F008B5010A8DF891
:1044A00000108DF801006A4602214FF4AC7001F053
:1044B000BDFA08BD08B500218DF80010C10702D073
:1044C00030218DF80010810705D59DF8001041F0CE
:1044D0000C018DF80010400705D59DF8000040F054
:1044E00003008DF800006A4601214FF4A47001F02A
:1044F0009DFA08BD08B560B1042800D90420401E0B
:104500008DF800006A46012140F24F1001F08EFA4A
:1045100008BD0120F3E700002DE9FC4105464007F6
:104520004FF0FF367CD0B1F5C86F79D80846FCF75C
:10453000BEF83E49FBF7E0FE074601A800F0B0FCDC
:104540009DF80400022806D004280DD008282ED09B
:10455000102865D134E00E213846FBF70BFFFCF73D
:10456000C4F884B2324907E00D213846FBF702FF58
:10457000FCF7BBF82F4984B23846FBF78BFEFCF7FB
:10458000B4F8210A8DF8001080B28DF80140010ABC
:104590008DF802108DF80300E8076C4620D0224603
:1045A00002214FF4EA7001F041FAC8BB11E00C217E
:1045B0003846FBF7DFFEFCF798F884B21E49DBE7CC
:1045C0000B213846FBF7D6FEFCF78FF884B21B4967
:1045D000D2E7A21C02214FF4927001F027FAF8B939
:1045E000A8070DD56A4602214FF4EC7001F01EFABF
:1045F000B0B9A21C02214FF4947001F017FA78B9F7
:10460000680710D56A4602214FF4EE7001F00EFAE9
:1046100030B9A21C02214FF4967001F007FA10B1D4
:104620003046BDE8FC810020FBE700000000484365
:10463000000040460000C045000040450000C04466
:104640000521B0FBF1F008B5010A8DF800108DF8D6
:1046500001006A4602214FF4EF7001F0E7F908BD4E
:104660000521B0FBF1F008B5010A8DF800108DF8B6
:1046700001006A4602214FF4ED7001F0D7F908BD40
:1046800013B54FF0FF33012269460248FDF70FFDD5
:1046900000981CBDE40000202DE9FE430646264894
:1046A00001AB042240680D210078FCF725FA10B117
:1046B0000720BDE8FE839DF804101C2000EAD1020B
:1046C0009DF80710DFF87490C1F301131A438DF8B9
:1046D00000209DF80520C1F3810300EAD2021A43AD
:1046E0008DF801209DF8062001F0030100EAD200B8
:1046F00008430024124F8DF80200A0466D46285D45
:1047000010B146F824900AE046F824800DE000BF7E
:1047100056F824003946FBF7BDFD46F82400285D15
:10472000401E10F0FF002855F2D1641CE4B2032CA7
:10473000E5D30020BDE700001C0000207B14AE3E46
:104740001D5A843F2DE9FE4F05460120C14E8DF8CC
:1047500000004FF000088DF8018030680C461746C5
:10476000817C70686B4602220078FCF7DBF94FF021
:10477000FF3A00287AD1C820FCF76CFB8DF8008046
:1047800030686B460122C17B70680078FCF7CAF97B
:104790000028EFD130686B460122417970680078BB
:1047A000FCF7C0F90028E5D130686B460122817C16
:1047B00070680078FCF7B6F90028DBD130686B46EA
:1047C0000122C17D70680078FCF7ACF90028D1D1D6
:1047D00030686B460122017970680078FCF7A2F915
:1047E0000028C7D14FF00C098DF8009030686B4657
:1047F0000122017970680078FCF794F9002835D11E
:104800000F20FCF727FBB06A6B460122407A8DF837
:1048100000003068817870680078FCF783F9002820
:1048200024D1B06A6B460122007A8DF8000030680E
:10483000417870680078FCF775F9002873D1B06A88
:10484000807A0FB140F0E0008DF8000030686B46D0
:104850000122817970680078FCF764F9002862D140
:104860002FB1B06AC07A40F0E00001E04AE01820C1
:104870008DF8000030686B460122C17970680078BD
:10488000FCF750F9F0BB17B1C820FCF7E3FA402061
:104890008DF8000030686B4601220179706800785D
:1048A000FCF740F970BB78208DF8000030686B464B
:1048B0000122417970680078FCF734F910BB32208E
:1048C000FCF7C8FA8DF80080306847466B4641799E
:1048D000706801220078FCF725F998B93168706892
:1048E000B046897A00786B460222FCF705F948B990
:1048F000BDF80000AF6040BAB0FBF9F06F60C6B21F
:104900002F6000E00FE0A76067602760002739E0B4
:10491000D8F80010D8F804006B46C97A00780C2249
:10492000FCF7EAF810B15046BDE8FE8FBDF8000074
:10493000236840BA02B2BDF80200BDF804101A4460
:10494000226040BA626800B21044606049BAA06850
:1049500009B20844A060BDF806002B6840BA02B254
:10496000BDF808001A4440BA01B2BDF80A002A6036
:104970006A6840BA11446960A96800B208447F1CA3
:10498000FFB2A860B742C3D328688322C1170904C5
:1049900041EA104100040023FBF7C4FB3246002328
:1049A000FBF7C0FB286068688322C117090441EA4D
:1049B000104100040023FBF7B5FB32460023FBF750
:1049C000B1FB6860A8688322C117090441EA10415D
:1049D00000040023FBF7A6FB32460023FBF7A2FBF3
:1049E000A86020684FF40065C117090441EA10412E
:1049F00000042A460023FBF795FB32460023FBF711
:104A000091FB206060682A46C117090441EA104101
:104A100000040023FBF786FB32460023FBF782FBF2
:104A20006060A0682A46C117090441EA10410004E9
:104A30000023FBF777FB32460023FBF773FBA060F4
:104A4000002802DDA0F5803001E000F58030A06094
:104A5000002069E71C0000202DE9F84F81462E4810
:104A60008846002540686B46032200780D21FCF73C
:104A700043F810B10720BDE8F88F9DF8000000242E
:104A800000F01F008DF800009DF801006FF00F0B83
:104A900000F01F008DF801009DF802006E4600F046
:104AA0001F008DF802004FF0010A00BF59F82410D2
:104AB00058F82400081A00D54042FBF7EFFD59468C
:104AC000FBF758FC0746305DC0B1144802E01449BA
:104AD000FBF7E0FB315D491E11F0FF013155F6D1C6
:104AE00001463846FBF708FC4FF07E51FBF7CCFB44
:104AF0000C4920F00040884205DC07E00A483844B1
:104B0000B0F1D97F02D90AFA04F00543641C032CE2
:104B1000CCDB2846AFE700001C0000200000C841A5
:104B200054E3853F295C0F3E0000E0BE00B502461D
:104B300000F00DF80346D01C00F009F843EAC0036A
:104B4000901D00F004F843EA801080B200BD90F997
:104B50000010002902DD4FF00000704702DA4FF02C
:104B60000400704790F90110002902DD4FF00100A8
:104B7000704702DA4FF00500704790F902000028F4
:104B800002DD4FF00200704702DA4FF00600704776
:104B90004FF0070070470000FCF7B4FDFDF7A6FEDC
:104BA000FDF73CFEFDF724FEFDF75EFEFDF77CFE03
:104BB0000024204600F0A4FFFDF771FD07E000BFD0
:104BC00000F01EF90246214608A0FEF749F800F061
:104BD00017F90028F4D1641CE4B2022CE9D30020B8
:104BE00000F0A2FF012000F09FFFF8E74D5055258F
:104BF0006420444D50206661696C65642E45727274
:104C000020636F6465A3BA25640D0A007047000035
:104C10002DE9F041124C20F00101002594F8240008
:104C200010B10020BDE8F081A07A4FF0FF3668B1E6
:104C30000840277C2074884200D0354641B10120CD
:104C400000F0C0FF00F0B2FB38B127743046E9E74E
:104C5000207D00B1012000F0B5FF2846E2E700000A
:104C60001C0000202DE9F74F8EB00CA902A8CDE959
:104C700000010BAB03AA09A907A8FFF7B7F918B100
:104C8000012011B0BDE8F08FBDF80800C0057DD54A
:104C90000398FBF703FD6FF01D042146FBF76AFB49
:104CA00082460498FBF7FAFC2146FBF763FB81463A
:104CB0000598FBF7F3FC2146FBF75CFB8046069862
:104CC000FBF7ECFC2146FBF755FB0546012150465E
:104CD000FBF750FB06464146FBF7DCFA04464FF073
:104CE00040414846FBF7D6FA07462946FBF7D2FA79
:104CF0002146FBF777FAFBF70CFDFEF71FFD4FF09F
:104D0000663B5A463D4BFBF7E8FBFBF715FD0E995A
:104D1000086001214046FBF72DFB41460090FBF760
:104D2000B9FA044638464946FBF7B4FA2146FBF780
:104D3000ABFA4FF07E51FBF755FAFBF7EAFC07465A
:104D40000C4630464946FBF7A5FA06462946009828
:104D5000FBF7A0FA3146FBF745FAFBF7DAFC3A46D7
:104D60002346FEF733FF5A46244BFBF7B6FBFBF70F
:104D7000E3FC0F99086029460846FBF78BFA0746C3
:104D800041460846FBF786FA064600E034E049460D
:104D90000846FBF77FFA044651460846FBF77AFAC5
:104DA0002146FBF71FFA3146FBF76EFA3946FBF74F
:104DB0006BFAFBF7AEFC06460C4629465046FBF75D
:104DC00069FA054641464846FBF764FA2946FBF76F
:104DD00009FA0121FBF7CEFAFBF79BFC324623468A
:104DE000FEF7F4FE5A46054BFBF777FBFBF7A4FCF6
:104DF00010990860002044E7022042E766A64C4074
:104E000010B500F0F1F808B10A2010BD782000F0CC
:104E1000B1FD10F0FF0F01D0012010BD7820FFF789
:104E2000F7FE10F0FF0F01D0022010BD642000F04B
:104E300061FD10F0FF0F01D0032010BDFFF7CCF88B
:104E400010F0FF0F01D0042010BD1448FFF76EFED4
:104E5000FFF772FA10F0FF0F01D0052010BD40F2ED
:104E60007310FEF791FF10F0FF0F01D0062010BD68
:104E70006420FFF7C9F910F0FF0F01D0072010BD23
:104E800000F0FEFD08B1082010BD012000F058FC24
:104E900010F0FF00F8D0092010BD000048000020ED
:104EA0000D494A7A42B1012A08D0022A0FD0032ABA
:104EB0000FD04FF0FF307047022200E00422027052
:104EC000C97C11B11106C90D01700020704708227C
:104ED000F5E71022F3E700001C0000200F494A7A92
:104EE00042B1012A09D0022A11D0032A12D04FF070
:104EF000FF3070474FF4804201E041F69C7202801F
:104F0000C97C11B1C2F34E010180002070474FF4FB
:104F10008052F4E74FF40062F1E700001C0000202B
:104F20000B49097A39B1012907D002290AD003298E
:104F30000BD0002103E0FA2101E04FF4FA71018067
:104F4000002070474FF47A71F9E74FF4FA61F6E701
:104F50001C0000200A49097A41B1012908D0022920
:104F60000AD003290AD04FF0FF307047054900E00E
:104F700005490160002070470449FAE70449F8E751
:104F80001C0000200000034300008342333303422F
:104F9000333383410C49C97A072913D2DFE801F082
:104FA0001204060A0C0E1000BC2100E062210180F0
:104FB000002070472A21FAE71421F8E70A21F6E7D2
:104FC0000521F4E70021F2E71C000020054991F8D3
:104FD000242012B14FF0FF307047C98901800020B2
:104FE000704700001C0000202DE9FC414C4C802043
:104FF0008DF8000020686B460122817C6068007893
:10500000FBF790FD4FF0FF37002832D16420FBF70B
:1050100021FF00258DF8005020686B460122817C1D
:1050200060680078FBF77EFD002870D120686B4631
:105030000622817D60680078FBF75EFD002866D15E
:105040009DF805009DF80310C007400F01F0010115
:1050500040EA41019DF801004FF0010600F0010017
:10506000014309D0012905D0022915D02DA0FDF753
:10507000F7FD4CE0E67410E020686B460122C17831
:1050800060680078FBF738FD40BB9DF8000010F029
:105090000F0020D0042822D0E574FF2004F80A0F66
:1050A0004FF6FF7104F8020C04F8010C6070A18047
:1050B000A0712072A67026766576E572A572E5600D
:1050C00025616561A576E576A5834FF4FA6000F069
:1050D00073FB18B907E01D48FDF7C2FD17E01CA0DF
:1050E000FDF7BEFDC6E7022000F088FA78B92A2055
:1050F00000F0CAFB58B9322000F0FCFB38B90020A0
:10510000FFF786FD18B9002000F0ACFA10B1384660
:10511000BDE8FC81002000F02DFC0020F8E7000035
:105120001C000020556E737570706F72746564207A
:10513000736F6674776172652070726F64756374E3
:10514000207265762025642E0A000000D0690008D0
:1051500048616C662073656E7369746976697479E9
:10516000207061727420666F756E642E0A000000F4
:105170002DE9FF4FDFF89480064685B098F82500AA
:1051800015460F464FF0FF39B0BBAFB3002420E007
:10519000301B102800DD102080B283463A190146EA
:1051A0009246204600F042FC30BB6A4659462046F3
:1051B00000F0D2F800BB50465A466946FBF705F8A6
:1051C00020B16FF0010009B0BDE8F08F04EB0B00D7
:1051D00084B2B442DCD3280A8DF810008DF8115047
:1051E000D8F80000444604AB817ED8F804000222BF
:1051F0000078FBF797FC08B14846E4E7012084F803
:1052000025000898E0840020DDE700001C00002055
:105210002DE9F84305464FF0FF39282844D80727E1
:10522000284C00267DB1012000F0FCFA20208DF8EA
:1052300000004FF00108012D17D0052D18D88DF86A
:10524000018005201FE0002000F0ECFA8DF80060DE
:105250008DF8017020686B460222817C60680078BE
:10526000FBF760FC00BB267529E08DF80160E8E7DC
:10527000142D04D802208DF801000A2003E0032039
:105280008DF80100142000F0FFFA9DF801006B4634
:1052900007EB80108DF8010020680222817C606895
:1052A0000078FBF73FFC10B14846BDE8F8830820C2
:1052B000A072267384F814800020FFF7A9FC002058
:1052C000F3E700001C0000202DE9F843214C0646BE
:1052D000174694F8240089464FF0FF3890B3A07A1F
:1052E00080B320686B460222817A60680078FBF701
:1052F00003FC38BBBDF8000045BAB54202D200201D
:1053000038701FE060684188B5EB510F11D92168F2
:1053100000786B46497C0122FBF7EEFB90B99DF8C3
:105320000000C00605D500F041F86FF00100BDE8AF
:10533000F8832068F2B24B46C17A60680078FBF7C8
:10534000DBFB08B14046F2E7B5FBF6F0401E3870D3
:105350000020ECE71C000020F8B516000D464FF0C9
:10536000FF371FD0104CA17AE1B1010A8DF800106F
:10537000C0B28DF80100411960684289914211D88C
:10538000216800786B46097E0222FBF7CBFB48B907
:105390002068EAB23346417D60680078FBF7ACFBD9
:1053A000002800D03846F8BD1C000020F8B5564C47
:1053B0004FF0FF36A07A00287DD000258DF80050F0
:1053C00020686B460122C17B60680078FBF7AAFB6E
:1053D000002870D120686B4601224179606800780E
:1053E000FBF7A0FB002866D120686B4601220179FB
:1053F00060680078FBF796FB00285CD194F82400E5
:10540000E0B30C208DF8000020686B460122017982
:1054100060680078FBF786FB002872D13220FBF72A
:1054200019FDC0208DF80000A07AC00702D0E0204E
:105430008DF8000020686B460122017960680078D1
:10544000FBF770FB00285CD1607C18B102208DF85E
:10545000000001E08DF8005020686B460122C17BFE
:1054600060680078FBF75EFB28BB8DF80050206871
:105470006B4601224179606800783EE0FFE7042036
:105480008DF8000020686B46012201796068007881
:10549000FBF748FB78B9A07C90B9A07AC0070FD081
:1054A0005FF060008DF8000020686B4601220179F2
:1054B0006068007800E024E0FBF734FB08BB01E003
:1054C0004020EFE73220FBF7C5FC607C18B10120DB
:1054D0008DF8000001E08DF8005020686B46012235
:1054E000C17B60680078FBF71DFB50B92068064B54
:1054F00001224179606810330078FBF713FB002824
:1055000000D03046F8BD00001C0000202DE9F04717
:10551000394C82468AB094F824000F4620B100200E
:1055200000F00EF9012600E0002607A8FFF7F8FCBE
:1055300006A8FFF7B5FC09A8FFF72CFD08A8FFF7A0
:1055400045FD94F80A9094F8108000250022394611
:105550005046FFF7F7F810B16D1C022DF6DB022D57
:105560001AD00025012203A96846FFF7EBF810B115
:105570006D1C022DF6DB022D0ED003A93846FEF776
:105580009DF8C7B269465046FFF766FA10F0FF0F64
:105590004FF0000502D002E0002503E001250FB91D
:1055A00045F00205FF2020726072E0724FF6FF7135
:1055B000E181A072207401202073BDF81C0000F06E
:1055C000FBF89DF8180000F019F8BDF8240000F071
:1055D0005BF9BDF8200000F08DF9484600F0CAF9EB
:1055E0004046FFF715FB16B1012000F0A9F80AB0FC
:1055F0002846BDE8F08700001C00002038B5184C94
:105600004FF0FF35A17A19B3022806D0042806D03E
:1056100008280ED010281BD10DE0002000E0082043
:105620008DF80000607A9DF80010B0EBD10F04D027
:1056300005E01020F4E71820F2E7002038BD2068CC
:105640006B460122C17960680078FBF76BFA08B1FC
:10565000284638BD9DF80000C0086072EDE70000E4
:105660001C000020F8B5354C0546A07CA84201D1AD
:105670000020F8BD31484FF0FF366B46D0E90010EE
:105680004FF001020979007835B3FBF735FA70BBAA
:105690009DF800006B4620F020008DF80000206887
:1056A0000122017960680078FBF73CFAF8B9032021
:1056B000FBF7D0FB02208DF8000094F8220078B3AD
:1056C00082202BE020686B460122017D6068007813
:1056D000FBF728FA58B92EE0FBF70EFA38B9A07A92
:1056E000C0079DF8000003D040F0200002E00CE06D
:1056F00020F020008DF8000020686B46012201791F
:1057000060680078FBF70EFA08B13046F8BD032058
:10571000FBF7A0FB94F8220000B180208DF8000078
:1057200094F823000028CDD09DF8000040F0300010
:105730008DF80000C6E7A5749AE700001C00002061
:1057400038B51C4C94F8241081421DD0002500B3BC
:1057500094F82500D0B1002000F034FA0020FFF7C3
:1057600081FFE08C00F0C6F88DF8005060686B4651
:10577000012200782321FBF7D5F9012084F82400C9
:1057800000F020FAFFF712FE002038BD4FF0FF3086
:1057900038BD002000F016FA207C8DF8000060680B
:1057A0006B46012200782321FBF7BCF984F82450D2
:1057B000E8E700001C00002038B5194C4FF0FF3519
:1057C000A17A31B3FA2809D0B0F5FA7F08D0B0F544
:1057D0007A7F0FD0B0F5FA6F1BD10DE0002000E00A
:1057E00008208DF80000207A9DF80010B0EBD10F52
:1057F00004D005E01020F4E71820F2E7002038BDBF
:1058000020686B460122817960680078FBF78AF98D
:1058100008B1284638BD9DF80000C0082072EDE7A9
:105820001C00002038B5174C054694F82300A84208
:1058300001D1002038BD0DB1302000E000208DF8EE
:105840000000A07C28B19DF8000040F002008DF817
:10585000000094F8220028B19DF8000040F080007C
:105860008DF8000020686B460122017D6068007899
:10587000FBF758F910B14FF0FF3038BD84F82350D2
:10588000D7E700001C00002038B5194C4FF0FF3559
:10589000A17A31B3BC2801D3012010E0622801D3E2
:1058A00002200CE02A2801D3032008E0142801D3A9
:1058B000042004E00A2801D3052000E006208DF82A
:1058C0000000E07A9DF80010884201D1002038BD28
:1058D00020686B460122817860680078FBF722F926
:1058E00008B1284638BD9DF80000E072EEE70000E0
:1058F0001C000020F8B51E4D04464FF0FF37A87A73
:1059000048B395F8240030BB287D4FF47A7648B12F
:1059100064B1282C03D8E0B2FFF77AFC26E000201F
:10592000FFF776FC042C05D2042406E00020FFF7E4
:105930006FFCF9E7B44200D93446B6FBF4F0401EE0
:105940008DF8000028686B4601224178686800786D
:10595000FBF7E8F808B13846F8BD9DF80000401C98
:10596000B6FBF0F0E8814008FFF78EFF0020F8BD9D
:105970001C000020F8B5054610F0700F4FF000062F
:1059800001D0012004E015B18DF8006002E0402054
:105990008DF80000244C6B4601222068817C6068F1
:1059A0000078FBF7BFF84FF0FF3760BB9DF80000B1
:1059B00020F0400020738DF80060680602D40420B7
:1059C0008DF80000A80605D49DF8000040F0020004
:1059D0008DF80000E80605D49DF8000040F00100B5
:1059E0008DF80000280705D49DF8000040F038002D
:1059F0008DF8000020686B460122C17C6068007849
:105A0000FBF790F810B1A6723846F8BD25B1082D05
:105A100002D00020FFF706FFA57226753220FBF7A3
:105A200019FA0020F8BD00001C000020F8B516008F
:105A30000D464FF0FF371FD0104CA17AE1B1010A9B
:105A40008DF80010C0B28DF80100411960684289DC
:105A5000914211D8216800786B46097E0222FBF73B
:105A600061F848B92068EAB23346417D6068007841
:105A7000FBF758F8002800D03846F8BD1C0000207D
:105A800010B588B0694604A8FFF740FD032802D08E
:105A9000012008B010BD07A8FFF75CFA0498FAF7D8
:105AA000FDFD07990C46FAF7F5FBFAF705FE0490A1
:105AB0000598FAF7F3FD2146FAF7ECFBFAF7FCFD3F
:105AC00005900698FAF7EAFD2146FAF7E3FBFAF7A4
:105AD000F3FD069004A8FEF7C9FB03A8FFF7FEF943
