:020000040800F2
:10000000100D0020010100083336000825290008E2
:1000100031360008690D0008854400080000000022
:10002000000000000000000000000000CB400008BD
:10003000150E000800000000C9400008CD4000086F
:100040001B0100081B0100081B0100081B01000820
:100050001B0100081B0100081B0100081B01000810
:100060001B0100081B0100081B0100081B01000800
:100070001B0100081B0100086D0D0008790D000828
:100080001B010008850D00081B0100081B0100086A
:100090001B0100081B0100081B0100081B010008D0
:1000A0001B0100081B0100081B0100081B010008C0
:1000B0001B0100081B0100081B0100081B010008B0
:1000C0001B0100081B0100081B0100081B010008A0
:1000D0001B0100086D440008794400081B0100085A
:1000E0001B0100081B0100081B010008DFF80CD0F1
:1000F00000F0B0FC00480047015F0008100D002030
:100100000648804706480047FEE7FEE7FEE7FEE7B1
:10011000FEE7FEE7FEE7FEE7FEE7FEE72F41000809
:10012000ED000008202A04DB203A21FA02F0002129
:10013000704721FA02F3D040C2F1200291400843F7
:100140001946704740EA01039B0703D009E008C93C
:10015000121F08C0042AFAD203E011F8013B00F88C
:10016000013B521EF9D27047D2B201E000F8012BD8
:10017000491EFBD270470022F6E710B513460A4627
:1001800004461946FFF7F0FF204610BD421E12F844
:10019000013F002BFBD111F8013B02F8013B002B82
:1001A000F9D1704730B505462A460B4612F8010BC7
:1001B00013F8014B08B1A042F8D01CB1002802D0BE
:1001C0006D1CF1E7284630BDCAB2401E10F8011F71
:1001D0008A4202D00029F9D100207047421C10F851
:1001E000011B0029FBD1801A704730B5044600205E
:1001F000034600E05B1C934203D2E05CCD5C401BF5
:10020000F8D030BD10B5044600E0401C0378002B48
:10021000FBD100E0401C521E04D311F8013B0370D7
:10022000002BF7D100210170204610BD034611F8C4
:10023000012B00F8012B002AF9D118467047F0B4C1
:1002400080EA0102D40F4200B2EB410F02D2024613
:10025000084611464A0042D0C30DDDB2C1F3C75271
:10026000AD1A202D35DAC1F3160141F4000204B1B4
:100270005242C5F1200602FA06F12A411044B3EBBE
:10028000D05F23D0C4B1012DA0EBC35009DCF0BC7A
:100290004FF0004202EAC352DBB200F5000000F06A
:1002A0001EBB400000F1807000EBC350A0F18070D5
:1002B00040EAD170490009E0490841EAC071A0EB69
:1002C000C35000F50000400800EBC350F0BC00F044
:1002D000FDBA6142012202EB4101001BF6E7F0BCCE
:1002E000704781F00041AAE780F00040A7E780EA6C
:1002F000010210B502F00043400022D04A001FD096
:10030000010E01EB1261C0F35600C2F3560240F435
:10031000000042F40002A0FB022000047F39140414
:1003200000D0401C50EA124001D44000491EC2B225
:100330000C0604EBD010401C4008802A02D003E0D9
:10034000002010BD20F00100002900DA0020184331
:1003500010BD30B480EA010202F0004530F00042E6
:1003600021F0004013D090B1C30DD40DC2F316019B
:10037000C0F31600E41A41F4000140F400027D3499
:10038000914201D3641C00E04900002C02DA30BC29
:10039000002070474FF400000023914201D3891AD6
:1003A000034340084FEA4101F7D151B1914202D1D4
:1003B0004FF0004105E002D24FF0010101E06FF083
:1003C000010103EBC450284430BC00F07FBA420066
:1003D00005D0C0F3C7525242914201DC0020704761
:1003E00000EBC15070472DE9FE4F804681EA0300C3
:1003F000C00F0C46009021F0004123F00045B8EBFF
:100400000200A94105D24046214690461C460B46B3
:10041000024623F00040104347D0270DC7F30A00DF
:10042000C3F30A510290401A019040286BDAC3F3DB
:10043000130040F4801B0098924620B10023D2EBB9
:10044000030A63EB0B0B01985946C0F1400250467A
:1004500000F01BFA06460D4650465946019A00F038
:1004600023FA10EB08006141002487EA115284EA64
:10047000E7731A4340D0009A62B3019A012A4FEA07
:10048000075215DC001B61EB02014FF0004202EA4B
:100490000752CDE90042001C41F5801132462B463F
:1004A00000F05AFA03B0BDE8F08F40462146F9E764
:1004B000001B61EB0201001C41F5801300185B4139
:1004C0002018A2F5001747EB030140EAD570B619D2
:1004D0006D4111E06D084FEA360645EAC0754FEAF6
:1004E0000752001B61EB0201001C41F58011490815
:1004F0004FEA30000019514132462B4603B0BDE8A7
:10050000F04F00F01ABA0098012240000023D0EB0F
:10051000020263EBE073009821464FEAE074B8EB07
:10052000000061EB0401E9E783F000435BE781F041
:10053000004158E72DE9FE4F81EA030404F000442E
:1005400021F0004100944FF0000B23F0004350EAEB
:1005500001045ED052EA03045BD0C3F30A54C1F332
:100560000A552C44A4F2F3340194A0FB0254C1F3C5
:10057000130141F48011C3F3130343F4801301FB0F
:10058000024400FB034E840A970A44EA815447EA76
:100590008357A4FB076802958D0A05FB07854FEA80
:1005A000932C04FB0C542705029D4FEA065847EA9A
:1005B0001637B5EB08056EEB070C870E920E47EA6F
:1005C000811742EA8312A7FB0201B6EB0B0164EB31
:1005D00000042B0D43EA0C335E1844EB1C50DA4642
:1005E0005146E7FB0201C5F313044FEA0B3343EA1C
:1005F00014534FEA0432019C43EA0603A4F10C04AD
:100600000294009CCDE900B400F0A6F903B0BDE867
:10061000F08F00200146F9E72DE9F04D81EA03044F
:1006200004F0004B21F0004514464FF0000A23F07F
:10063000004150EA050220D054EA01021DD0C5F362
:100640000A570246C5F31303C1F31300C1F30A5658
:1006500040F4801543F48013A7EB0608101BD64620
:1006600008F2FD3873EB050002D308F1010801E040
:1006700092185B41B8F1000F03DA00200146BDE893
:10068000F08D00204FF48011064684460EE0171BC3
:1006900073EB050705D3121B63EB050306434CEA16
:1006A000010C49084FEA300092185B4150EA0107FB
:1006B000EDD152EA030012D082EA040083EA050178
:1006C000084305D0101BAB4106D20122002306E0EF
:1006D00000224FF0004302E06FF0010253101AEBCA
:1006E00006004CEB085110EB0A0041EB0B01BDE892
:1006F000F04D00F022B9C10F80EAE0700844CA074B
:100700009623002100F0EBB896230022114600F05A
:10071000E6B800F0004220F00040C10DC0F3160022
:1007200040F400007F2901DA00207047962903DC9D
:10073000C1F19601C84001E096398840002AF4D002
:100740004042704720F00040C10DC0F3160040F455
:1007500000007F2901DA00207047962903DCC1F1EF
:100760009601C840704796398840704700F00042B3
:1007700030F000400AD0C10D01F56071C0F31600E1
:1007800042EA0151C2084007114370470020014668
:100790007047000030B5041E71F1000404DB4FF017
:1007A0000044404264EB0101141E73F1000405DBB8
:1007B0001C464FF00043524263EB0403994208BFCA
:1007C000904230BD01F0004330B421F0004150EAC6
:1007D000010206D00A0DA2F56072C1F31301002ACE
:1007E00002DC30BC00207047440F44EAC104C10061
:1007F000E01830BC00EBC25000F068B830B50B46D2
:10080000014600202022012409E021FA02F59D4240
:1008100005D303FA02F5491B04FA02F52844151E14
:10082000A2F10102F1DC30BD2DE9F05F05460020A8
:1008300092469B4688460646814640241BE0284651
:10084000414647462246FFF76DFC53465A46C01ABA
:10085000914110D311461846224600F016F82D1A81
:1008600067EB01084F4622460120002100F00DF8F9
:1008700017EB00094E41201EA4F10104DFDC4846BD
:1008800031462A464346BDE8F09F202A04DB203A41
:1008900000FA02F1002070479140C2F1200320FAD3
:1008A00003F3194390407047202A06DBCB17203A08
:1008B00041FA02F043EAE07306E041FA02F3D04065
:1008C000C2F1200291400843194670470029A8BF91
:1008D0007047401C490008BF20F00100704710B469
:1008E000B0FA80FC00FA0CF050EA010404BF10BC1E
:1008F000704749B1CCF1200421FA04F411FA0CF14B
:1009000018BF012121430843A3EB0C01CB1D4FEA83
:1009100000614FEA102042BF002010BC704700EB7E
:10092000C35010440029A4BF10BC7047401C4900AC
:1009300008BF20F0010010BC704710B5141E73F101
:10094000000408DA401C41F1000192185B411A438F
:1009500001D120F0010010BD2DE9F04D92469B46DB
:1009600011B1B1FA81F202E0B0FA80F22032904681
:10097000FFF78BFF04460F4640EA0A0041EA0B01ED
:1009800053465A46084313D0114653EA010019D082
:10099000C8F140025046FFF7C5FB05460E465046DB
:1009A00059464246FFF771FF084305D0012004E095
:1009B00020463946BDE8F08D0020054346EAE07642
:1009C0002C4337430A986305E40AA0EB0800002291
:1009D000FD0A44EA47540A3002D500200146E9E7FF
:1009E000010510196941DDE9084500196941BDE8B3
:1009F000F04DA2E770B521F0004303430CD0C1F3E2
:100A00000A550024D5EB040564EB0403D617AD1A90
:100A1000B34102DB0020014670BD201841EB0251BA
:100A200070BDC1F30A52C1F3130140F2FF3341F428
:100A300080119A4202DA00200146704740F23343A7
:100A40009A42A2F2334202DC5242FFF76BBBFFF73D
:100A50001CBF0000064C074D06E0E06840F00103B3
:100A600094E8070098471034AC42F6D3FFF742FBF6
:100A7000E0850008008600082DE9F04D00231A46A5
:100A80001B1A8A4103DB00200146BDE8F08DC1F34B
:100A90000A52C1F3130141F480154FF0000BD10746
:100AA00002D100186D41521E0027044640F2FF118A
:100AB000384601EB620A3E468046024600204FF46B
:100AC0008011FFF72FFBC2197141BB1846EB0100E3
:100AD000B4EB030C75EB000C04D3E41A65EB0005D2
:100AE00017460E46241908F101006D41804634284E
:100AF000E3DDF91946EB0600091BA84103D24FF0CC
:100B0000FF32134601E0002213461BEB070046EBC1
:100B10000A51BDE8F04DFFF710BF00002DE9F04786
:100B2000894600210D460C466FF02B0CDFF820A102
:100B3000089E37E0002701E0491C7F1CB14204D227
:100B400013F80180B8F1200FF6D0B1422CD0A6EBFB
:100B50000108B8F1020F04D313F80180B8F10D0FAA
:100B600002D013F8018003E003EB010898F801803C
:100B7000B8F10A0F15D067B95F5C3D2F0CD07F2FFD
:100B800007D800BF1AF807707F2F02D0402F07D276
:100B900034B16046BDE8F087641C022CF9D8F1E757
:100BA0006D1C491CB142C5D3A5B1EE0806EB460643
:100BB000770005F0070505EB4506072505EB46051B
:100BC00007EBD5052C1B08B1A14505D26FF0290014
:100BD0001460DFE7002038E0032600252F46044696
:100BE00030E000BF93F800C0BCF10D0F28D0BCF17D
:100BF0000A0F25D0BCF1200F22D01AF80CC0BCF18E
:100C0000400F0AD04FF0000865F39F1C7F1CA6EB35
:100C100008066546042F03D012E04FF00108F3E701
:100C200000276EB14FEA154C04F801CB012E07D90D
:100C30004FEA152C04F801CB022E01D904F8015B10
:100C4000491E5B1C0029CDD1201A10600020A1E7AD
:100C5000E67D00082DE9F04F0025099EAB46AEB1B8
:100C60000327B6FBF7FCB6FBF7F407FB1C6CBCF1E3
:100C7000000F01D04FF0010C64446FF0290CB4F167
:100C8000804F06D34FF0FF3010600FE0C2F800B085
:100C900064E0A400641CA14207D330B1B6FBF7F1B5
:100CA00001EB410A04462F492AE014606046BDE882
:100CB000F08F00BF13F801CBED1C13F8019B4FEA36
:100CC0009C084FEA0C1C0CEB291C13F8017B11F853
:100CD00008800CF03F0C04F8018B11F80CC004F8EC
:100CE00001CB4FEA890C0CEBA71C0CF03F0C07F072
:100CF0003F0711F80CC004F802CBCF5D04F8017C6B
:100D00005545D7D3B54224D213F801CB3D276D1CEE
:100D1000B54201D21B7801E04FF000034FEA9C0579
:100D20004D5D04F8015B4FEA0C1505EB231505F04A
:100D30003F054D5D04F8015B07D24FF03C0505EA25
:100D40008303C95C04F8011B01E004F8017B04F88B
:100D5000017BA4EB0000106084F800B04FF00000AD
:100D6000A5E70000A67D0008FEE70000014800F0AE
:100D70007DBA0000B0010020014800F077BA000001
:100D8000F4010020014800F071BA00003802002090
:100D900030B590F840500124AC40C56B6C600468DD
:100DA00063604368102B036803D099600068C260D9
:100DB00030BD9A600068C16030BD00003EB5094C8E
:100DC00094F83D50242DFBD0CDE900320A4640F680
:100DD000FF74014602940123024800F0BFFD002089
:100DE0003EBD0000CC0000203EB5094C94F83D50BB
:100DF000242DFBD0CDE900320A4640F6FF740146AF
:100E000002940123024800F0D1FE00203EBD000004
:100E1000CC0000207047000010B580210348FFF788
:100E2000AAF903490020088010BD00008C020020B0
:100E30008200002010B5044600F096F958B90AA1C6
:100E40000B48FFF7AFF930B13A21FFF7BDF90028A1
:100E500000D0401C10BD052000F018FB2046641E89
:100E6000A4B2E9D210BD00004950442C000000009B
:100E70008C02002010B5FFF7CFFF39A003F010FB64
:100E800002F0D8FB012138A2084602F01CFD4FF405
:100E90007A7402E0204600F0F9FA35A135A000F09E
:100EA0001BF90028F6D135A003F0FAFA37A2012188
:100EB000022002F008FD02E0204600F0E7FA2CA133
:100EC00035A000F009F90028F6D137A003F0E8FAC0
:100ED00039A20121032002F0F6FC02E0204600F0D6
:100EE000D5FA23A137A000F0F7F80028F6D139A0F1
:100EF00003F0D6FA3BA20121042002F0E4FC02E058
:100F0000204600F0C3FA3AA13BA000F0E5F8002823
:100F1000F6D141A003F0C4FA02F08CFB012144A2F7
:100F2000084602F0D0FC46A003F0BAFA4BA2012119
:100F3000022002F0C8FC02E0204600F0A7FA4CA113
:100F40004DA000F0C9F80028F6D157A003F0A8FA88
:100F50000121BDE810405CA2032002F0B4BC0000F7
:100F6000312E2041540D0A00312E41542E2E2E00D8
:100F70004F4B000041540D0A00000000322E415436
:100F80002B43574D4F44450D0A000000322E435766
:100F90004D4F44452E2E2E0041542B43574D4F4468
:100FA000453D310D0A000000332E2041542B43579C
:100FB000444843500D0A0000332E435744484350E1
:100FC0002E2E2E0041542B4357444843503D312C84
:100FD000310D0A00342E2041542B43574A41500D05
:100FE0000A000000342E43574A41502E2E2E000096
:100FF000474F54204950000041542B43574A415019
:101000003D2253574A5455222C2277797335343573
:101010003134220D0A000000352E2045535038325D
:10102000363620496E6974204F4B0D0A00000000CF
:1010300045535020696E6974206F6B2E2E2E000070
:10104000436F6E6E656374204D5154547320536525
:10105000727665722E2E2E0D0A000000436F6E6EA2
:10106000656374204D515454732E2E2E00000000E1
:10107000434F4E4E4543540041542B434950535423
:101080004152543D22544350222C226D717474738A
:101090002E6865636C6F7564732E636F6D222C31DF
:1010A0003838330D0A000000436F6E6E656374209C
:1010B0004D515454205365727665722053756363A5
:1010C0006573730D0A000000436F6E6E65637420D4
:1010D000537563636573730070B50E460546C82487
:1010E000FFF77CF882B229460B4803F0CCF90EE0FA
:1010F00000F03AF840B931460848FFF753F818B104
:10110000FFF78AFE002070BD0A2000F0BFF9641EC0
:10111000E4B2EDD2012070BD200100208C0200203D
:1011200030B589B00C460546FFF776FE224608A189
:10113000684603F0DDF90AA16846FFF7CDFF0028F5
:1011400004D122462946074803F09DF909B030BD75
:1011500041542B43495053454E443D25640D0A00EC
:101160003E000000200100200648018831B142887D
:10117000914205D100210180084670470120704747
:101180004180FBE78200002072B6FEE710B590F8C0
:1011900021100022022905D00421816380F820203B
:1011A000012010BD01680B6823F00E030B6001687D
:1011B0000B6823F001030B6090F84030C46B0121F1
:1011C00001FA03F3636080F8211080F820201046B4
:1011D00010BD000010B590F821100024022903D0A2
:1011E0000421816301243DE001680A6822F00E02B7
:1011F0000A6001680A6822F001020A601A4A01685E
:10120000914201D1012121E0174A1432914201D1CA
:1012100010211BE0144A2832914201D1891515E0B2
:10122000114A3C32914201D189140FE00E4A5032EA
:10123000914202D14FF4803108E00B4A643291426E
:1012400002D14FF4801101E04FF08071064A083A54
:101250005160012180F82110002180F82010416B9D
:1012600001B18847204610BD080002402DE9F05F1B
:10127000C16B0C6801680B68D0F840C0042202FA08
:101280000CF2494DDFF824A1494E4A4FDFF828B14E
:10129000DFF828E122422CD05A072AD50A689206A4
:1012A00003D40A6822F004020A600168A94201D14D
:1012B000042219E0514501D1402215E0B14202D18A
:1012C0004FF4806210E0B94202D14FF480420BE04B
:1012D000594502D14FF4802206E0714502D14FF406
:1012E000800201E04FF080622F4908394A60C16AEC
:1012F0003BE04FF0020808FA0CF818EA040F4FF030
:1013000000094FF0010235D05FEA837832D50B68CF
:101310009B0605D40B6823F00A030B6080F821209C
:101320000168A94201D1022219E0514501D12022D0
:1013300015E0B14202D14FF4007210E0B94202D17F
:101340004FF400520BE0594502D14FF4003206E051
:10135000714502D14FF4001201E04FF000721249C2
:1013600008394A6080F82090816A00291AD0BDE8C7
:10137000F05F0847082505FA0CF5254212D01B0737
:1013800010D50B6823F00E030B6090F84010C36B70
:1013900002FA01F15960826380F8212080F82090E0
:1013A000016BE2E7BDE8F09F080002401C0002402C
:1013B0003000024044000240580002406C000240ED
:1013C00030B528B308C8134914221944B1FBF2F10F
:1013D0008900C16310498163022141771A6843F68D
:1013E000F0718A43D0E900142143D0E902452C432F
:1013F0002143046921434469214384692143114302
:10140000196000214163012242770177084630BD0F
:10141000012030BDF8FFFDBF0000024070B504465A
:1014200090F82000002501280CD0012084F820002D
:1014300094F821600020012E06D084F820000225B7
:10144000284670BD022070BD022684F82160A0638A
:101450002068066826F0010606602046FFF798FC23
:10146000E06A00282068016802D041F00E0106E021
:1014700021F0040101602068016841F00A01016067
:101480002068016841F001010160D9E770B50446A8
:1014900000F004F90546601C02D0044800780444BA
:1014A00000F0FCF8401BA042FAD370BD3C000020C5
:1014B0002DE9F84FDFF8B8910024A9F1040B234679
:1014C0000F2709F1040AABF1040EC9E00125A5407C
:1014D0002A40AA427DD1674ED1F804C0ACEB060881
:1014E000B44532D014DCBCF1030F3AD009DCBCF1B6
:1014F000000F2AD0BCF1010F1CD0BCF1020F31D17A
:101500001DE0BCF1110F17D0BCF1120F2AD119E068
:10151000B8F5881F19D006DCB8F5803F15D0B8F5AE
:10152000801F1FD111E0B8F5001F0ED0B8F5041FC1
:1015300018D10AE0CB6815E0CB681B1D12E0CB6820
:1015400008330FE0CB680C330CE08B682BB1012B18
:101550004FF0080303D0456104E0042302E0056175
:1015600000E00023FF2A01D8064601E000F104064E
:101570004FEA840501D9A5F12005D6F8008007FAC5
:1015800005FC28EA0C0803FA05F548EA0508C6F840
:1015900000804D68ED0062D5374DAE6946F001061A
:1015A000AE61AD6924F0030605F001050095334DE9
:1015B00006EB050CDCF80850A607360F07FA06F80C
:1015C00025EA0805DFF8B880404503D14FF0000850
:1015D00017E044E0DFF8AC80404502D14FF001084D
:1015E0000FE0DFF8A480404502D14FF0020808E088
:1015F000DFF89880404502D14FF0030801E04FF03A
:10160000040808FA06F848EA0508CCF808804D688E
:10161000D9F80060ED024D4601D5164300E096432F
:101620002E604D68DAF80060AD02554601D51643CC
:1016300000E096432E604D68DBF80060AD035D4628
:1016400001D5164300E096432E604D68DEF8006039
:10165000ED03754601D5164300E096432E60641CE9
:101660000D682A46E5407FF431AFBDE8F88F0000F1
:101670000804014000001110001002400000014069
:1016800000080140000C014000100140001401401E
:101690000AB1016170470904FBE700000148806856
:1016A000704700003C00002070B5040025D094F87D
:1016B0003D00002520B984F83C50204600F00EFB88
:1016C000242084F83D002068016821F001010160B8
:1016D0002068016841F4004101602068016821F43C
:1016E0000041016000F056FC4D4A6168914201D80A
:1016F0004C4900E04C49884201D2012070BD4B4961
:101700002368B0FBF1F15E6826F03F060E435E6091
:101710006368934206D94FF4967359434FF47A7332
:10172000B1FBF3F12368491C1E6A26F03F063143E2
:1017300019626168914210D84900401EB0FBF1F275
:10174000521CC2F30B02042A01D2042022E0B0FB97
:10175000F1F0401CC0F30B001CE0A268F2B301EBF7
:10176000C10303EB0116431EB3FBF6F35B1C43F40A
:1017700080431B0549D092B301EBC10202EB01117A
:10178000401EB0FBF1F0401CC0F30B0040F4804061
:1017900040F400402168CA694CF6FF739A43104335
:1017A000C861D4E9071001432068026822F0C00232
:1017B00011430160D4E9030101432068826848F2C3
:1017C000FF339A4311438160D4E90501084321683E
:1017D000CA6822F0FF021043C86001E00EE016E084
:1017E0002068016841F0010101602564202084F82F
:1017F0003D00256384F83E50002070BD01EB41069A
:10180000431EB3FBF6F35B1CB3E70120C2E701EB19
:101810004101401EB0FBF1F0401CC0F30B00B7E7E4
:10182000A086010080841E0000093D0040420F0098
:101830002DE9F84F1F4690468A460446DDF8289069
:10184000FFF72CFF054694F83D0020287FD119238F
:10185000012240492046009501F0C8F9002876D1C0
:1018600094F83C00012872D0012084F83C002068E4
:101870000168C90703D1016841F0010101602068D6
:10188000016821F400610160212084F83D001020EE
:1018900084F83E0000262664C4F824806785608DA5
:1018A00020852D48E0622B464A465146204601F0ED
:1018B00051F890B9206841698069009036E02A4665
:1018C0004946204601F070FA50B1206C042804D13A
:1018D0002068016841F4007101600120BDE8F88FC3
:1018E000606A216800780861606A401C6062618DEE
:1018F000491E6185218D491E89B22185226853695F
:10190000DB435B070BD451B100781061606A401C67
:101910006062608D401E6085208D401E20852A46B5
:101920004946204601F036F90028CED1208D002806
:10193000C5D154F83D0B016841F4007101602020CD
:1019400004F81E09E67766770020C7E7FFE7022064
:10195000C4E70000020010000000FFFF2DE9FF4F68
:1019600083B00025DDE910799A4693460446DDF8F8
:1019700048800095FFF792FE064694F83D00202827
:101980007CD11923012285492046009601F02EF9C9
:101990000028F5D194F83C0001286FD0012084F88C
:1019A0003C0020680168C90703D1016841F00101CA
:1019B00001602068016821F400610160222084F840
:1019C0003D00402084F83E0025646762A4F82A9018
:1019D000608D20857248E062CDE9008653465A4604
:1019E0002046049901F004F800287DD1208DDFF80D
:1019F000B491202768B1012814D00228206801681A
:101A00001ED041F4806101602068416980690090C6
:101A1000B6E02068416981690091016841F4007174
:101A20000160ADE02068016821F48061016072B658
:101A30002068416981690091016841F400710AE000
:101A400041F40061016072B62068416981690091CA
:101A5000016821F48061016062B691E0032868D8D2
:101A600001280CD0022843464FF000024946204688
:101A700000960FD001F0BAF8B0BB10E08BE0324610
:101A80004146204601F058F970BB20680069616A40
:101A900008706CE001F0AAF830BB72B634E0206840
:101AA000016821F48061016072B620680069616A92
:101AB0000870606A401C6062208D401E2085608D29
:101AC000401E6085384846F2A8110068B0FBF1F06E
:101AD000C0EBC00000EB80000090401E009008D0DA
:101AE00020684069C04300E029E040070CD5009819
:101AF000F3E744F8305F6773A573206940F0200076
:101B0000206162B625731AE02068016841F4007113
:101B1000016020680069616A0870606A401C606248
:101B2000218D491E2185618D491E618562B621681E
:101B30001BE032464146204601F0FEF818B1012074
:101B400007B0BDE8F08F20680069616A0870606ABC
:101B5000401C6062218D491E2185618D491E618571
:101B600021684A69D24352070AD409690170606A40
:101B7000401C6062208D401E2085608D401E608567
:101B8000208D00287FF46AAF84F83D7084F83E50C1
:101B900084F83C50D4E70220D2E700000200100095
:101BA0000000FFFF04000100480000202DE9FF4F66
:101BB00083B09A46DDE9119793460446DDF84080EC
:101BC000FFF76CFD054694F83D0020287FD11923CE
:101BD000012240492046009501F008F8002876D1FE
:101BE00094F83C00012872D0012084F83C00206861
:101BF0000168C90703D1016841F001010160206853
:101C0000016821F400610160212084F83D0040203A
:101C100084F83E0000262664C4F82480A4F82A90A4
:101C2000608D20852C48E062CDE9007553465A4608
:101C30002046049900F05AFF70B930E02A46394630
:101C4000204601F0B1F858B1206C042804D1206876
:101C5000016841F400710160012007B0BDE8F08F18
:101C6000606A216800780861606A401C6062218DAA
:101C7000491E89B22185628D521E62852268536990
:101C8000DB435B070BD469B100781061606A401CCC
:101C90006062208D401E2085608D401E6085208DF5
:101CA0000028CBD12A463946204600F073FF002891
:101CB000CAD154F83D0B016841F400710160202045
:101CC00004F81E09E67766770020C6E7FFE70220E2
:101CD000C3E70000020010000000FFFF10B586B04F
:101CE0000021009101910291039100680F498842FF
:101CF0001AD10F4CA06940F00800A061A0696946A4
:101D000000F008000490C0200090122001900320F1
:101D100003900848FFF7CCFBE06940F40010E06155
:101D2000E06900F40010049006B010BD00540040BB
:101D300000100240000C0140024881680278114402
:101D4000816070473C000020074810B5016841F0F1
:101D500010010160032000F075F80F2000F006F874
:101D600000F024F8002010BD0020024070B50D4D99
:101D700004464FF47A712878B1FBF0F00A490968FB
:101D8000B1FBF0F000F0DCFA48B9102C07D20022C9
:101D90002146501E00F036F800206C6070BD012016
:101DA00070BD00003C000020480000200C4808B531
:101DB000816941F001018161816901F001010091B6
:101DC000C16941F08051C161C06900F0805000904C
:101DD0000448416821F0E06141F00071416008BDB4
:101DE0000010024000000140002809DB00F01F0243
:101DF000012191404009800000F1E020C0F800116D
:101E000070470000F0B40E4B1B680C46C3F302236E
:101E1000C3F10705042D00D90425191D072901D296
:101E2000002300E0DB1E012606FA05F1491E2140D1
:101E300099409E40761E16403143F0BC02F080BBB4
:101E40000CED00E0064900F0070208684FF6FF03BA
:101E5000184040EA0220034A10430860704700001F
:101E60000CED00E00000FA052DE9F0470F460500F3
:101E700061D0434E306800F00700B84209D23068A4
:101E800020F0070038433060306800F00700B842A7
:101E900051D128683B4C810712D5400703D56068B3
:101EA00040F4E06060602878000703D5606840F483
:101EB000605060606068A96820F0F00008436060CE
:101EC0002878C00728D06868012810D02168022827
:101ED00010D0890700292EDA616821F0030101433F
:101EE0006160FFF7DBFB804641F288390DE0216835
:101EF0008903EFE78901EDE7FFF7D0FBA0EB0801CD
:101F0000494502D90320BDE8F0876068696800F0A0
:101F10000C00B0EB810FEFD1306800F00700B84241
:101F20000BD9306820F0070038433060306800F08B
:101F30000700B84201D00120E5E72878400705D521
:101F40006068E96820F4E060084360602878000772
:101F500006D56068296920F4605040EAC1006060DD
:101F600000F038F86168084AC1F30311515CC840B9
:101F70000649086006480068FFF7F8FE0020C2E73F
:101F80000020024000100240467100084800002076
:101F9000400000200448054900684968044AC1F32C
:101FA0000221515CC84070474800002000100240E8
:101FB000567100080448054900684968044AC1F39D
:101FC000C221515CC8407047480000200010024008
:101FD000567100080E4A51680E4801F00C03042B9C
:101FE00011D0082B0FD10C48C1F38343C903C05C47
:101FF0000AD55168084AC1F34041921E515C054A16
:102000005043B0FBF1F0704704494843704700006B
:102010000010024000127A003671000800093D00ED
:102020002DE9F84F040070D02078C04DC00749D08A
:102030006868C0F38100012807D06868C0F3810098
:10204000022809D16868C00306D52868800339D5FD
:1020500060680028E7D035E06068B0F5803F0BD0BD
:1020600010B1B0F5A02F11D0286820F4803028607E
:10207000286820F4802002E0286840F4803028603E
:10208000606890B1FFF70AFB06460AE0286840F452
:1020900080202860F0E700BFFFF700FB801B64286A
:1020A00073D828688003F7D50CE0FFF7F7FA0646E7
:1020B00005E000BFFFF7F2FA801B6428F0D828681B
:1020C0008003F7D420789A4E80074FF001094FF033
:1020D000000839D5686810F00C0F07D06868C0F3A5
:1020E0008100022809D16868C00306D428688007E7
:1020F00014D52069012808D110E02069B0B1C6F8D4
:102100000090FFF7CBFA074605E00AE1FFF7C6FAB1
:10211000C01B0228C4D828688007F7D528686169E1
:1021200020F0F80040EAC10028600DE0C6F8008009
:10213000FFF7B4FA074604E0FFF7B0FAC01B022825
:1021400023D828688007F7D4207800072CD5794851
:10215000A169D9B1C0F80090FFF7A0FA074604E0E2
:10216000FFF79CFAC01B02280FD8686A8007F7D5D2
:1021700071484FF4FA510068B0FBF1F0009000BFD5
:102180000098411E0091FAD20EE080E0C0F8008075
:10219000FFF784FA074604E0FFF780FAC01B022825
:1021A00075D8686A8007F7D42078400760D5E86959
:1021B0000027C00008D4E86940F08050E861E86971
:1021C000012700F0805000905C480168C90513D4D5
:1021D0000168834641F480710160FFF75FFA82462F
:1021E00006E000BFFFF75AFAA0EB0A0064284ED8B9
:1021F000DBF80000C005F5D5E06801280AD008B179
:10220000052813D0286A20F001002862286A20F0EF
:10221000040002E0286A40F001002862E06841F210
:10222000883B98B1FFF73AFA82460BE0286A40F003
:1022300004002862EEE700BFFFF730FAA0EB0A01C6
:1022400059455AD8286A8007F6D50CE0FFF726FAD8
:10225000824605E0FFF722FAA0EB0A0159454CD867
:10226000286A8007F6D41FB1E86920F08050E86141
:10227000E06988B36968C1F38101022944D002286A
:10228000C6F8608004D0FFF709FA044638E034E06D
:10229000FFF704FA074604E0FFF700FAC01B022824
:1022A0002BD828688001F7D4206AB0F5803F05D18B
:1022B0006868A16820F4003008436860D4E9080128
:1022C0000843696821F4741108436860C6F8609097
:1022D000FFF7E4F9044606E025E000BFFFF7DEF96A
:1022E000001B022809D828688001F7D51BE000BF31
:1022F000FFF7D4F9001B022802D90320BDE8F88FAC
:1023000028688001F4D40EE00128F7D06868226ABA
:1023100000F48031914204D1616A00F47010884267
:1023200001D00120EAE70020E8E7000000100240A9
:1023300000004242800442424800002000700040F9
:1023400010B5401EB0F1807F01D3012010BD4FF0C9
:10235000E02460610F21601702F0F2F80020A06114
:1023600007202061002010BD7047704710F8411F02
:102370004078084370470000F8B5016804460868D3
:10238000CA684B6910F00F0F4FF0000559D003F0E9
:10239000010602F49077374365D0C10705D0D10517
:1023A00003D5616C41F001016164410705D5D9078E
:1023B00003D0616C41F002016164810705D5D90742
:1023C00003D0616C41F004016164010707D502F09C
:1023D0002001314303D0616C41F008016164616CFC
:1023E00000293AD0800604D5900602D5204601F097
:1023F00027FF20684069616CC0F38010090700D492
:1024000060B3204601F0E7FE20684069400621D510
:102410002068143050E8001F21F0400140E800120D
:10242000002AF5D1E06BA8B16D494163E06BFEF77E
:10243000D1FE002811D0E06B416B01B0BDE8F04047
:10244000084783060FD593060DD52046BDE8F84012
:1024500001F0F6BE2046FFF788FFF8BD2046FFF7E3
:1024600084FF6564F8BD266B2023012E7CD1C6064F
:102470007AD5D60678D508684868009048694FF044
:102480000206400640D5E16B086840680004000C75
:10249000E8D0A28D8242E5D9E085886920282DD038
:1024A00020680C3050E8001F21F4807140E80012D1
:1024B000002AF5D12068143050E8001F21F00101F6
:1024C00040E80012002AF5D12068143050E8001FBF
:1024D00021F0400140E80012002AF5D184F8423092
:1024E000256320680C3050E8001F21F0100140E8FF
:1024F0000012002AF5D1E06BFEF748FE6663A08D5E
:10250000E18D401A81B22AE0A08DE18D401A81B29E
:10251000E08D0028A6D00029A4D022680C3252E811
:10252000000F20F4907042E80007002FF5D12068DA
:10253000143050E8002F22F0010240E80027002F5D
:10254000F5D184F84230256320680C3050E8002F24
:1025500022F0100240E80023002BF5D166632046EC
:10256000FFF702FFF8BDFFE705062BD5150629D5B5
:1025700094F841002128F5D1A068B0F5805F01D121
:102580002069B0B1206A411C21622168007848604E
:10259000E08C401E0004000CE084E3D12068C16898
:1025A00021F08001C1602068C16841F04001C16034
:1025B000D8E7206A0088C0F308004860206A801CC1
:1025C0002062E5E74006CDD55006CBD5CA68204647
:1025D00022F04002CA6084F8413000F0A1F9C1E75E
:1025E0003141000870B5040004D094F84100002582
:1025F00010B106E0012070BD84F84050204600F084
:1026000023F8242084F841002068C16821F4005197
:10261000C160204601F076FE2068016921F49041F6
:1026200001612068416921F02A0141612068C16887
:1026300041F40051C1606564202084F8410084F8B1
:1026400042006563002070BD2DE9F04186B0002492
:1026500000940194029403940646DFF840C1036895
:102660004F48022103224F4D10274FF08008634549
:102670004FD1836943F480438361836903F48043CA
:102680000493836943F0040383618069039200F03B
:10269000040004900802CDE9000169462846FEF7CF
:1026A00007FF2815CDE90004694628460294FEF785
:1026B000FFFE3E4D3C48C5E90007C5E902482C61D4
:1026C0004FF400506C61C5E9064047462846FEF7C6
:1026D00077FE08B1FEF758FDB5636E62334D3248A0
:1026E00044351430C5E90004C5E902472C616C612A
:1026F000AC612846EC61FEF763FE08B1FEF744FDCD
:10270000F5630022114625206E62FFF77BFB252032
:102710003EE0DFF89CC063453CD1C36943F400331D
:10272000C361C36903F400330493836943F0040372
:1027300083618069039200F0040004900420CDE9D5
:10274000000169462846FEF7B3FE0820CDE90004E3
:10275000694628460294FEF7ABFE144D12488835B0
:102760003C302860C5E90174C5E9038480146C61BC
:10277000C5E906402846FEF723FE08B1FEF704FD32
:10278000B5630022114626206E62FFF73BFB262030
:10279000FFF72AFB06B0BDE8F081000000380140D9
:1027A000001002400008014044000240B001002037
:1027B0000044004090F84230202B01D002207047A6
:1027C00021B11AB10023036301F0F8BD0120704765
:1027D0000A49884211D10A490888802801D300207B
:1027E00008800848084B027808881A54401C088062
:1027F000012204490148FFF7DDBF70472001002096
:1028000082000020860000208C0200202DE9F84381
:10281000044690F841001F4616460D46202802D077
:102820000220BDE8F8837DB176B1002060642120EC
:1028300084F84100FEF732FFA6848046E684A06853
:10284000B0F5805F02D003E00120EAE7206910B113
:102850002E4600250EE000260CE08021204601F0E7
:10286000C8FDA0B9AEB116F8010B21684860E08C34
:10287000401EE084E08C43464FF0000200970028A1
:10288000EBD14FF04001204601F0B3FD30B1032001
:10289000C7E735F8020BC0F30800E6E7202084F80C
:1028A00041000020BDE7000070B5044690F84100EB
:1028B000202801D0022070BD49B342B32162A28416
:1028C000E28400206064212384F84130A56B114B21
:1028D000AB62A56B104BEB62A56B104B2B63A36B2C
:1028E0005863256813462A1DA06BFEF797FD2168E3
:1028F0006FF0400008602068143050E8001F41F07D
:10290000800140E80012002AF5D1002070BD0120AE
:1029100070BD00008B410008CD4100084141000816
:1029200070477047FEE701684A69D24352050FD4E9
:102930006FF480624A61002140F8301F2022427308
:102940008173026942F00402026101730120704741
:1029500000207047F8B50446C06A1E460D4617466B
:10296000082807D0012805D010F5803F02D0206B41
:10297000122804D12068016841F480710160134677
:1029800000224FF001112046009600F02FF940B1CF
:1029900020680068C00502D54FF400702064032051
:1029A000F8BD2069B0F5804F0ED00620216800EAFE
:1029B000D51040F0F000086133463A460B492046F6
:1029C00000F05CF978B902E005F0FE0000E0E8B242
:1029D00021680861054933463A46891F204600F0C0
:1029E0004DF90028DCD00120F8BD000008000100EE
:1029F0002DE9F84F0446006889460B9D016898460A
:102A0000174641F4806101602068016841F48071DB
:102A1000016000954FF0011B0022594620460A9B99
:102A200000F0E4F84FF4007A40B120680068C00577
:102A300001D5C4F840A00320BDE8F88F216809F053
:102A4000FE0008612B46284920460A9A00F016F934
:102A5000F0BB20684169806900902A4620460A99A7
:102A600000F0A2F940B1206C04283AD12068016836
:102A700041F40071016034E0FEB2B8F1010F09D0F9
:102A80002168380A08612A4620460A9900F08CF924
:102A90000028E8D1206806612A4620460A9900F0FD
:102AA00083F90028DFD12068016841F4807101605A
:102AB00000950022594620460A9B00F097F800280E
:102AC000B3D1216809F0FF0040F00100086100E087
:102AD00007E02B46044920460A9A00F0CFF8002868
:102AE000AAD00120A8E70000020001002DE9F84368
:102AF000044600680D46DDE90897016898461646C9
:102B000041F4807101604B4600224FF001112046D4
:102B1000009700F06BF848B120680068C00502D546
:102B20004FF4007020640320BDE8F883216805F0AD
:102B3000FE0008613B464A461549204600F09EF8D3
:102B400088B920684169806900903A464946204624
:102B500000F02AF948B1206C042804D120680168EB
:102B600041F4007101600120DEE7F5B2B8F1010F18
:102B700009D02168300A08613A464946204600F0EB
:102B800013F90028E7D1206805610020CCE7000098
:102B90000200010070B516460D4604461EE02046B0
:102BA000FFF7C1FE08B1012070BD681C16D0FEF70A
:102BB00075FD801BA84200D885B920684069C043D4
:102BC00040070BD5002044F8300F20216173A0731B
:102BD000216941F0200121612073E4E72068406908
:102BE000C0434007DBD4002070BD00002DE9F04752
:102BF000984617460D460446C1F30746DDF8209077
:102C00002AE000BFB8F1FF3F26D0FEF747FDA0EB5A
:102C10000901414502D8B8F1000F1DD12068012EED
:102C200016D0806925EA00000004000C12D00020B4
:102C3000B84211D1002044F8300F20216173A073F5
:102C4000216941F02001216120730120BDE8F08756
:102C50004069E7E70120EBE72068012E0AD0806990
:102C600025EA00000004000C06D00020B842C9D0BC
:102C70000020EBE74069F3E70120F7E72DE9F04793
:102C8000984616460D4604464FF000094FF0200ABC
:102C9000C1F3074723E020684069C043400515D4CD
:102CA0002068016841F40071016021686FF4806060
:102CB0004861C4F8309084F83DA084F83E90216CBF
:102CC00041F00401216484F83C9021E0701C06D09E
:102CD000FEF7E4FCA0EB0800B04203D816B1012FC8
:102CE0001FD021E02068012F15D0806925EA00005F
:102CF0000004000C18D000BF44F8309F84F80DA0E9
:102D000084F80E90216941F02001216184F80C9033
:102D10000120BDE8F087406925EA00000004000CAE
:102D2000EAD12068406901E02068806925EA000056
:102D30000004000CAFD1ECE72DE9F04100259046EE
:102D40000E460446202728E04069C043C0060CD444
:102D500054F8301B6FF01000486144F81059677741
:102D6000A577206A2062257714E0FEF797FCA0EB98
:102D70000800B04200D886B920684069C0434006C8
:102D80000BD544F8305F6773A573206940F02000CD
:102D9000206125730120BDE8F08120684169C943A5
:102DA0004906D1D40020F6E770B516460D46044614
:102DB0001EE02046FFF7B7FD08B1012070BD681C7A
:102DC00016D0FEF76BFC801BA84200D885B920689E
:102DD0004069C04300060BD5002044F8300F202185
:102DE0006173A073216941F0200121612073E4E740
:102DF00020684069C0430006DBD4002070BD10B5D8
:102E000080216B2000F08AF86420FEF73FFB002150
:102E10006B2000F083F8032000F04BF8002000F056
:102E200043F8322000F062F80021382000F076F8F4
:102E300000216A2000F072F80021232000F06EF8D3
:102E40008021372000F06AF8752000F011F868281A
:102E500001D0012010BD01216B2000F05FF800219E
:102E60006C2000F05BF8322000F040F8002010BD2C
:102E70001FB500218DF80C100A4900BF91F83D20C4
:102E8000242AFBD040F6FF73012203A98DE80E002F
:102E900013460246D1210348FEF760FD9DF80C0061
:102EA00004B010BDCC000020C006010E1C2000F0B4
:102EB00035B8C006010E1B2000F030B8BC2801D385
:102EC000012110E0622801D302210CE02A2801D35D
:102ED000032108E0142801D3042104E00A2801D3C7
:102EE000052100E006211A2000F018B810B50446AC
:102EF0004FF47A70844201D9044602E0042C00D2D7
:102F00000424B0FBF4F0401EC1B2192000F006F812
:102F10006008BDE81040FFF7D1BF00001FB58DF875
:102F20000C100A4991F83D20242AFBD040F6FF738B
:102F3000012203A98DE80E0013460246D021034862
:102F4000FEF734FE04B0002010BD0000CC000020CD
:102F500010B50446007B012802D1206802F0C4FEAF
:102F6000002020606060A060207310BD5FF001024F
:102F700000F07F030B70C00909D043F08003521C9E
:102F800001F8013B042AF3DD4FF0FF307047104693
:102F900070472DE9F0410446002500680F462E4693
:102FA00010B10220207315E001202073084603F0C1
:102FB0006BF82060002808D0C4E9016702E02068AF
:102FC00046556D1CA068A842F9D8BDE8F08120687C
:102FD00046556D1CA068A842F9D866608842F4D2B4
:102FE0002660F2E72DE9FF5F9A46934600251046DA
:102FF000DDF844900E9F139CFDF7F0F806B2BBF18C
:10300000000F1FD006F111001FFA80F807B102254A
:10301000109868B145F00405FDF7E0F8C7B24846DE
:10302000FDF7DCF8C11901EB0800001D1FFA80F85C
:103030000F9870B1012807D0022808D0022004B0F0
:10304000BDE8F09F0120FAE745F00C0501E045F0EE
:103050001405129808B145F02405009860B3019852
:1030600050B345F0C0070098FDF7B8F80546019841
:10307000FDF7B4F8291801EB0800001D85B22946B8
:103080002046FFF786FF2068C0B12946FDF773F898
:10309000D4E90030411C102261601A54D4E90001C7
:1030A0000144681FFFF762FF00B2002808DA2046DB
:1030B000FFF74EFF0520C2E70320C0E70420BEE76C
:1030C000616823680844411C616000221A54D4E9F5
:1030D0000030421C042162601954D4E90050421CA3
:1030E0004D2362602B54D4E90050421C626051238E
:1030F0002B54D4E90030451C542265601A54D4E99D
:103100000050431C63602A54D4E90030421C6260C2
:103110001954D4E90020411C61601754D4E90030EF
:10312000411C4FEA1A2261601A54D4E90030421C53
:10313000626003F800A0D4E90030411C320A6160EB
:103140001A54D4E90020411C61601654D4E90001EE
:10315000084432465946FDF755F8606830446060CF
:10316000780736D5B9F1000F01D10FF2D8091098C0
:10317000FDF734F885B2D4E90030411C2A0A6160B9
:103180001A54D4E90020411C61601554D4E90001AF
:1031900008442A461099FDF735F8606828446060B5
:1031A0004846FDF71BF885B2D4E90030411C2A0AD5
:1031B00061601A54D4E90020411C61601554D4E9BF
:1031C000000108442A464946FDF71CF86068284477
:1031D0006060380618D50098FDF700F885B2D4E98C
:1031E0000030411C2A0A61601A54D4E90020411CB5
:1031F00061601554D4E9000108442A460099FDF79E
:1032000001F8606828446060780618D50198FCF7DA
:10321000E5FF85B2D4E90030411C2A0A61601A54E6
:10322000D4E90020411C61601554D4E90001084430
:103230002A460199FCF7E6FF606828446060002098
:10324000FDE60000000000002DE9FF4F81B0904630
:103250004FF00006119C0F9A9A465FEA000BB146A8
:10326000314608D1012005B0BDE8F08F232816D0E3
:103270002B2814D0761C0298805D0028F6D141F0EE
:1032800030070AB147F0010706EB0A050E98AD1C9E
:1032900068B1012805D0022806D00320E3E7022008
:1032A000E1E747F0020701E047F00407AD1CB8F181
:1032B000000F03D098F80000022807D0691D2046AF
:1032C000FFF767FE206850B3691D14E05FF000004F
:1032D00018F80010401C7D29FAD100F10409AAEB6E
:1032E0000900291A00912046C91CFFF752FE2068E8
:1032F000A8B10099C91CFCF73EFFD4E90020411C8D
:1033000061601754D4E9000101442846FFF72EFEFE
:10331000002806DA2046FFF71BFE0520A3E704205D
:10332000A1E7616823680844411C320A61601A54AD
:10333000D4E90020411C61601654D4E9000108441E
:1033400032460299FCF75EFF6068304460600E9977
:1033500059B12368411C4FEA1B2261601A54D4E919
:103360000030421C626003F800B0B8F1000F0ED0CC
:1033700098F800000228D4E90001084409D0524618
:103380004146FCF7DFFE616801EB0A006060002047
:1033900069E74A464146FCF7D5FE616801EB090042
:1033A000F4E7000030B591B01446149D0346009137
:1033B0000AA2302104A801F083F801200021CDE900
:1033C0000205CDE900010A46234604A90A20FFF7B9
:1033D0003BFF002800D0012011B030BD2473797369
:1033E0002F25732F25732F7468696E672F70726F86
:1033F00070657274792F706F73740000F0B50446B5
:10340000002001235D05106012E0275C166807F0BC
:103410007F0707FB03661660265C360601D4401C56
:10342000F0BDDB01AB4202D36FF00100F0BD401CE8
:103430008842EADB4FF0FF30F0BD4178022901D02D
:1034400001207047817819B1012901D0FF20704710
:10345000C078704738B504460078FF210009421E45
:103460000E2A01D3084638BD0328FCD10020009065
:103470006A460421601CFFF7C1FF20440099401CEC
:10348000022907D32278D20704D1028852BA921CAB
:103490008A4201D9FF2038BD04A1801CFCF782FEBE
:1034A00008B10F2038BD032038BD000024637265C9
:1034B00071000000114808B5416941F00101416106
:1034C0004069002200F00100009011460E20FEF736
:1034D00099FC0E20FEF788FC002211460F20FEF713
:1034E00091FC0F20FEF780FC002209211120FEF73D
:1034F00089FCBDE808401120FEF776BC00100240B0
:1035000070B586B000241C48009401940294039482
:10351000816941F010018161816901F0100104911C
:10352000816941F020018161816901F020010491EC
:10353000816941F004018161816901F00401049114
:10354000816941F00801816180690C4E00F008003A
:103550004FF440750490002229463046FEF798F853
:1035600001200095CDE90104022003906946304610
:10357000FDF79EFF06B070BD00100240000C014038
:103580000D4810B50B4901600C49416000214FF412
:1035900080428160C0E9031241618161C1610162C1
:1035A000FEF782F8002803D0BDE81040FDF7ECBD1F
:1035B00010BD000000540040CC000020801A06001E
:1035C0000C4810B50A4901604FF4E1314160002117
:1035D00081600C22C160C0E904128161C161FFF702
:1035E00001F8002803D0BDE81040FDF7CDBD10BDA7
:1035F00000380140200100200C4810B50A49016044
:103600004FF416514160002181600C22C160C0E975
:1036100004128161C161FEF7E5FF002803D0BDE817
:103620001040FDF7B1BD10BD00440040680100200E
:10363000FEE7FEE770B500240021204600F0DDF82B
:103640000025002000F063F96D1CEDB2802DF8D349
:10365000641CE4B2082CEFD370BD000010B5064C1A
:10366000012211022046FEF713F820460122BDE890
:1036700010405102FEF70CB8000C01402DE9F04754
:10368000144E002407464FF080084FF40079B5151A
:1036900028FA04F23A4049463046FDF7F9FF012284
:1036A00029463046FDF7F4FF002229463046FDF753
:1036B000EFFF641CE4B2082CEAD30122294630460D
:1036C000FDF7E6FF29463046BDE8F0470022FDF74A
:1036D000DFBF0000000C014070B501220B4D540209
:1036E00021462846FDF7D4FF01221602314628461E
:1036F000FDF7CEFF002221462846FDF7C9FF3146DF
:103700002846BDE870400022FDF7C2BF000C014012
:1037100070B50A4D4FF40074002221462846FDF78B
:10372000B7FF012211022846FDF7B2FF21462846C5
:10373000BDE870400122FDF7ABBF0000000C014066
:1037400010B500204FF47A720021491C9142FCD33D
:10375000401C9042F8D3FFF781FFAE2000F0C6F87E
:10376000D52000F0C3F8802000F0C0F8A82000F0B9
:10377000BDF83F2000F0BAF8D32000F0B7F80020E1
:1037800000F0B4F8402000F0B1F8A12000F0AEF84D
:10379000C82000F0ABF8DA2000F0A8F8122000F002
:1037A000A5F8812000F0A2F8CF2000F09FF8D920E2
:1037B00000F09CF8F12000F099F8DB2000F096F87A
:1037C000302000F093F8A42000F090F8A62000F03C
:1037D0008DF88D2000F08AF8142000F087F8AF20D3
:1037E00000F084F8BDE81040FFF724BF0246012036
:1037F00000E05043491EFCD2704710B50C4640F023
:10380000B00000F073F8102040EA141000F06EF8D9
:1038100004F00F00BDE8104000F068B82DE9F04159
:103820000746CE004000083E801E15464FF0FF3888
:10383000F1B2C0B2FFF7E1FF1148002400EB05151B
:103840002819A0F5805090F8000E00F060F8641C74
:10385000E4B2082CF4D308EB4700F1B2C0B2FFF792
:10386000CCFF00242819A0F5805090F8080E00F035
:103870004EF8641CE4B2082CF4D3BDE8F0810000DB
:10388000667E00082DE9F04700241D46164688464E
:1038900081460A2713E0291B0A20491EFFF7A6FFCD
:1038A000B6FBF0F0B0FBF7F107FB110208EB0400E8
:1038B000C1B248463032FFF7B1FF641CE4B2AC42FB
:1038C000E9D3BDE8F0872DE9F04115460E460746DD
:1038D000002406E03019C1B23846FFF79FFF641C90
:1038E000E4B22A5D002AF5D1BDE8F08110B50446A6
:1038F000FFF7F2FE7820FFF7C1FE0020FFF7BEFEC3
:103900002046FFF7BBFEBDE81040FFF701BF10B532
:103910000446FFF7E1FE7820FFF7B0FE4020FFF7F6
:10392000ADFE2046FFF7AAFEBDE81040FFF7F0BE4F
:103930002DE9F0438BB005460024FCF74FFCC6B2DE
:103940001DB1002069461C2E08D201200BB0BDE835
:10395000F0832A5D0A552855641CE4B2B442F8D3BA
:1039600008550027814688463C4621E018F80700A4
:103970002B2812D008DC202812D0232827D0252875
:1039800022D0262806D125E02F2817D03D2824D084
:103990003F2816D02855641C07E0281910A101E023
:1039A000281910A1FCF7F2FBE41C7F1CE4B2FFB263
:1039B000B742DBD305F804900020C7E728190AA115
:1039C000F0E7281909A1EDE7281909A1EAE7281964
:1039D00008A1E7E7281908A1E4E7281907A1E1E70A
:1039E000253242002532300025324600253346007C
:1039F0002532350025323300253236002533440088
:103A00002DE9F04FC9B04FF0000ADDE954B8DDF8F8
:103A100048911F4615460C460600CDF81CA109D05A
:103A200044B13D48854205D327B1539810B1BBF14D
:103A3000780F03D2012049B0BDE8F08F402137A8AC
:103A4000FCF799FB3846FCF7C9FB00903B4647AAB8
:103A5000402137A8FDF762F8482115A8FCF78BFB39
:103A6000B8F1000F09D02DA08DE851002B462DA2F2
:103A7000482115A800F024FD09E028A103968DE84F
:103A800012022B462DA2482115A800F019FD402155
:103A900027A8FCF770FB15A8FCF7A0FB074637A882
:103AA000FCF79CFB014627A800903B4615AA37A8C7
:103AB00002F05EF9402105A8CDF81CA1FCF75BFBE4
:103AC00027A8FCF78BFB009027AB47AA402105A84D
:103AD000FDF7C0F805A8FFF72BFF05A8B8F1000F08
:103AE0000BD00EA1CDE9021033461CA25946CDE9F8
:103AF0000045539800F0E4FC0BE008A20295CDE9E4
:103B00000320CDE900493346224A5946539800F034
:103B1000D7FC00208FE700009554415D7368613148
:103B20000000000025640A25730A70726F647563D3
:103B300074732F25730A25730000000025640A257D
:103B4000730A70726F64756374732F25732F6465C5
:103B500076696365732F25730A2573007665727322
:103B6000696F6E3D2573267265733D70726F647563
:103B70006374732525324625732665743D256426B6
:103B80006D6574686F643D2573267369676E3D25A6
:103B9000730000009885000830B5B3B000242E945F
:103BA00006A92CA22F943094A020CDE90021CDE9C4
:103BB0000204012528A33194334A34A136A0FFF72B
:103BC0001FFF06AB31A223A136A000F069FC2EA88E
:103BD000CDE904400120CDE90004030202940394DE
:103BE0001CA206A929A0FFF7FDF928B139A000F011
:103BF00057FC33B0284630BD2F9881B22E98FDF780
:103C00008FFAFA20FDF716F904001DD0FFF722FC09
:103C1000022819D12046FFF710FC062818D2DFE849
:103C200000F003080A0C0E1033A000F039FC002548
:103C30000AE036A006E03CA004E044A002E04BA06D
:103C400000E053A000F02CFC2EA8FFF781F9D0E78C
:103C50005AA0F7E76770730064473532643349341C
:103C6000576D67325A334A3157575A505456524556
:103C7000613346745A554A5759586858597A6852A8
:103C80004D6D303D0000000000CF9D743466383922
:103C9000324E4D384B750000323031382D31302DD9
:103CA000333100004F6E654E45545F4465764C6974
:103CB0006E6B0D0A4E414D453A2025732C0950522A
:103CC0004F49443A2025732C094B45593A25730D29
:103CD0000A0000005741524E3A094D5154545F506A
:103CE00061636B6574436F6E6E65637420466169D2
:103CF0006C65640D0A000000546970733A09C1AC28
:103D0000BDD3B3C9B9A60D0A000000005741524EF9
:103D10003A09C1ACBDD3CAA7B0DCA3BAD0ADD2E9D1
:103D2000B4EDCEF30D0A00005741524E3A09C1AC32
:103D3000BDD3CAA7B0DCA3BAB7C7B7A8B5C4636C74
:103D400069656E7469640D0A000000005741524EA7
:103D50003A09C1ACBDD3CAA7B0DCA3BAB7FECEF155
:103D6000C6F7CAA7B0DC0D0A000000005741524E4A
:103D70003A09C1ACBDD3CAA7B0DCA3BAD3C3BBA7B1
:103D8000C3FBBBF2C3DCC2EBB4EDCEF30D0A000003
:103D90005741524E3A09C1ACBDD3CAA7B0DCA3BA51
:103DA000B7C7B7A8C1B4BDD328B1C8C8E7746F6B93
:103DB000656EB7C7B7A8290D0A0000004552523AF0
:103DC00009C1ACBDD3CAA7B0DCA3BACEB4D6AAB4DD
:103DD000EDCEF30D0A00000010B58CB00446302182
:103DE0006846FCF7C8F93EA12046FCF71FFA3021CF
:103DF0006846FCF7C0F9404840A10268684600F0F8
:103E000077FB69462046FCF7C1F9424842A10268A7
:103E1000684600F06DFB69462046FCF7B7F9302193
:103E20006846FCF7A8F9424842A10268684600F0DB
:103E30005FFB69462046FCF7A9F930216846FCF78C
:103E40009AF9434843A10268684600F051FB69466D
:103E50002046FCF79BF930216846FCF78CF9444872
:103E600044A10268684600F043FB69462046FCF71F
:103E70008DF930216846FCF77EF9464846A1026874
:103E8000684600F035FB69462046FCF77FF9302193
:103E90006846FCF770F9484848A10268684600F097
:103EA00027FB69462046FCF771F930216846FCF78C
:103EB00062F94A484AA10268684600F019FB69465F
:103EC0002046FCF763F94EA12046FCF75FF94DA0B0
:103ED00000F0E6FA2046FCF781F90CB0C0B210BD44
:103EE0007B226964223A22313233222C22706172A1
:103EF000616D73223A7B00000400002022626F642F
:103F000079223A7B2276616C7565223A25647D2C94
:103F1000000000000C00002022626F64795F7A22AA
:103F20003A7B2276616C7565223A25647D2C00000F
:103F300010000020226C6566746261636B30223A67
:103F40007B2276616C7565223A25647D2C00000029
:103F5000200000202272696768746261636B3022FE
:103F60003A7B2276616C7565223A25647D2C0000CF
:103F700018000020226C656674666F727761726447
:103F800030223A7B2276616C7565223A25647D2C5D
:103F9000000000001C000020226C656674666F72D1
:103FA00077617264305F7A223A7B2276616C756544
:103FB000223A25647D2C00002800002022726967C7
:103FC0006874666F727761726430223A7B22766120
:103FD0006C7565223A25647D2C0000002C000020C1
:103FE000227269676874666F7277617264305F7A93
:103FF000223A7B2276616C7565223A25647D000049
:104000007D7D000046696C6C20627566206F6B21B7
:104010000D0A000030B5C5B0002041904290439099
:10402000044644904FF4807101A8FCF7A4F801A85D
:10403000FFF7D2FE05000BD041A8009000232A46CE
:1040400011A112A0FFF7AEF970B113A000F028FA89
:1040500045B030BD015DDDE94123D1544299491C91
:10406000641C24B2429100E001A8AC42F2DB429809
:1040700081B24198FDF754F80FA0429900F010FA70
:1040800041A8FEF765FFE3E76770730034663839CF
:10409000324E4D384B7500005741524E3A09454457
:1040A000505F4E6577427566666572204661696C41
:1040B00065640D0A0000000053656E6420256420CD
:1040C00042797465730D0A0070477047FDF734BE7E
:1040D00030B58FB028216846FCF74DF814210AA8A6
:1040E000FCF749F801210804CDE9001000240294EE
:1040F00002250491CDE907504FF4E010099068467D
:10410000FDF78EFF08B172B6FEE70F20CDE90A0574
:104110004FF48060CDE90C4002210AA80E94FDF70F
:10412000A3FE002801D072B6FEE70FB030BD704785
:1041300010B5406A0021C185C184FEF716F910BD93
:1041400070B5446A2068406994F84110C0F3C0100B
:104150000025212904D118B1E584204600F062F839
:104160002068406994F84210C0F38010222904D1DD
:1041700018B1E585204600F02EF8606C40F0100084
:1041800060642046FEF7F1F870BD10B50146406A44
:1041900009680968890616D40021C18401681431B0
:1041A00051E8002F22F0800241E80023002BF5D1D6
:1041B00001680C3151E8002F42F0400241E8002331
:1041C000002BF5D110BDFEF7ABFB10BD10B5406A5A
:1041D000FEF7A7FB10BD01680C3151E8002F22F457
:1041E000907241E80023002BF5D10168143151E8A9
:1041F000002F22F0010241E80023002BF5D1016BD2
:10420000012909D101680C3151E8002F22F0100278
:1042100041E80023002BF5D1202180F84210002135
:104220000163704701680C3151E8002F22F0C00291
:1042300041E80023002BF5D1202180F84110704780
:1042400008B590F84210222901D0022008BD8268EA
:104250004FF480539A4201D1016921B1816A9A4297
:104260001BD04AB10AE00268816A5268C2F30802B0
:104270000A80816A891C08E0026972B1026852688A
:1042800002F07F020A70816A491C8162C18D491E59
:104290000904090CC18503D01BE002685268F1E7EC
:1042A0000168CA6822F02002CA600168CA6822F464
:1042B0008072CA6001684A6922F001024A612021C5
:1042C00080F8421000214163026B012A03D0FEF7FF
:1042D0007FFA002008BD016301680C3151E8002F0E
:1042E00022F0100241E80023002BF5D101680A6892
:1042F000D20602D50A6849680091818DFEF734F82C
:10430000E7E7000070B5044600680169E26821F43F
:104310004051114301612169A06808436169084364
:104320002168CA6841F20C639A430243CA6020685C
:104330004169A26921F44071114341611E4920681D
:10434000884202D1FDF736FE01E0FDF723FE00EBC7
:10435000C00101EB0012606864218000B2FBF0F341
:10436000B3FBF1F36FF018067343B2FBF0F5B2FB49
:10437000F0F605EB8305322303EB0515B5FBF1F5EC
:10438000B6FBF1F605F0F00505EB0615B2FBF0F60D
:10439000B2FBF0F0B0FBF1F06FF01802504306EB07
:1043A000800003EB0010B0FBF1F0216800F00F007B
:1043B0002844886070BD0000003801408162828519
:1043C000C28500214164222180F84210016921B197
:1043D0000168CA6842F48072CA6001684A6942F0A2
:1043E00001024A610068C16841F02001C1600020FB
:1043F00070472DE9F041984617460E460446069D43
:1044000027E0681C25D02DB1FDF748F9A0EB080086
:10441000A8421ED920680C3050E8001F21F4D0714A
:1044200040E80012002AF5D12068143050E8001F3F
:1044300021F0010140E80012002AF5D1202084F883
:10444000410084F84200002084F840000320BDE8C9
:10445000F0812068006836EA000004D00020B842ED
:10446000CFD00020F3E70120F9E700000148FDF775
:1044700083BF0000200100200148FDF77DBF000040
:1044800068010020FEE710B504464FF6FF73FEF703
:10449000BDF92046FDF76AFF2128FAD010BD0000C3
:1044A0000FB4054B10B503A9044A029800F098F91F
:1044B00010BC5DF814FB0000D15C000888000020EF
:1044C0000FB41CB50246002007AC00290BD0491ED2
:1044D000CDE90021054B6A462146069800F080F997
:1044E000009A002111701CBC5DF814FB0F4F0008EE
:1044F0000FB4084B10B504A902AA039800F070F994
:10450000044602A9002000F00DFD204610BC5DF815
:1045100014FB0000254F0008490050EAC12018BFD5
:1045200004204A0D18BF40F0010040F2FF72B2EBC8
:10453000515F08BF40F00200012808BF0520704706
:104540000907090E002804DB00F1E02080F80014C0
:10455000704700F00F0000F1E02080F8141D704754
:104560002DE9F0414F1E00EBC7010446D1E90001DF
:1045700015461E4637F006020DD02A463346FBF795
:10458000D9FF7F1E04EBC703D3E90023FBF72BFF02
:1045900037F00602F1D1022F25D0042F13D0062FB9
:1045A00018BFBDE8F0812A463346FBF7C3FFD4E9C4
:1045B0000A23FBF718FF2A463346FBF7BBFFD4E973
:1045C0000823FBF710FF2A463346FBF7B3FFD4E975
:1045D0000623FBF708FF2A463346FBF7ABFFD4E977
:1045E0000423FBF700FF2A463346FBF7A3FFD4E979
:1045F0000223FBF7F8FE2A463346FBF79BFFD4E97C
:104600000023BDE8F041FBF7EEBE0122FCF7F2B952
:10461000FBF7E9BE0022134610461146FBF7FCBF2C
:10462000024A00201107FCF7E5B9000001FDFFFF79
:1046300002E008C8121F08C1002AFAD1704770476B
:10464000002001E001C1121F002AFBD170470000C9
:104650000149086070470000940000202DE9FF5FC9
:1046600082B00021DDE90430020DDDF840B00343E3
:1046700018D044F61050A2F2FF324243151411989C
:1046800001281FD0A5EB0B00401C5FEA000A4FF089
:1046900000064E4FDFF83891B046504615D5CAF1A6
:1046A000000413E0119801244AA3012801D16FEA04
:1046B0000B010298119AC0E90031C0E9024206B02C
:1046C000BDE8F09FCBF10000DFE704460021404A3F
:1046D000491842EB0450CDE9001012E0E00707D082
:1046E00032463B4640464946FBF724FF8046894612
:1046F00032463B4610461946FBF71CFF06460F465E
:104700006410002CEAD1DDE90401DDE90023BAF1EF
:10471000000F06DAFBF70EFF42464B46FBF70AFF97
:1047200005E0FBF779FF42464B46FBF775FF044671
:104730000E460022284BFCF72DF803D84FF0FF302F
:10474000014607E00022254B20463146FBF74BFE91
:10475000FCF767F9102409E0002C0ADB0A22002389
:10476000FCF762F8039B30321A55641E50EA0102CE
:10477000F2D1641C039AC4F111031444119A012A62
:1047800003D0012208430DD10AE0084304D00020E1
:104790004FF0110B119072E7A3EB0B056D1E0DE0AE
:1047A0005B4504DD4FF0000205F1010504E003DA8A
:1047B0004FF00002A5F10105002AECD002981199F2
:1047C000C0E90231C0E9004579E70000000014406B
:1047D0000000F03F300000000000F0430000E03F28
:1047E0002DE9FF4F95B09B468946064600250FE20E
:1047F000252877D100242746F84A0121059400E0B6
:10480000044316F8013F203B01FA03F01042F7D1B0
:1048100030782A2811D06FF02F033078A0F13002C1
:10482000092A16D8059A44F0020402EB820203EB2F
:1048300042021044761C0590EFE759F8042B0592CC
:10484000002A03DA504244F40054059044F0020474
:10485000761C30782E2816D116F8010F44F0040487
:104860002A280DD06FF02F023078A0F13003092BE9
:1048700009D807EB870302EB4303C718761CF3E75D
:1048800059F8047B761C30786C280FD006DC4C2855
:1048900017D068280DD06A2814D104E0742810D0ED
:1048A0007A280FD10DE044F400140AE044F4801497
:1048B00001E044F440147278824202D104F580147D
:1048C000761C761C307866280BD013DC582877D0FD
:1048D00009DC002875D04528F6D04628F4D04728B2
:1048E0001AD19DE118E0632835D0642879D0652875
:1048F00012D195E1702873D008DC6728F1D06928BF
:104900006FD06E280DD06F2806D1B5E073282CD05B
:10491000752875D0782874D05A46179990476D1C21
:1049200075E1C4F30250022809D003280DD0D9F84C
:10493000001004280DD00D6009F1040967E1D9F8D1
:104940000010EA17C1E90052F6E7D9F800100D800F
:10495000F2E70D70F0E719F8041B8DF80010002045
:104960008DF80100EA46012003E059F804AB4FF04E
:10497000FF3061074FF0000102D40DE008F10101A2
:104980008846B9420FDA8045F8DB1AF8081000298A
:10499000F4D108E008F1010188468142FADB1AF8F7
:1049A00008100029F6D105985B46A0EB08072146C0
:1049B0003846179A00F094FA284400EB080507E0FF
:1049C0004DE029E10DE01AF8010B5A46179990477E
:1049D000B8F10108F7D25B4621463846179A13E131
:1049E00042E00A220092C4F302524FF0000A022A67
:1049F00008D059F804CB032A4FEAEC710AD00DE035
:104A000029E02AE009F1070121F00702F2E802C1DA
:104A1000914609E00FFA8CFC4FEAEC71042A03D1AD
:104A20004FFA8CFC4FEAEC71002907DA0A460021A4
:104A3000DCF1000C61EB02012D2202E0220504D51D
:104A40002B228DF80420012203E0E20701D020226E
:104A5000F7E7904659E00A2102E010220DE010210C
:104A60004FF0000A00910BE010224FF0000A44F0D2
:104A700004040827009203E008224FF0000A009285
:104A8000C4F30252022A05D059F804CB0021032AAC
:104A900008D009E009F1070121F00702F2E802C19C
:104AA000914605E01FFA8CFC042A01D10CF0FF0CA2
:104AB0004FF00008220728D5702806D0009B83F00D
:104AC000100353EA0A0305D00EE040228DF80420BB
:104AD000012208E05CEA010206D030228DF80420B1
:104AE0008DF8050002229046009B83F0080353EAEC
:104AF0000A030AD15CEA010201D1620705D530221E
:104B00008DF804204FF001087F1E582804D034A0EF
:104B100003900EA802900DE036A0F9E753466046D8
:104B2000009AFBF781FE84460398825C0298401E3F
:104B3000029002705CEA0100F0D1029806A9081AFE
:104B400000F1200A600702D524F4803400E0012738
:104B5000574502DDA7EB0A0000E0002000EB0A0148
:104B6000009005984144401A0590E00306D45B4646
:104B70002146179A059800F0B3F90544002706E08E
:104B800001A85A46C05D179990476D1C7F1C474588
:104B9000F6DBE0030CD55B462146179A059800F03A
:104BA0009FF9054404E030205A46179990476D1C40
:104BB0000099481E00900029F5DC08E0029802994F
:104BC0005A460078491C0291179990476D1CBAF11A
:104BD0000001AAF1010AF1DC65E1000009280100E9
:104BE0003031323334353637383961626364656663
:104BF0000000000030313233343536373839414225
:104C0000434445460000000000F058F90544761C76
:104C1000307800287FF4ECAD19B02846BDE8F08F5D
:104C2000620700D4062709F1070222F0070CFCE80E
:104C30000223E14603F000485FEA080C02D00FF2BD
:104C4000702C0DE05FEA045C02D50FF2682C07E0DF
:104C50005FEAC47C02D00FF2602C01E0AFF2700C6E
:104C60004FF0FF3823F00043CDF850C065280CD03A
:104C700006DC452809D046281DD047283DD13DE017
:104C8000662818D067287ED138E00021112F01DB7B
:104C9000112000E0781CCDE9000106A90EA8FFF75D
:104CA000DDFCDDE90F010E9A03910021009207F16E
:104CB000010A04914DE04FF000400097CDE901104A
:104CC00006A90EA8FFF7CAFCDDE90F0203920E9BAE
:104CD00011990022DDF80CA00093049211B9791CFF
:104CE00000EB010AB7EB0A0004D4C0F1FF3007F172
:104CF000010A0490AAEB0700019044E0012F00DABA
:104D000001270021112F01DD112000E03846CDE9F7
:104D1000000106A90EA8FFF7A1FCDDE90F010E9A1C
:104D20000391002104910092BA4621070CD4039903
:104D3000514500DA8A46BAF1010F05DD009AAAF161
:104D40000101515C302908D0B84202DA10F1040F99
:104D500006DA0121CDE9011015E0AAF10101E9E728
:104D6000002805DC049901440491AAEB000102E04B
:104D7000411C514500DD8A460499401A401C0190AF
:104D80004FF000400290200704D40198504501DB09
:104D9000CDF8048000208DF84F0002980DF14F07E8
:104DA000B0F1004F25D02B200E9002984FF0020852
:104DB00000280CDA404202902D200E9007E00A21D4
:104DC0000298FBF71BFD3031029007F8011DB8F186
:104DD0000001A8F10108F2DC02980028EFD1791E49
:104DE0000E980870307800F0200040F0450007F879
:104DF000020D12A8C01B00F107081498007800B13A
:104E0000012000EB0A01019801EBE0710598414493
:104E1000401A401E0590E00306D45B462146179ACF
:104E2000059800F05DF805441498007818B15A46CA
:104E3000179990476D1CE00324D55B462146179ACD
:104E4000059800F04DF805441CE00498002807DBA5
:104E5000DDE90301884203DD0098405C179901E019
:104E6000179930205A469047049805F10105401CD7
:104E700004900198401E019004D12E205A461799A3
:104E800090476D1CBAF10001AAF1010ADDDC05E0D2
:104E900017F8010B5A46179990476D1CB8F100019D
:104EA000A8F10108F4DC5B462146179A0598ABE6A9
:104EB0002D0000002B000000200000002DE9F04133
:104EC000044600251E461746880404D405E03946EA
:104ED0002020B0476D1C641EF9D52846BDE8F0813E
:104EE0002DE9F041044600251E469046C80301D531
:104EF000302700E02027880404D505E041463846E5
:104F0000B0476D1C641EF9D52846BDE8F0814A689B
:104F1000002A06D00A68531C0B6010704868401EB7
:104F2000486070470A68531C0B601070704700009F
:104F30002DE9F04D8D4F21F0004A86B005460C4614
:104F4000BA452ADBAAEB070028430AD088488245E5
:104F500001DC1AD1CDB106B02846BDE8F04DFFF70F
:104F600054BB844A844B2846FBF7E4FA07460E46B6
:104F7000824A834B28462146FBF7DCFA06B03A46C4
:104F80003346BDE8F04DFBF72EBA0120FFF760FB7A
:104F900006B0BDE8F04DFFF73DBB7A48824542DAE6
:104FA000BAF1795F0BDA2846FFF7B6FA042808BF92
:104FB000FFF736FB284606B02146BDE8F08D2A46AD
:104FC0000B461046FBF7B6FA834602466E480E467D
:104FD0000B4606217844FFF7C3FA5A463346FBF7DF
:104FE000A9FA804669488A465A46334604217844DD
:104FF000FFF7B6FA5A463346FBF79CFA00223B46C7
:10500000FBF7F1F902460B4640465146FBF704FB1D
:105010002A462346FBF78EFA06B02A462346BDE809
:10502000F04DFBF7E0B9284624F0004100223D4650
:105030003B46FBF77CFA4FF0FF32FBF7DBFC064602
:10504000024653480F460B4606217844FFF788FA7C
:1050500032463B46FBF76EFACDE900014D48324639
:105060003B4604217844FFF77BFA32463B46FBF788
:1050700061FA00222B46FBF7B6F9834602913046CF
:10508000394602F031F8804643480D46504517DC5A
:10509000DDE900015A46029BFBF7BEFA42462B4669
:1050A000FBF748FA42462B46FBF79DF90122FBF736
:1050B000A1FC304A304BFBF737FA304A304B4CE01A
:1050C0004FF0000A52460B464046FBF78CF9CDE9FB
:1050D000031052462B4610461946FBF72BFA324670
:1050E0003B46FBF724FADDE90332FBF795FA064667
:1050F0000F46DDE900015A46029BFBF78DFA834615
:105100000091012230463946FBF774FC194A1A4BCC
:10511000FBF70DFA06460F46012240462946FBF7EB
:1051200069FC5A46009BFBF705FA32463B46FBF703
:10513000FBF906460F46012250462946FBF75AFC6A
:105140000E4DDFF858802A464346FBF7F0F9324609
:105150003B46FBF7ECF92A464346FBF7E8F9002CFF
:10516000D8BF81F0004106B0BDE8F08D0000F03FEF
:105170000000F07F075C143326A6913C182D4454A0
:10518000FB21F93F0000E03F80340000963400002E
:105190000A340000203400003333EF3FFB21E93FA5
:1051A0002DE9F84F04460D4621F000400091734967
:1051B000814211DC7249884201DC06D12CB12046C3
:1051C0002946BDE8F84FFFF720BA6E48002DCCBF46
:1051D0006D496E49BDE8F88F6D49814211DD6D4919
:1051E0008142D8BF4FF0FF366DDD20462946FFF7DC
:1051F00093F9042808BFFFF713FA20462946BDE8B3
:10520000F88F6549654F25F00045814233DD6449DB
:10521000814219DD002632464FF080432046294660
:10522000FBF7E1F880468A46012220462946FBF733
:10523000E1FB00223B46FBF777F942465346FBF77A
:10524000EBF904460D463EE001260022BA463B46F5
:1052500020462946FBF7C7F880460F4600225346F2
:1052600020462946FBF760F942463B46FBF7D4F956
:1052700004460D4627E04B4981421BDDDFF828A19B
:1052800002260022534620462946FBF753F9002206
:105290003B46FBF7A8F880460F46002253462046BF
:1052A0002946FBF741F942463B46FBF7B5F9044670
:1052B0000D4608E0032622462B4600203B49FBF71B
:1052C000ABF904460D4622462B4610461946FBF71D
:1052D00031F98B46824602460B46FBF72BF907460F
:1052E0000246334888460B4606217844FFF738F9D2
:1052F00052465B46FBF71EF982462E488B463A46DD
:10530000434605217844FFF72BF93A464346FBF71D
:1053100011F902460B46002E504659460CDAFBF7AF
:1053200062F822462B46FBF705F901B022462B46D0
:10533000BDE8F04FFBF7FBB8FBF755F822462B46CC
:10534000FBF7F8F81C4A7A4402EBC603D3E90023C2
:10535000FBF7EAF822462B46FBF7E6F8174A7A44B1
:1053600002EBC603D3E90023FBF7E1F8009A002A19
:10537000B8BF81F00041BDE8F88F00000000104484
:105380000000F07F182D4454FB21F93FFB21F9BFA9
:105390000000DC3F0000203E0000F33F0000F03F33
:1053A0000000E63F008003400000F83F0000F0BF2F
:1053B00022320000E03100007E3100004631000062
:1053C0002DE9F04D9446CCF1000423F000464CEA60
:1053D0000404524F46EAD4749A46884621F00042AB
:1053E000BC4206D8454240EA050442EAD474BC42B5
:1053F00004D9BDE8F04D6246FFF70AB9AAF140555D
:10540000A5F17F6555EA0C040BD0022404EAAA74C6
:10541000434DDFF810E144EAD87452EA000B04D09F
:105420000CE0BDE8F04DFFF7BBBE002C14BF012C13
:10543000BDE8F08D022C30D0032C32D056EA0C0B94
:105440000AD0BE4220D1BA4209D126F0804622F0CD
:1054500080423346114617E000291ADB25E0DFF8C9
:10546000C8B0FB44002C04BFDBE90001BDE8F08DAF
:10547000012C02BFDBE9000181F00041BDE8F08DA5
:10548000022C0AD0032C0CD0BA4212D1B8F1000F72
:105490000BDA23482549BDE8F08D28462449BDE8AC
:1054A000F08D28467146BDE8F08D1D482149BDE8C4
:1054B000F08D921B12153C2AC4BF19481D490EDC01
:1054C000BAF1000FBEBF12F13C0F0020014606DB0F
:1054D0006246FBF7A1F821F00041FFF761FE002CC6
:1054E00008BFBDE8F08D012C04BF81F00041BDE88C
:1054F000F08D114A114B022C07D0FBF715F82A4604
:10550000BDE8F04D0A4BFBF70FB8FBF70DF82A4644
:10551000BDE8F04D064BFBF70AB800000000F07F35
:10552000182D4454FB2109C0DA300000FB21F9BFDB
:10553000FB210940FB21F93F075C143326A6A13C5F
:1055400008B560B120208DF8000028208DF80100FA
:1055500030208DF8020038208DF8030004E0A322EB
:1055600004216846FAF700FE6A46042140F69E20B0
:1055700001F0CCFB01F002F908BD00003EB5044685
:1055800002208DF80000CA208DF80100E3208DF87C
:10559000020009208DF803006A460421682001F00A
:1055A000B5FBA3208DF80000610609D5C0218DF858
:1055B0000110C8218DF80210C2218DF8031005E0FA
:1055C0008DF801008DF802008DF8030014F4C07FFF
:1055D00009D0C4218DF80410CC218DF80510C62106
:1055E0008DF8061005E08DF804008DF805008DF8A3
:1055F00006008DF808008DF807008DF809006A464E
:105600000A2140F6A72001F081FBA0074FF0D80542
:1056100003D020208DF8000001E08DF800506A468C
:10562000012140F6B62001F071FBA00601D5012052
:1056300000E0002000F08EF814F4C07F1ED0E005DA
:105640000AD5B2208DF800008B208DF80100B6201D
:105650008DF802009B2009E0B0208DF8000080202A
:105660008DF80100B4208DF8020090208DF8030021
:105670006A46042140F6A22001F048FBE1074FF4FE
:105680000B6022D0F8218DF800106A46012101F04C
:105690003DFBFA21072000F067FA072000F032FAFC
:1056A000012000F04FFA642000F0F2FA4FF4FA7093
:1056B00000F0FEFAC821254800F0ECF9282000F09F
:1056C00001FA0A2000F00EFA05E08DF800506A4653
:1056D000012101F01BFBA00703D5D9208DF80000A4
:1056E00001E08DF800506A46012140F23D7001F062
:1056F0000DFB600701D5012000E0002000F048F814
:10570000E00601D5012000E00020FFF719FF104D51
:1057100044F00800688101F031F80020A8736006A9
:1057200001D50620A87314F4C07F02D0A87B801D89
:10573000A87314F0140F02D0A87B1030A873A00730
:1057400002D0A87B001DA87300203EBD09E3CA0259
:105750007C0200200EB54FF4976310B106A107C973
:1057600001E008A207CA8DE807006A460921184629
:1057700001F0CCFA0EBD0000B8AAB38DB4980D3577
:105780005D000000B8AAAAAAB088C3C5C70000007F
:1057900008B560B1C0208DF80000C2208DF801006E
:1057A000C4208DF80200C6208DF8030004E08B228F
:1057B00004216846FAF7D8FC6A46042140F698208E
:1057C00001F0A4FA00F0DAFF08BD0000C8234FF48E
:1057D0008062024940F6F63000F0B2BEB0710008B7
:1057E0002DE9FF4F89B01746DDE9165200244C4ED3
:1057F000884681462C80A246B07B694600F04CFF6B
:105800004FF0FF3B18B158460DB0BDE8F08F7089DE
:1058100010F0140F3CD0009909BA21F0FF039DF855
:1058200003100B433B6001991B1409BA21F0FF02DE
:105830009DF807105B430A437A6002999DF80B407C
:1058400009BA21F0FF012143B960039C091424BA6D
:1058500024F0FF0C9DF80F4012144CEA040CC7F81A
:105860000CC04FEA2C47494302FB023207FB0711E9
:1058700011441024A1F17061B1F1007F04D900F04E
:105880007DFFA5F800A0BEE7298841F4807129803A
:105890004206694611D50A19A41D13885BBAA8F8F7
:1058A000003053885BBAA8F80230928852BAA8F840
:1058B00004202A8842F008022A8010F4C07F11D008
:1058C0000A19A41D13885BBAA9F8003053885BBA83
:1058D000A9F80230928852BAA9F804202A8842F026
:1058E00070022A80800716D00C44E07800F0C005D2
:1058F00000F03F016078C00706D0C80801F007013A
:105900003268491C02B190476078000703D571687E
:1059100009B1A80988470C9800F0ECFB002073E758
:105920007C02002030B5044613A285B007CA8DE87A
:1059300007004FF0FF35C82C16D8C820B0FBF4F193
:10594000491E080A8DF80C008DF80D1003AA0221DB
:1059500040F2162001F0DAF930B96A460C2140F61F
:10596000C12001F0D3F910B1284605B030BD05487B
:1059700084810020F9E70000FEF2ABC4AAF1DFDF6A
:10598000BBAFDFDF7C0200202DE9FF4104463CA0D5
:1059900004F00303006802903AA0006803903AA064
:1059A00006683AA0056802A8C15C8DF80010C4F32F
:1059B000C101425C8DF80120C4F38112805C8DF836
:1059C000020003A8C35C8DF80430415C8DF805101B
:1059D000805C8DF806006A46032140F2264001F003
:1059E00095F94FF0FF37E0BB01AA032140F22A40AE
:1059F00001F08CF9A8BBCDE9006560070BD59DF8D7
:105A0000000040F001008DF800009DF8040040F017
:105A100001008DF80400A0060BD59DF8010040F0B0
:105A200001008DF801009DF8050040F001008DF89F
:105A30000500E0050BD59DF8020040F001008DF84F
:105A400002009DF8060040F001008DF806006A464D
:105A500003214FF4886001F059F910B901AA03211C
:105A600000E004E040F2314001F050F918B138464E
:105A700004B0BDE8F081064804810020F8E700008A
:105A80004CCD6C000CC92C003656760026466600BC
:105A90007C0200204FF47A7290FBF2F008B5484384
:105AA000010E8DF80010010C8DF80110010A8DF81F
:105AB00002108DF803006A4604214FF4AE7001F025
:105AC00025F908BD0521B0FBF1F008B5010A8DF8F4
:105AD00000108DF801006A4602214FF4AD7001F00C
