:020000040800F2
:10000000C00D0020AD0100089B360008F128000853
:1000100099360008C90B0008814200080000000062
:10002000000000000000000000000000373E000853
:10003000ED0C000800000000353E0008393E0008C5
:10004000C7010008C7010008C7010008C701000870
:10005000C7010008C7010008C7010008C701000860
:10006000C7010008C7010008C7010008C701000850
:10007000C7010008C7010008C7010008C701000840
:10008000C7010008CD0B0008C701000800000000F0
:10009000000000000000000000000000C701000890
:1000A000C7010008C7010008C7010008C701000810
:1000B000C7010008C7010008C7010008C701000800
:1000C000C7010008C7010008C7010008C7010008F0
:1000D000C7010008694200087542000800000000DE
:1000E000C7010008C7010008C701000800000000A0
:1000F000000000000000000000000000C701000830
:1001000000000000C7010008C7010008C70100087F
:1001100000000000000000000000000000000000DF
:10012000C7010008C7010008D90B0008C701000873
:10013000C7010008000000000000000000000000EF
:10014000000000000000000000000000C7010008DF
:10015000C7010008C7010008E50B0008C701000837
:10016000C7010008C70100080000000000000000EF
:10017000000000000000000000000000000000007F
:1001800000000000C701000800000000000000009F
:10019000C7010008C7010008DFF80CD000F08AFB97
:1001A0000048004711600008C00D00200648804745
:1001B00006480047FEE7FEE7FEE7FEE7FEE7FEE74C
:1001C000FEE7FEE7FEE7FEE7D13E000899010008E2
:1001D0002DE9F05F0546002092469B46884606467C
:1001E000814640241BE0284641464746224600F00F
:1001F00092FA53465A46C01A914110D311461846F6
:10020000224600F079FA2D1A67EB01084F46224684
:100210000120002100F070FA17EB00094E41201E6A
:10022000A4F10104DFDC484631462A464346BDE8D6
:10023000F09F40EA01039B0703D009E008C9121FA1
:1002400008C0042AFAD203E011F8013B00F8013B90
:10025000521EF9D27047D2B201E000F8012B491EBC
:10026000FBD270470022F6E710B513460A46044653
:100270001946FFF7F0FF204610BD421E12F8013F5D
:10028000002BFBD111F8013B02F8013B002BF9D107
:10029000704730B505462A460B4612F8010B13F895
:1002A000014B08B1A042F8D01CB1002802D06D1C4F
:1002B000F1E7284630BDCAB2401E10F8011F8A423D
:1002C00002D00029F9D100207047421C10F8011B10
:1002D0000029FBD1801A704730B504460020034640
:1002E00000E05B1C934203D2E05CCD5C401BF8D085
:1002F00030BD10B5044600E0401C0378002BFBD154
:1003000000E0401C521E04D311F8013B0370002B87
:10031000F7D100210170204610BD034611F8012BD2
:1003200000F8012B002AF9D1184670472DE9FE4F3D
:10033000804681EA0300C00F0C46009021F0004186
:1003400023F00045B8EB0200A94105D24046214602
:1003500090461C460B46024623F00040104347D00F
:10036000270DC7F30A00C3F30A510290401A019007
:1003700040286BDAC3F3130040F4801B00989246C8
:1003800020B10023D2EB030A63EB0B0B0198594613
:10039000C0F14002504600F0AFF906460D46504607
:1003A0005946019A00F0C7F910EB0800614100249A
:1003B00087EA115284EAE7731A4340D0009A62B385
:1003C000019A012A4FEA075215DC001B61EB02017A
:1003D0004FF0004202EA0752CDE90042001C41F50D
:1003E000801132462B4600F0FEF903B0BDE8F08FD5
:1003F00040462146F9E7001B61EB0201001C41F574
:10040000801300185B412018A2F5001747EB030189
:1004100040EAD570B6196D4111E06D084FEA360615
:1004200045EAC0754FEA0752001B61EB0201001C50
:1004300041F5801149084FEA300000195141324618
:100440002B4603B0BDE8F04F00F0BEB90098012282
:1004500040000023D0EB020263EBE07300982146DA
:100460004FEAE074B8EB000061EB0401E9E783F0C8
:1004700000435BE781F0004158E72DE9FE4F81EA38
:10048000030404F0004421F0004100944FF0000BFD
:1004900023F0004350EA01045ED052EA03045BD02B
:1004A000C3F30A54C1F30A552C44A4F2F334019463
:1004B000A0FB0254C1F3130141F48011C3F31303F1
:1004C00043F4801301FB024400FB034E840A970AA5
:1004D00044EA815447EA8357A4FB076802958D0AD2
:1004E00005FB07854FEA932C04FB0C542705029D5E
:1004F0004FEA065847EA1637B5EB08056EEB070CCE
:10050000870E920E47EA811742EA8312A7FB020187
:10051000B6EB0B0164EB00042B0D43EA0C335E18C1
:1005200044EB1C50DA465146E7FB0201C5F31304C5
:100530004FEA0B3343EA14534FEA0432019C43EA77
:100540000603A4F10C040294009CCDE900B400F071
:100550004AF903B0BDE8F08F00200146F9E72DE924
:10056000F04D81EA030404F0004B21F000451446ED
:100570004FF0000A23F0004150EA050220D054EA6F
:1005800001021DD0C5F30A570246C5F31303C1F398
:100590001300C1F30A5640F4801543F48013A7EB0F
:1005A0000608101BD64608F2FD3873EB050002D38F
:1005B00008F1010801E092185B41B8F1000F03DA7D
:1005C00000200146BDE8F08D00204FF48011064662
:1005D00084460EE0171B73EB050705D3121B63EB74
:1005E000050306434CEA010C49084FEA3000921813
:1005F0005B4150EA0107EDD152EA030012D082EAD2
:10060000040083EA0501084305D0101BAB4106D264
:100610000122002306E000224FF0004302E06FF0C9
:10062000010253101AEB06004CEB085110EB0A00C4
:1006300041EB0B01BDE8F04D00F0C6B800F0004200
:1006400030F000400AD0C10D01F56071C0F3160012
:1006500042EA0151C2084007114370470020014699
:100660007047000030B5041E71F1000404DB4FF048
:100670000044404264EB0101141E73F1000405DBE9
:100680001C464FF00043524263EB0403994208BFFB
:10069000904230BD01F0004330B421F0004150EAF7
:1006A000010206D00A0DA2F56072C1F31301002AFF
:1006B00002DC30BC00207047440F44EAC104C10092
:1006C000E01830BC00EBC25000F047B830B50B4624
:1006D000014600202022012409E021FA02F59D4272
:1006E00005D303FA02F5491B04FA02F52844151E46
:1006F000A2F10102F1DC30BD202A04DB203A00FA2D
:1007000002F1002070479140C2F1200320FA03F368
:10071000194390407047202A04DB203A21FA02F066
:100720000021704721FA02F3D040C2F1200291402B
:10073000084319467047202A06DBCB17203A41FAB6
:1007400002F043EAE07306E041FA02F3D040C2F15E
:10075000200291400843194670470029A8BF7047FE
:10076000401C490008BF20F00100704710B4B0FAE7
:1007700080FC00FA0CF050EA010404BF10BC704782
:1007800049B1CCF1200421FA04F411FA0CF118BF9C
:10079000012121430843A3EB0C01CB1D4FEA00616B
:1007A0004FEA102042BF002010BC704700EBC3503E
:1007B00010440029A4BF10BC7047401C490008BF6A
:1007C00020F0010010BC704710B5141E73F1000436
:1007D00008DA401C41F1000192185B411A4301D133
:1007E00020F0010010BD2DE9F04D92469B4611B15D
:1007F000B1FA81F202E0B0FA80F220329046FFF7BF
:100800007BFF04460F4640EA0A0041EA0B015346CB
:100810005A46084313D0114653EA010019D0C8F1D3
:1008200040025046FFF777FF05460E4650465946B0
:100830004246FFF761FF084305D0012004E020464F
:100840003946BDE8F08D0020054346EAE0762C43AA
:1008500037430A986305E40AA0EB08000022FD0A6A
:1008600044EA47540A3002D500200146E9E7010571
:1008700010196941DDE9084500196941BDE8F04DED
:10088000A2E7C1F30A52C1F3130140F2FF3341F46E
:1008900080119A4202DA00200146704740F2334349
:1008A0009A42A2F2334202DC5242FFF734BFFFF712
:1008B00023BF0000064C074D06E0E06840F001034E
:1008C00094E8070098471034AC42F6D3FFF768FC71
:1008D000C8800008E88000082DE9F04D00231A4682
:1008E0001B1A8A4103DB00200146BDE8F08DC1F3ED
:1008F0000A52C1F3130141F480154FF0000BD107E8
:1009000002D100186D41521E0027044640F2FF112B
:10091000384601EB620A3E468046024600204FF40C
:100920008011FFF7F8FEC2197141BB1846EB0100B8
:10093000B4EB030C75EB000C04D3E41A65EB000573
:1009400017460E46241908F101006D4180463428EF
:10095000E3DDF91946EB0600091BA84103D24FF06D
:10096000FF32134601E0002213461BEB070046EB63
:100970000A51BDE8F04DFFF727BF00002DE9F04711
:10098000894600210D460C466FF02B0CDFF820A1A4
:10099000089E37E0002701E0491C7F1CB14204D2C9
:1009A00013F80180B8F1200FF6D0B1422CD0A6EB9D
:1009B0000108B8F1020F04D313F80180B8F10D0F4C
:1009C00002D013F8018003E003EB010898F80180DE
:1009D000B8F10A0F15D067B95F5C3D2F0CD07F2F9F
:1009E00007D800BF1AF807707F2F02D0402F07D218
:1009F00034B16046BDE8F087641C022CF9D8F1E7F9
:100A00006D1C491CB142C5D3A5B1EE0806EB4606E4
:100A1000770005F0070505EB4506072505EB4605BC
:100A200007EBD5052C1B08B1A14505D26FF02900B5
:100A30001460DFE7002038E0032600252F46044637
:100A400030E000BF93F800C0BCF10D0F28D0BCF11E
:100A50000A0F25D0BCF1200F22D01AF80CC0BCF12F
:100A6000400F0AD04FF0000865F39F1C7F1CA6EBD7
:100A700008066546042F03D012E04FF00108F3E7A3
:100A800000276EB14FEA154C04F801CB012E07D9AF
:100A90004FEA152C04F801CB022E01D904F8015BB2
:100AA000491E5B1C0029CDD1201A10600020A1E74F
:100AB000BE7E00082DE9F04F0025099EAB46AEB181
:100AC0000327B6FBF7FCB6FBF7F407FB1C6CBCF185
:100AD000000F01D04FF0010C64446FF0290CB4F109
:100AE000804F06D34FF0FF3010600FE0C2F800B027
:100AF00064E0A400641CA14207D330B1B6FBF7F157
:100B000001EB410A04462F492AE014606046BDE823
:100B1000F08F00BF13F801CBED1C13F8019B4FEAD7
:100B20009C084FEA0C1C0CEB291C13F8017B11F8F4
:100B300008800CF03F0C04F8018B11F80CC004F88D
:100B400001CB4FEA890C0CEBA71C0CF03F0C07F013
:100B50003F0711F80CC004F802CBCF5D04F8017C0C
:100B60005545D7D3B54224D213F801CB3D276D1C90
:100B7000B54201D21B7801E04FF000034FEA9C051B
:100B80004D5D04F8015B4FEA0C1505EB231505F0EC
:100B90003F054D5D04F8015B07D24FF03C0505EAC7
:100BA0008303C95C04F8011B01E004F8017B04F82D
:100BB000017BA4EB0000106084F800B04FF000004F
:100BC000A5E700007E7E0008FEE70000014800F077
:100BD0004DBA0000D0020020014800F047BA0000E2
:100BE00010020020014800F041BA0000700200200D
:100BF00001681823CAB2103AB2FBF3F2054B6FF347
:100C00000901032A9B5CC36500D9091D816508465B
:100C1000704700001672000810B5014600208B696D
:100C20008A6A4FF0C07453B1B3F5005F15D072B14A
:100C3000012A0CD0022A0AD0032A09D104E01AB1F1
:100C4000012A06D0022A03D1C96AC90100D50120B0
:100C500010BDC96AA142FAD010BD002AF7D0012AFE
:100C6000F2D0022AF3D0032AF3D010BD30B50468C5
:100C7000256825F480252560046863608368402B1F
:100C8000036803D099600068C26030BD9A60006854
:100C9000C16030BD3EB5094C94F83D50242DFBD0C9
:100CA000CDE900320A4640F6FF7401460294012362
:100CB000024800F0B5FD00203EBD0000CC00002041
:100CC0003EB5094C94F83D50242DFBD0CDE90032BF
:100CD0000A4640F6FF74014602940123024800F0E0
:100CE000A1FE00203EBD0000CC00002070470000A7
:100CF00010B580210348FFF7B5FA034900200880AA
:100D000010BD0000400300208200002010B5044602
:100D100000F03EF958B90AA10B48FFF7BAFA30B112
:100D20003A21FFF7C8FA002800D0401C10BD05206A
:100D300000F00EFB2046641EA4B2E9D210BD0000F4
:100D40004950442C000000004003002010B5FFF77C
:100D5000CFFF25A003F0A2FA4FF47A7402E02046F8
:100D600000F0F6FA22A123A000F0CAF80028F6D17C
:100D700022A003F093FA02E0204600F0E9FA1CA159
:100D800022A000F0BDF80028F6D124A003F086FAD6
:100D900002E0204600F0DCFA15A124A000F0B0F833
:100DA0000028F6D125A003F079FA02E0204600F0F1
:100DB000CFFA26A127A000F0A3F80028F6D12DA095
:100DC00003F06CFA31A003F069FA02E0204600F06B
:100DD000BFFA35A136A000F093F80028F6D1BDE89F
:100DE00010403FA003F05ABA312E2041540D0A00A2
:100DF0004F4B000041540D0A00000000322E4154B8
:100E00002B43574D4F44450D0A00000041542B43DE
:100E1000574D4F44453D310D0A000000332E20410F
:100E2000542B4357444843500D0A000041542B4370
:100E300057444843503D312C310D0A00342E204197
:100E4000542B43574A41500D0A000000474F54208D
:100E50004950000041542B43574A41503D225357BB
:100E60004A5455222C227779733534353134220D8A
:100E70000A000000352E20455350383236362049BE
:100E80006E6974204F4B0D0A00000000436F6E6EB8
:100E9000656374204D5154547320536572766572A6
:100EA0002E2E2E0D0A000000434F4E4E4543540097
:100EB00041542B43495053544152543D22544350C2
:100EC000222C226D717474732E6865636C6F756467
:100ED000732E636F6D222C313838330D0A000000F9
:100EE000436F6E6E656374204D5154542053657288
:100EF00076657220537563636573730D0A00000095
:100F000070B50E460546C824FFF7DFF982B22946C0
:100F10000B4803F0B6F90EE000F03AF840B931465C
:100F20000848FFF7B6F918B1FFF7E2FE002070BDE0
:100F30000A2000F00DFA641EE4B2EDD2012070BD6B
:100F4000800100204003002030B589B00C460546E2
:100F5000FFF7CEFE224608A1684603F0C7F90AA1B2
:100F60006846FFF7CDFF002804D1224629460748EE
:100F700003F087F909B030BD41542B434950534524
:100F80004E443D25640D0A003E0000008001002013
:100F90000648018831B14288914205D10021018083
:100FA00008467047012070474180FBE7820000201F
:100FB00072B6FEE72DE9F0410446876D00F0D0FAE5
:100FC000064694F835000025022806D0802060658A
:100FD00084F834500120BDE8F0812068016821F0D8
:100FE000160101602068416921F080014161206C97
:100FF00008B9A06C20B12068016821F008010160E7
:101000002068016821F0010101600CE000F0A8FAFD
:10101000801B052807D920206065032084F835004F
:1010200084F83450D7E720680068C007EED194F800
:101030005C103F208840B860012084F8350084F8B7
:1010400034500020C7E790F83510022903D08021E2
:10105000416501207047052180F83510006801685E
:1010600021F0010101600020704700002DE9F843E4
:1010700004464FF00009CDF8009063484FF4165134
:10108000A56D0068B0FBF1F72E6894F85C1008209D
:1010900000FA01F131420FD021680A6852070BD5DE
:1010A0000A6822F004020A6094F85C108840A86084
:1010B000606D40F00100606594F85C104FF001082D
:1010C00008FA01F0304208D021684969090604D5C0
:1010D000A860606D40F00200606594F85C10042028
:1010E0008840304208D021680968890704D5A86083
:1010F000606D40F00400606594F85C10102088403A
:10110000304218D021680968090714D5A860206802
:101110000168490304D50068000308D5A16C07E005
:101120000168C90503D4016821F008010160216C40
:1011300009B12046884794F85C102020884030424E
:1011400031D021680968C9062DD5A86094F835000A
:1011500005282068016806D0490347D500680003C8
:101160001DD4616C1CE021F016010160206841690A
:1011700021F080014161206C08B9A06C20B1206889
:10118000016821F00801016094F85C103F2088405C
:10119000A86084F8358084F83490216D1FE0E16BFD
:1011A00009B120468847606D00282BD0606DC007CC
:1011B00014D0052084F835002068016821F0010171
:1011C00001600098401C0090B84203D82068006875
:1011D000C007F6D184F8358084F83490E16C00299A
:1011E00010D001B02046BDE8F04308470168C905AA
:1011F000D5D4016821F01001016084F8358084F8AD
:101200003490CCE7BDE8F883480000202DE9F04198
:10121000044600F0A5F906465CB1022084F83500CA
:10122000002584F834502068016821F00101016034
:101230000DE00120BDE8F08100F092F9801B052847
:1012400005D920206065032084F83500F2E7206886
:101250000068C007F0D12268116820480140D4E935
:1012600001031843D4E90336334318436369184331
:10127000A3691843E3691843236A18430843616A62
:10128000042903D1D4E90B131943084310602068E3
:101290004069666A20F0070130460E4301270428A2
:1012A0000CD1A06A0643E06A40B12046FFF7B4FCC7
:1012B00020B14020606584F83570BAE72068466147
:1012C0002046FFF795FC94F85C203F219140816017
:1012D000656584F835700020ACE700003F8010F0B1
:1012E0002DE9F0410446866D90F834000025012870
:1012F0000DD0012084F8340094F835700020012FBF
:1013000007D084F8340002252846BDE8F081022089
:10131000FBE7022784F8357060652046FFF7A6FCDE
:1013200094F85C103F208840B0602068016841F06C
:1013300016010160206C20B12068016841F00801AD
:1013400001602068016841F001010160DCE70000F4
:1013500070B5044600F004F90546601C02D004484C
:101360000078044400F0FCF8401BA042FAD370BDA2
:101370003C0000202DE9F84FDFF8B8A1002201243D
:1013800003254FF00F090AF1040BAAF1040E00BF68
:101390000B6804FA02F63340B34273D10F7907F0B9
:1013A0000307012F01D0022F16D187684FEA4208A8
:1013B00005FA08FC27EA0C07D1F80CC00CFA08FC67
:1013C0004CEA070CC0F808C04768B7430E79C6F36B
:1013D000001696403E4346600E79F643B6070DD0A0
:1013E000C768560005FA06FC27EA0C07D1F808C0C2
:1013F0000CFA06FC4CEA070CC0F80CC00E7906F09B
:101400000306022E10D1D60800EB8608D8F820601B
:1014100057074FEAD76C09FA0CF7BE430F6907FA72
:101420000CF73743C8F8207006684FEA420C05FAFB
:101430000CF7BE430F7907F0030707FA0CF73743A1
:1014400007604E6816F4403F6DD03B4E376847F456
:1014500080473760366822F0030706F4804600961E
:10146000364E07EB060CDCF8086897073F0F09FAC1
:1014700007F826EA0806DFF8C880404503D14FF098
:1014800000081EE04FE0DFF8BC80404502D14FF07D
:10149000010816E0DFF8B080404502D14FF00208A5
:1014A0000FE0DFF8A880404502D14FF0030808E0C4
:1014B000DFF89C80404502D14FF0040801E04FF076
:1014C000070808FA07F848EA0608CCF80888DAF8A6
:1014D00000605746D1F804C09E435FEACC2C00D58B
:1014E0001E433E60DBF800605F46D1F804C09E43B7
:1014F0005FEA8C2C00D51E433E60DEF80060774624
:10150000D1F804C09E435FEA8C3C00D51E433E6088
:10151000084F083F3E68D1F804C09E435FEACC3CC8
:1015200000D51E433E60521C102AFFF431AFBDE8C7
:10153000F88F0000083C0140443802400030014070
:10154000000002400004024000080240000C02407B
:10155000001002400AB1816170470904FBE70000F6
:1015600001488068704700003C00002070B504000E
:1015700025D094F83D00002520B984F83C50204641
:1015800000F0E8FA242084F83D002068016821F08A
:10159000010101602068016841F400410160206898
:1015A000016821F40041016000F0A0FC4D4A61682F
:1015B000914201D84C4900E04C49884201D20120B7
:1015C00070BD4B492368B0FBF1F15E6826F03F0621
:1015D0000E435E606368934206D94FF49673594395
:1015E0004FF47A73B1FBF3F12368491C1E6A26F0AD
:1015F0003F06314319626168914210D84900401E8C
:10160000B0FBF1F2521CC2F30B02042A01D20420F7
:1016100022E0B0FBF1F0401CC0F30B001CE0A2681C
:10162000F2B301EBC10303EB0116431EB3FBF6F368
:101630005B1C43F480431B0549D092B301EBC1020C
:1016400002EB0111401EB0FBF1F0401CC0F30B0097
:1016500040F4804040F400402168CA694CF6FF73B2
:101660009A431043C861D4E9071001432068026817
:1016700022F0C00211430160D4E903010143206854
:10168000826848F2FF339A4311438160D4E905012F
:1016900008432168CA6822F0FF021043C86001E0D5
:1016A0000EE016E02068016841F001010160256448
:1016B000202084F83D00256384F83E50002070BD52
:1016C00001EB4106431EB3FBF6F35B1CB3E70120BD
:1016D000C2E701EB4101401EB0FBF1F0401CC0F33A
:1016E0000B00B7E7A086010080841E0000093D00C2
:1016F00040420F002DE9F84F1F4690468A460446A7
:10170000DDF82890FFF72CFF054694F83D002028CF
:101710007FD11923012240492046009501F04CFA5F
:10172000002876D194F83C00012872D0012084F87A
:101730003C0020680168C90703D1016841F001013C
:1017400001602068016821F400610160212084F8B3
:101750003D00102084F83E0000262664C4F8248052
:101760006785608D20852D48E0622B464A465146AC
:10177000204601F0D5F890B9206841698069009051
:1017800036E02A464946204601F0F4FA50B1206C72
:10179000042804D12068016841F40071016001202F
:1017A000BDE8F88F606A216800780861606A401CB3
:1017B0006062618D491E6185218D491E89B2218536
:1017C00022685369DB435B070BD451B10078106189
:1017D000606A401C6062608D401E6085208D401EE6
:1017E00020852A464946204601F0BAF90028CED184
:1017F000208D0028C5D154F83D0B016841F40071DB
:101800000160202004F81E09E67766770020C7E70C
:10181000FFE70220C4E70000020010000000FFFF05
:101820002DE9FF4F83B09A46DDE9118793460446C0
:10183000DDF84090FFF794FE054694F83D0020281F
:1018400070D11923012274492046009501F0B4F9A2
:101850000028F5D194F83C00012863D0012084F8D9
:101860003C0020680168C90703D1016841F001010B
:1018700001602068016821F400610160222084F881
:101880003D00402084F83E0000262664C4F82490E1
:10189000A4F82A80608D20856048E062CDE900755B
:1018A00053465A462046049901F088F8002879D119
:1018B000208DD0B1012821D00228206824D0416990
:1018C00080690090208D032866D801282BD05449C8
:1018D00002283B464FF00002009557D0884620462C
:1018E00001F06AF900285DD13AE020684169816918
:1018F0000091016841F4007101607DE02068016899
:1019000021F480610160F0E7016821F480610160E9
:101910002068016841F400610160206841698069C4
:10192000009069E075E02A463946204601F0EAF960
:1019300088BB54E02068016841F4007101602068B0
:101940000069616A0870606A401C6062218D491EEE
:101950002185618D491E618521680969017042E018
:101960002068016821F48061016020680069616A73
:101970000870606A401C6062208D401E2085608D6A
:10198000401E60853B46002241460095204601F0FE
:1019900013F900B9CEE705E02A463946204601F0A2
:1019A000B1F918B1012007B0BDE8F08F20680069D7
:1019B000616A0870606A401C6062208D401E81B2BE
:1019C0002185608D401E608520684269D2435207A0
:1019D00012D4032903D1016821F4806101602068D9
:1019E0000069616A0870606A401C6062208D401E58
:1019F0002085608D401E6085208D00287FF462AFB9
:101A0000202084F83D0084F83E6084F83C6000208B
:101A1000C9E70220C7E70000020010000000FFFF36
:101A2000040001002DE9FF4F83B09A46DDE91197CC
:101A300093460446DDF84080FFF792FD054694F892
:101A40003D0020287FD119230122404920460095DE
:101A500001F0B2F8002876D194F83C00012872D049
:101A6000012084F83C0020680168C90703D101689F
:101A700041F0010101602068016821F4006101600A
:101A8000212084F83D00402084F83E000026266492
:101A9000C4F82480A4F82A90608D20852C48E06248
:101AA000CDE9007553465A462046049901F004F8E2
:101AB00070B930E02A463946204601F05BF958B14A
:101AC000206C042804D12068016841F40071016091
:101AD000012007B0BDE8F08F606A216800780861D6
:101AE000606A401C6062218D491E89B22185628D29
:101AF000521E628522685369DB435B070BD469B1D0
:101B000000781061606A401C6062208D401E208554
:101B1000608D401E6085208D0028CBD12A46394635
:101B2000204601F01DF80028CAD154F83D0B016889
:101B300041F400710160202004F81E09E677667701
:101B40000020C6E7FFE70220C3E700000200100004
:101B50000000FFFF2DE9F04186B0044614216846DD
:101B6000FEF780FB23682A4CDFF8A0C00025284937
:101B700012260327042227481034634518D10B6826
:101B800043F002030B600968029501F00201059120
:101B9000C021CDE90016CDE903726946FFF7EAFBE3
:101BA000206840F400102060206800F4001028E055
:101BB000DFF864C0634525D10B6843F002030B6076
:101BC0000968029501F0020105914FF48061CDE9A9
:101BD0000016CDE9037269468046FFF7CBFB08206B
:101BE000CDE9000602950920CDE90370694640461B
:101BF000FFF7C0FB206840F480002060206800F4FC
:101C00008000059006B0BDE8F0810000005400405F
:101C100030380240000402400058004070B5040013
:101C200011D021684CF6CC400860216845F255502F
:101C30000860D4E9000141602168A0688860FFF76E
:101C40008FFC05460DE0012070BD00BFFFF788FC4A
:101C5000401B312805D92068C068800701D00320C7
:101C600070BD2068C0688007F0D121684AF6AA20BC
:101C70000860002070BD00684AF6AA2101600020BB
:101C80007047000002488168027811448160704703
:101C90003C0000200B4810B5016841F40071016060
:101CA000016841F480610160016841F48071016064
:101CB000032000F06FF80F2000F006F800F024F881
:101CC000002010BD003C024070B50D4D04464FF49D
:101CD0007A712878B1FBF0F00A490968B1FBF0F09D
:101CE00000F00CFB48B9102C07D200222146501EF0
:101CF00000F030F800206C6070BD012070BD000065
:101D00003C000020480000200A4808B5016841F462
:101D100080410160006800F4804000900548001F89
:101D2000016841F080510160006800F0805000902F
:101D300008BD000044380240002809DB00F01F0203
:101D4000012191404009800000F1E020C0F800111D
:101D500070470000F0B40E4B1B680C46C3F302231F
:101D6000C3F10705042D00D90425191D072901D247
:101D7000002300E0DB1E012606FA05F1491E214082
:101D800099409E40761E16403143F0BC02F0DABA0C
:101D90000CED00E0064900F0070208684FF6FF036B
:101DA000184040EA0220034A1043086070470000D0
:101DB0000CED00E00000FA052DE9F0470E460500A5
:101DC00065D0DFF81481D8F80000F7B200F0070002
:101DD000B04207D288F80070D8F8000000F0070081
:101DE000B04254D128683D4C810712D5400703D535
:101DF000206840F4E05020602878000703D5206870
:101E000040F4604020602068A96820F0F00008439A
:101E100020602878C0072DD030496868083901282B
:101E200012D0022813D0032811D00968890700298D
:101E30002DDA216821F0030101432160FFF790FBB7
:101E4000814641F2883A0EE009688903EFE70968A4
:101E50008901ECE7FFF784FBA0EB0901514502D9AA
:101E60000320BDE8F0872068696800F00C00B0EB43
:101E7000810FEFD1D8F80010404601F00701B142C0
:101E800007D90770006800F00700B04201D00120B8
:101E9000E7E72878400705D52068E96820F4E05096
:101EA000084320602878000706D52068296920F4B7
:101EB000604040EAC100206000F038F82168084A1C
:101EC000C1F30311515CC840064908600648006828
:101ED000FFF7FAFE0020C4E7003C02400838024049
:101EE0001E720008480000204000002004480549F8
:101EF00000680968044AC1F38221515CC8407047F8
:101F000048000020083802402E72000804480549A5
:101F100000680968044AC1F34231515CC840704707
:101F200048000020083802402E720008154810B5FD
:101F3000006810F00C02144813D01449042A0FD082
:101F4000082A0ED10F4C241F2268236802F03F029A
:101F50005B0207D52068C0F38810A0FB010106E0F2
:101F6000084610BD2168C1F38811A1FB00010023C0
:101F7000FEF72EF92168C1F30141491C4900B0FB6D
:101F8000F1F010BD083802400024F40040787D01D3
:101F90002DE9F84F04006ED02078DFF84C93C0078D
:101FA000A9F104054AD009F104000168C1F38101D7
:101FB000012908D00068C0F3810002280AD1D9F8AD
:101FC0000000400206D52868800337D560680028E5
:101FD000E1D033E06068B0F5803F10D0B0F5A02FBD
:101FE000286810D020F480302860286820F48020F1
:101FF00028606068A8B1FFF7B3FA06460DE02868CC
:1020000040F48030F4E740F480202860F7E700BF18
:10201000FFF7A6FA801B642873D828688003F7D5D9
:102020000CE0FFF79DFA064605E000BFFFF798FABF
:10203000801B6428F0D828688003F7D42078DFF864
:10204000AC8280074FF0000A3ED5A748001D01680A
:1020500011F00C0F08D00068C0F3810002280BD1EA
:10206000D9F80000400207D42868800716D5E06838
:10207000012800D112E033E1E068B8B10120C8F8CE
:102080000000FFF76DFA064605E000BFFFF768FAAB
:10209000801B0228C0D828688007F7D528682169E6
:1020A00020F0F80040EAC10028600DE0C8F800A068
:1020B000FFF756FA064604E0FFF752FA801B0228A3
:1020C0001FD828688007F7D42078000722D5864FCC
:1020D00087486169703771B101210160FFF740FAEB
:1020E000064604E0FFF73CFA801B022809D838684E
:1020F0008007F7D50EE0C0F800A0FFF731FA0646DA
:1021000005E082E0FFF72CFA801B02287DD83868B2
:102110008007F7D42078400768D5DFF8CCB10027D6
:102120000BF13C0BDBF80000C0000BD4DBF8001017
:1021300041F08051CBF80010DBF80000012700F0DF
:10214000805000906B4E3068C00510D4306840F469
:1021500080703060FFF704FA009005E0FFF700FAA6
:102160000099401A022850D83068C005F6D55E4E56
:10217000A0686C3601280FD00528306810D020F0F8
:1021800001003060306820F004003060A068B8B111
:10219000FFF7E6F900900FE0306840F00100F4E747
:1021A00040F004003060F7E7FFF7DAF90099411AD0
:1021B00041F28830814266D830688007F4D50EE05D
:1021C000FFF7CEF9009007E0FFF7CAF90099411A2E
:1021D00041F28830814256D830688007F4D42FB15C
:1021E000DBF8001021F08051CBF80010A069C8B3D3
:1021F0003D49091D0968C1F3810102294AD002281D
:10220000504607D0C8F8600000E03CE0FFF7A8F9AE
:1022100004463BE04746C8F86000FFF7A1F90646D0
:1022200005E000BFFFF79CF9801B02282BD8286827
:102230008001F7D4D4E907010843A16A2E4A49086E
:1022400002EB0141626A41EA8211084394F82C10C2
:1022500040EA0161C9F8001001203866FFF780F9F3
:10226000044606E03EE000BFFFF77AF9001B0228B3
:1022700009D828688001F7D534E000BFFFF770F96E
:10228000001B022802D90320BDE8F88F28688001CE
:10229000F4D427E00128F7D0D9F80000E26900F46F
:1022A000800191421CD1226A00F03F01914217D176
:1022B00047F6C071626A0140B1EB821F10D1A26A79
:1022C0004FF0FF3300F4403103EB5202B1EB024F09
:1022D00006D194F82C1000F07060B0EB016F01D0C3
:1022E0000120D1E70020CFE7043802400000474238
:1022F000800E4742007000400000FFFF10B5401EF6
:10230000B0F1807F01D3012010BD4FF0E024606167
:102310000F21601702F016F80020A061072020614D
:10232000002010BD7047704710F8411F40780843E7
:1023300070470000F8B5016804460868CA684B6930
:1023400010F00F0F4FF0000559D003F0010602F412
:102350009077374365D0C10705D0D10503D5616CAF
:1023600041F001016164410705D5D90703D0616CD3
:1023700041F002016164810705D5D90703D0616C82
:1023800041F004016164010707D502F020013143E7
:1023900003D0616C41F008016164616C00293AD09E
:1023A000800604D5900602D5204601F021FE206863
:1023B0004069616CC0F38010090700D460B3204607
:1023C00001F0E1FD20684069400621D52068143005
:1023D00050E8001F21F0400140E80012002AF5D12A
:1023E000E06BA8B16E490165E06BFEF72CFE00289A
:1023F00011D0E06B016D01B0BDE8F04008478306E5
:102400000FD593060DD52046BDE8F84001F0F0BD8C
:102410002046FFF788FFF8BD2046FFF784FF65647C
:10242000F8BD266B2023012E7DD1C6067BD5D606AE
:1024300079D508684868009048694FF00206400660
:1024400041D5E16B086840680004000CE8D0A28D1B
:102450008242E5D9E085C869B0F5807F2DD020683B
:102460000C3050E8001F21F4807140E80012002A6F
:10247000F5D12068143050E8001F21F0010140E838
:102480000012002AF5D12068143050E8001F21F016
:10249000400140E80012002AF5D184F8423025635B
:1024A00020680C3050E8001F21F0100140E80012B5
:1024B000002AF5D1E06BFEF77DFD6663A08DE18D0E
:1024C000401A81B22AE0A08DE18D401A81B2E08DE0
:1024D0000028A5D00029A3D022680C3252E8000FB2
:1024E00020F4907042E80007002FF5D120681430E6
:1024F00050E8002F22F0010240E80027002FF5D11C
:1025000084F84230256320680C3050E8002F22F018
:10251000100240E80023002BF5D166632046FFF748
:1025200001FFF8BDFFE705062BD5150629D594F860
:1025300041002128F5D1A068B0F5805F01D1206964
:10254000B0B1206A411C2162216800784860E08CAB
:10255000401E0004000CE084E3D12068C16821F033
:102560008001C1602068C16841F04001C160D8E7C6
:10257000206A0088C0F308004860206A801C20623E
:10258000E5E74006CDD55006CBD5CA68204622F0F7
:102590004002CA6084F8413000F0A8F9C1E70000A9
:1025A000E13E000870B5040004D094F84100002515
:1025B00010B106E0012070BD84F84050204600F0C4
:1025C00023F8242084F841002068C16821F40051D8
:1025D000C160204601F06EFD2068016921F4904140
:1025E00001612068416921F02A0141612068C168C8
:1025F00041F40051C1606564202084F8410084F8F2
:1026000042006563002070BD2DE9F04786B00646A4
:1026100014216846FDF726FEDFF844C10222316826
:10262000504803230725DFF84081002497064FF028
:10263000400A4FF48069614550D14A491431D1F8BC
:1026400000C04CF0100CC1F800C0096801F0100186
:102650000591016841F0010101600068694600F0E0
:102660000100059058028DE81500CDE9033540467C
:10267000FEF780FE3E4D3D48B8462860C5E901742E
:10268000C5E903496C61AC61EC612C624F46284698
:102690006C62FEF7BBFD08B1FEF78AFCF563AE6322
:1026A000334D324860357830C5E903476C61AC6121
:1026B00085E801054FF40030C5E9074028466C6203
:1026C000FEF7A4FD08B1FEF773FCB56300221146C6
:1026D0002520AE63FFF73EFB25203CE0DFF894C0E9
:1026E00061453AD11F491031D1F800C04CF4003C8B
:1026F000C1F800C0096801F400310591016841F09A
:10270000010101600068694600F0010005900C209D
:102710008DE81500CDE903354046FEF72BFE144D3C
:102720001548C035C5E903496C61AC6185E8810491
:102730004FF48030C5E9074028466C62FEF766FD1D
:1027400008B1FEF735FCB563002211462620AE63C2
:10275000FFF700FB2620FFF7EFFA06B0BDE8F08791
:102760000010014030380240000002404064024046
:102770001002002000440040A060024090F8423067
:10278000202B01D00220704721B11AB1002303632E
:1027900001F016BD012070470A49884211D10A494B
:1027A0000888802801D3002008800848084B027858
:1027B00008881A54401C0880012204490148FFF788
:1027C000DDBF7047800100208200002081000020D2
:1027D000400300202DE9F843044690F84100984654
:1027E00016460D46202802D00220BDE8F88385B1A8
:1027F0007EB100206064212084F84100FEF7B0FE25
:10280000A6848146E684A0682027B0F5805F02D0C8
:1028100003E00120E9E7206910B12E4600250EE013
:1028200000260CE08021204601F0E5FCA8B9C6B1E5
:1028300016F8010B21684860E08C401EE084E08CB3
:102840004B464FF00002CDF800800028EAD14FF04F
:102850004001204601F0CFFC40B184F841700320D4
:10286000C3E735F8020BC0F30800E3E784F84170D2
:102870000020BAE770B5044690F84100202801D046
:10288000022070BD49B342B32162A284E2840020D9
:102890006064212384F84130A56B114BEB63A56B79
:1028A000104B2B64A56B104BEB64A36B186525686C
:1028B00013462A1DA06BFEF713FD21686FF0400040
:1028C00008602068143050E8001F41F0800140E8A3
:1028D0000012002AF5D1002070BD012070BD00005B
:1028E0003B3F00087D3F0008F13E000870477047FD
:1028F000FEE701684A69D24352050FD46FF4806243
:102900004A61002140F8301F20224273817302691E
:1029100042F00402026101730120704700207047F9
:10292000F8B50446C06A1E460D461746082807D06B
:10293000012805D010F5803F02D0206B122804D169
:102940002068016841F480710160134600224FF055
:1029500001112046009600F02FF940B12068006870
:10296000C00502D54FF4007020640320F8BD206933
:10297000B0F5804F0ED00620216800EAD51040F057
:10298000F000086133463A460B49204600F05CF9F6
:1029900078B902E005F0FE0000E0E8B221680861C5
:1029A000054933463A46891F204600F04DF9002874
:1029B000DCD00120F8BD0000080001002DE9F84F2F
:1029C0000446006889460B9D01689846174641F405
:1029D000806101602068016841F4807101600095A8
:1029E0004FF0011B0022594620460A9B00F0E4F8F4
:1029F0004FF4007A40B120680068C00501D5C4F8E2
:102A000040A00320BDE8F88F216809F0FE000861AE
:102A10002B46284920460A9A00F016F9F0BB206898
:102A20004169806900902A4620460A9900F0A2F97F
:102A300040B1206C04283AD12068016841F400714B
:102A4000016034E0FEB2B8F1010F09D02168380A04
:102A500008612A4620460A9900F08CF90028E8D13E
:102A6000206806612A4620460A9900F083F900286A
:102A7000DFD12068016841F4807101600095002277
:102A8000594620460A9B00F097F80028B3D12168E8
:102A900009F0FF0040F00100086100E007E02B466C
:102AA000044920460A9A00F0CFF80028AAD0012055
:102AB000A8E70000020001002DE9F8430446006881
:102AC0000D46DDE9089701689846164641F4807185
:102AD00001604B4600224FF001112046009700F0A4
:102AE0006BF848B120680068C00502D54FF400704B
:102AF00020640320BDE8F883216805F0FE0008612A
:102B00003B464A461549204600F09EF888B92068A1
:102B10004169806900903A464946204600F02AF90A
:102B200048B1206C042804D12068016841F4007188
:102B300001600120DEE7F5B2B8F1010F09D021688C
:102B4000300A08613A464946204600F013F9002849
:102B5000E7D1206805610020CCE7000002000100F9
:102B600070B516460D4604461EE02046FFF7C1FE2E
:102B700008B1012070BD681C16D0FEF7F1FC801B67
:102B8000A84200D885B920684069C04340070BD5EA
:102B9000002044F8300F20216173A073216941F0B7
:102BA000200121612073E4E720684069C0434007A9
:102BB000DBD4002070BD00002DE9F0479846174691
:102BC0000D460446C1F30746DDF820902AE000BF19
:102BD000B8F1FF3F26D0FEF7C3FCA0EB0901414549
:102BE00002D8B8F1000F1DD12068012E16D08069DF
:102BF00025EA00000004000C12D00020B84211D1D8
:102C0000002044F8300F20216173A073216941F046
:102C10002001216120730120BDE8F0874069E7E7CA
:102C20000120EBE72068012E0AD0806925EA000028
:102C30000004000C06D00020B842C9D00020EBE709
:102C40004069F3E70120F7E72DE9F047984616467B
:102C50000D4604464FF000094FF0200AC1F3074724
:102C600023E020684069C043400515D4206801680E
:102C700041F40071016021686FF480604861C4F81C
:102C8000309084F83DA084F83E90216C41F004011E
:102C9000216484F83C9021E0701C06D0FEF760FCB3
:102CA000A0EB0800B04203D816B1012F1FD021E0DD
:102CB0002068012F15D0806925EA00000004000C6F
:102CC00018D000BF44F8309F84F80DA084F80E900F
:102CD000216941F02001216184F80C900120BDE8B8
:102CE000F087406925EA00000004000CEAD1206862
:102CF000406901E02068806925EA00000004000CBA
:102D0000AFD1ECE72DE9F041002590460E46044690
:102D1000202728E04069C043C0060CD454F8301B7B
:102D20006FF01000486144F810596777A577206A62
:102D30002062257714E0FEF713FCA0EB0800B042F8
:102D400000D886B920684069C04340060BD544F8D6
:102D5000305F6773A573206940F020002061257300
:102D60000120BDE8F08120684169C9434906D1D4FA
:102D70000020F6E770B516460D4604461EE02046D4
:102D8000FFF7B7FD08B1012070BD681C16D0FEF733
:102D9000E7FB801BA84200D885B920684069C04382
:102DA00000060BD5002044F8300F20216173A0737A
:102DB000216941F0200121612073E4E72068406926
:102DC000C0430006DBD4002070BD10B580216B200D
:102DD00000F086F86420FEF7BBFA00216B2000F0BB
:102DE0007FF8032000F047F8002000F03FF8322081
:102DF00000F05EF80021382000F072F800216A200F
:102E000000F06EF80021232000F06AF880213720BE
:102E100000F066F8752000F00DF801216B2000F03D
:102E20005FF800216C2000F05BF8322000F040F8E1
:102E3000002010BD1FB500218DF80C100A4900BFFD
:102E400091F83D20242AFBD040F6FF73012203A90C
:102E50008DE80E0013460246D1210348FEF7E0FC40
:102E60009DF80C0004B010BDCC000020C006010E7F
:102E70001C2000F035B8C006010E1B2000F030B851
:102E8000BC2801D3012110E0622801D302210CE00B
:102E90002A2801D3032108E0142801D3042104E0E7
:102EA0000A2801D3052100E006211A2000F018B8F5
:102EB00010B504464FF47A70844201D9044602E00A
:102EC000042C00D20424B0FBF4F0401EC1B219203F
:102ED00000F006F86008BDE81040FFF7D1BF000021
:102EE0001FB58DF80C100A4991F83D20242AFBD01B
:102EF00040F6FF73012203A98DE80E001346024637
:102F0000D0210348FEF78EFD04B0002010BD000064
:102F1000CC00002010B50446007B012802D12068B7
:102F200002F06AFF002020606060A060207310BD86
:102F30005FF0010200F07F030B70C00909D043F07D
:102F40008003521C01F8013B042AF3DD4FF0FF30EF
:102F50007047104670472DE9F0410446002500688F
:102F60000F462E4610B10220207315E00120207379
:102F7000084603F0E5F82060002808D0C4E901679E
:102F800002E0206846556D1CA068A842F9D8BDE84B
:102F9000F081206846556D1CA068A842F9D866608B
:102FA0008842F4D22660F2E72DE9FF5F9A46934605
:102FB00000251046DDF844900E9F139CFDF785F91F
:102FC00006B2BBF1000F1FD006F111001FFA80F806
:102FD00007B10225109868B145F00405FDF775F9B1
:102FE000C7B24846FDF771F9C11901EB0800001D91
:102FF0001FFA80F80F9870B1012807D0022808D076
:10300000022004B0BDE8F09F0120FAE745F00C056E
:1030100001E045F01405129808B145F02405009828
:1030200060B3019850B345F0C0070098FDF74DF923
:1030300005460198FDF749F9291801EB0800001D24
:1030400085B229462046FFF786FF2068C0B1294691
:10305000FDF708F9D4E90030411C102261601A54D0
:10306000D4E900010144681FFFF762FF00B20028A5
:1030700008DA2046FFF74EFF0520C2E70320C0E72D
:103080000420BEE7616823680844411C6160002297
:103090001A54D4E90030421C042162601954D4E966
:1030A0000050421C4D2362602B54D4E90050421C56
:1030B000626051232B54D4E90030451C54226560D2
:1030C0001A54D4E90050431C63602A54D4E90030F8
:1030D000421C62601954D4E90020411C61601754FD
:1030E000D4E90030411C4FEA1A2261601A54D4E935
:1030F0000030421C626003F800A0D4E90030411C9B
:10310000320A61601A54D4E90020411C61601654EF
:10311000D4E90001084432465946FDF7EAF86068F0
:1031200030446060780736D5B9F1000F01D10FF255
:10313000D8091098FDF7C9F885B2D4E90030411CD0
:103140002A0A61601A54D4E90020411C61601554B8
:10315000D4E9000108442A461099FDF7CAF86068CE
:10316000284460604846FDF7B0F885B2D4E90030E5
:10317000411C2A0A61601A54D4E90020411C616094
:103180001554D4E9000108442A464946FDF7B1F830
:10319000606828446060380618D50098FDF795F8F7
:1031A00085B2D4E90030411C2A0A61601A54D4E97E
:1031B0000020411C61601554D4E9000108442A46EE
:1031C0000099FDF796F8606828446060780618D585
:1031D0000198FDF77AF885B2D4E90030411C2A0A3B
:1031E00061601A54D4E90020411C61601554D4E98F
:1031F000000108442A460199FDF77BF860682844DD
:1032000060600020FDE60000000000002DE9FF4F97
:1032100081B090464FF00006119C0F9A9A465FEAE3
:10322000000BB146314608D1012005B0BDE8F08F52
:10323000232816D02B2814D0761C0298805D0028F5
:10324000F6D141F030070AB147F0010706EB0A0555
:103250000E98AD1C68B1012805D0022806D00320C5
:10326000E3E70220E1E747F0020701E047F0040747
:10327000AD1CB8F1000F03D098F80000022807D069
:10328000691D2046FFF767FE206850B3691D14E0F2
:103290005FF0000018F80010401C7D29FAD100F101
:1032A0000409AAEB0900291A00912046C91CFFF75E
:1032B00052FE2068A8B10099C91CFCF7D3FFD4E9DD
:1032C0000020411C61601754D4E9000101442846E4
:1032D000FFF72EFE002806DA2046FFF71BFE05202A
:1032E000A3E70420A1E7616823680844411C320A6F
:1032F00061601A54D4E90020411C61601654D4E97D
:103300000001084432460299FCF7F3FF606830443C
:1033100060600E9959B12368411C4FEA1B2261601D
:103320001A54D4E90030421C626003F800B0B8F1CE
:10333000000F0ED098F800000228D4E900010844DC
:1033400009D052464146FCF774FF616801EB0A0060
:103350006060002069E74A464146FCF76AFF616801
:1033600001EB0900F4E7000030B591B01446149D5C
:10337000034600910AA2302104A800F09FFF01201B
:103380000021CDE90205CDE900010A46234604A942
:103390000A20FFF73BFF002800D0012011B030BD0C
:1033A000247379732F25732F25732F7468696E67C3
:1033B0002F70726F70657274792F706F7374000064
:1033C000F0B50446002001235D05106012E0275C83
:1033D000166807F07F0707FB03661660265C360653
:1033E00001D4401CF0BDDB01AB4202D36FF0010001
:1033F000F0BD401C8842EADB4FF0FF30F0BD417861
:10340000022901D001207047817819B1012901D02A
:10341000FF207047C078704738B504460078FF2118
:103420000009421E0E2A01D3084638BD0328FCD1EC
:10343000002000906A460421601CFFF7C1FF204471
:103440000099401C022907D32278D20704D10288B0
:1034500052BA921C8A4201D9FF2038BD04A1801CB7
:10346000FCF717FF08B10F2038BD032038BD00005E
:103470002463726571000000154808B5016841F4C5
:1034800000110160016801F400110091016841F42C
:10349000800101600068002200F480000090114665
:1034A0001120FEF757FC1120FEF746FC00221146C2
:1034B0003A20FEF74FFC3A20FEF73EFC0022114670
:1034C0004620FEF747FCBDE808404620FEF734BC26
:1034D000303802402DE9F04186B014216846FCF7EF
:1034E000C1FE23480024016841F004010160016825
:1034F00001F004010591016841F08001016001685B
:1035000001F080010591016841F00101016001684D
:1035100001F001010591016841F0020101600068BC
:10352000144F00F002004FF4005505900022294688
:103530003846FEF70FF8DFF840804FF4407600225F
:1035400031464046FEF706F800950125CDE90154C5
:10355000694638460394FDF70DFF0096CDE9015406
:10356000694640460394FDF705FF06B0BDE8F081CB
:103570003038024000080240000402400D4810B5F7
:103580000B4901600C49416000214FF48042816089
:10359000C0E9031241618161C1610162FDF7E6FF8B
:1035A000002803D0BDE81040FDF702BD10BD0000AB
:1035B00000540040CC000020A08601000D4810B54A
:1035C0000B4901600C49416000214FF48042816049
:1035D000C0E9031241618161C1610162FDF7C6FF6B
:1035E000002803D0BDE81040FDF7E2BC10BD00008C
:1035F0000058004020010020A0860100094810B5B5
:1036000007490160032141604FF47A618160FEF750
:1036100005FB002803D0BDE81040FDF7C9BC10BD74
:1036200000300040740100200C4810B50A490160C8
:103630004FF4E1314160002181600C22C160C0E99A
:1036400004128161C161FEF7ADFF002803D0BDE81F
:103650001040FDF7ADBC10BD0010014080010020FE
:103660000C4810B50A4901604FF416514160002121
:1036700081600C22C160C0E904128161C161FEF762
:1036800091FF002803D0BDE81040FDF791BC10BDAC
:1036900000440040C8010020FEE7FEE72DE9F043AA
:1036A0008BB005460024FCF710FEC6B21DB1002009
:1036B00069461C2E08D201200BB0BDE8F0832A5DBC
:1036C0000A552855641CE4B2B442F8D308550027C3
:1036D000814688463C4621E018F807002B2812D086
:1036E00008DC202812D0232827D0252822D02628FD
:1036F00006D125E02F2817D03D2824D03F2816D00A
:103700002855641C07E0281910A101E0281910A110
:10371000FCF7B3FDE41C7F1CE4B2FFB2B742DBD37D
:1037200005F804900020C7E728190AA1F0E7281936
:1037300009A1EDE7281909A1EAE7281908A1E7E797
:10374000281908A1E4E7281907A1E1E7253242007A
:10375000253230002532460025334600253235001B
:103760002532330025323600253344002DE9F04F51
:10377000C9B04FF0000ADDE954B8DDF848911F46A2
:1037800015460C460600CDF81CA109D044B13D48B1
:10379000854205D327B1539810B1BBF1780F03D2FE
:1037A000012049B0BDE8F08F402137A8FCF75AFD51
:1037B0003846FCF78AFD00903B4647AA402137A8CF
:1037C000FDF7DCF8482115A8FCF74CFDB8F1000F17
:1037D00009D02DA08DE851002B462DA2482115A817
:1037E00000F06CFD09E028A103968DE812022B463B
:1037F0002DA2482115A800F061FD402127A8FCF763
:1038000031FD15A8FCF761FD074637A8FCF75DFD03
:10381000014627A800903B4615AA37A802F030FBC6
:10382000402105A8CDF81CA1FCF71CFD27A8FCF73A
:103830004CFD009027AB47AA402105A8FDF73AF9B7
:1038400005A8FFF72BFF05A8B8F1000F0BD00EA1BC
:10385000CDE9021033461CA25946CDE900455398E4
:1038600000F02CFD0BE008A20295CDE90320CDE984
:1038700000493346224A5946539800F01FFD002064
:103880008FE700009554415D7368613100000000CE
:1038900025640A25730A70726F64756374732F252B
:1038A000730A25730000000025640A25730A7072EC
:1038B0006F64756374732F25732F64657669636510
:1038C000732F25730A25730076657273696F6E3DD9
:1038D0002573267265733D70726F6475637473250A
:1038E00025324625732665743D2564266D6574680A
:1038F0006F643D2573267369676E3D257300000074
:103900008080000830B5B3B000242E9406A92CA204
:103910002F943094A020CDE90021CDE902040125A7
:1039200028A33194334A34A136A0FFF71FFF06AB1A
:1039300031A223A136A000F0B1FC2EA8CDE90440AD
:103940000120CDE900040302029403941CA206A9FD
:1039500029A0FFF729FB28B139A000F09FFC33B064
:10396000284630BD2F9881B22E98FDF7EDFAFA2047
:10397000FDF7CCF904001DD0FFF74EFD022819D148
:103980002046FFF73CFD062818D2DFE800F00308C8
:103990000A0C0E1033A000F081FC00250AE036A0CE
:1039A00006E03CA004E044A002E04BA000E053A0ED
:1039B00000F074FC2EA8FFF7ADFAD0E75AA0F7E7A5
:1039C000677073006447353264334934576D67322A
:1039D0005A334A3157575A505456524561334674F8
:1039E0005A554A5759586858597A68524D6D303D62
:1039F0000000000000CF9D7434663839324E4D38D7
:103A00004B750000323031382D31302D333100000C
:103A10004F6E654E45545F4465764C696E6B0D0A7A
:103A20004E414D453A2025732C0950524F49443A96
:103A30002025732C094B45593A25730D0A000000C7
:103A40005741524E3A094D5154545F5061636B6572
:103A500074436F6E6E656374204661696C65640DB6
:103A60000A000000546970733A09C1ACBDD3B3C9F0
:103A7000B9A60D0A000000005741524E3A09C1ACE8
:103A8000BDD3CAA7B0DCA3BAD0ADD2E9B4EDCEF3B2
:103A90000D0A00005741524E3A09C1ACBDD3CAA726
:103AA000B0DCA3BAB7C7B7A8B5C4636C69656E7458
:103AB00069640D0A000000005741524E3A09C1AC3A
:103AC000BDD3CAA7B0DCA3BAB7FECEF1C6F7CAA76A
:103AD000B0DC0D0A000000005741524E3A09C1AC5B
:103AE000BDD3CAA7B0DCA3BAD3C3BBA7C3FBBBF289
:103AF000C3DCC2EBB4EDCEF30D0A00005741524EC9
:103B00003A09C1ACBDD3CAA7B0DCA3BAB7C7B7A83E
:103B1000C1B4BDD328B1C8C8E7746F6B656EB7C7B1
:103B2000B7A8290D0A0000004552523A09C1ACBDA0
:103B3000D3CAA7B0DCA3BACEB4D6AAB4EDCEF30DE7
:103B40000A00000010B58CB0044630216846FCF72E
:103B500089FB3EA12046FCF7E0FB30216846FCF7DC
:103B600081FB404840A10268684600F0BFFB6946FF
:103B70002046FCF782FB424842A10268684600F0FA
:103B8000B5FB69462046FCF778FB30216846FCF718
:103B900069FB424842A10268684600F0A7FB6946FB
:103BA0002046FCF76AFB30216846FCF75BFB434884
:103BB00043A10268684600F099FB69462046FCF77D
:103BC0005CFB30216846FCF74DFB444844A1026889
:103BD000684600F08BFB69462046FCF74EFB30211F
:103BE0006846FCF73FFB464846A10268684600F07D
:103BF0007DFB69462046FCF740FB30216846FCF718
:103C000031FB484848A10268684600F06FFB6946EE
:103C10002046FCF732FB30216846FCF723FB4A487C
:103C20004AA10268684600F061FB69462046FCF73D
:103C300024FB4EA12046FCF720FB4DA000F02EFBFC
:103C40002046FCF742FB0CB0C0B210BD7B22696479
:103C5000223A22313233222C22706172616D73223A
:103C60003A7B00000400002022626F6479223A7BD4
:103C70002276616C7565223A25647D2C0000000077
:103C80000C00002022626F64795F7A223A7B2276F0
:103C9000616C7565223A25647D2C000010000020BF
:103CA000226C6566746261636B30223A7B227661B6
:103CB0006C7565223A25647D2C00000020000020F0
:103CC0002272696768746261636B30223A7B227684
:103CD000616C7565223A25647D2C00001800002077
:103CE000226C656674666F727761726430223A7B0B
:103CF0002276616C7565223A25647D2C00000000F7
:103D00001C000020226C656674666F7277617264B5
:103D1000305F7A223A7B2276616C7565223A25649F
:103D20007D2C000028000020227269676874666F8D
:103D3000727761726430223A7B2276616C756522FB
:103D40003A25647D2C0000002C0000202272696757
:103D50006874666F7277617264305F7A223A7B2290
:103D600076616C7565223A25647D00007D7D0000DA
:103D700046696C6C20627566206F6B210D0A00002D
:103D800030B5C5B000204190429043900446449025
:103D90004FF4807101A8FCF765FA01A8FFF7D2FE85
:103DA00005000BD041A8009000232A4611A112A0C3
:103DB000FFF7DAFA70B113A000F070FA45B030BD29
:103DC000015DDDE94123D1544299491C641C24B2B0
:103DD000429100E001A8AC42F2DB429881B24198E6
:103DE000FDF7B2F80FA0429900F058FA41A8FFF78A
:103DF00091F8E3E76770730034663839324E4D3816
:103E00004B7500005741524E3A094544505F4E658C
:103E100077427566666572204661696C65640D0A55
:103E20000000000053656E642025642042797465AB
:103E3000730D0A0070477047FDF724BF30B593B08B
:103E400030216846FCF70EFA14210CA8FCF70AFA98
:103E50001D480024016841F080510160006800F0B5
:103E6000805011901948016841F440410160006898
:103E7000102100F4404011900A2000900120CDE96B
:103E800003010225CDE905050820CDE9074064209E
:103E9000CDE9090504200B906846FEF779F808B1D2
:103EA00072B6FEE70F20CDE90C054FF48050CDE946
:103EB0000E4003210CA81094FDF77EFF002801D0CE
:103EC00072B6FEE713B030BD4038024000700040CB
:103ED0000248016841F470010160704788ED00E01C
:103EE00010B5806B0021C185C184FEF71CFA10BD9E
:103EF00070B5846B2068406994F84110C0F3C0101D
:103F00000025212904D118B1E584204600F062F88B
:103F10002068406994F84210C0F38010222904D12F
:103F200018B1E585204600F02EF8606C40F01000D6
:103F300060642046FEF7F7F970BD10B50146806B4E
:103F400009680968C90516D40021C18401681431C3
:103F500051E8002F22F0800241E80023002BF5D128
:103F600001680C3151E8002F42F0400241E8002383
:103F7000002BF5D110BDFEF7B9FC10BD10B5806B5C
:103F8000FEF7B5FC10BD01680C3151E8002F22F49A
:103F9000907241E80023002BF5D10168143151E8FB
:103FA000002F22F0010241E80023002BF5D1016B24
:103FB000012909D101680C3151E8002F22F01002CB
:103FC00041E80023002BF5D1202180F84210002188
:103FD0000163704701680C3151E8002F22F0C002E4
:103FE00041E80023002BF5D1202180F841107047D3
:103FF00008B590F84210222901D0022008BD82683D
:104000004FF480539A4201D1016921B1816A9A42E9
:104010001BD04AB10AE00268816A5268C2F3080202
:104020000A80816A891C08E0026972B102685268DC
:1040300002F07F020A70816A491C8162C18D491EAB
:104040000904090CC18503D01BE002685268F1E73E
:104050000168CA6822F02002CA600168CA6822F4B6
:104060008072CA6001684A6922F001024A61202117
:1040700080F8421000214163026B012A03D0FEF751
:104080008BFB002008BD016301680C3151E8002F53
:1040900022F0100241E80023002BF5D101680A68E4
:1040A000D20602D50A6849680091818DFEF73AF977
:1040B000E7E7000070B5044600680169E26821F492
:1040C0004051114301612169A068E26908436169B7
:1040D000114308432168CA6849F20C639A430243BA
:1040E000CA6020684169A26921F4407111434161AD
:1040F00031492068884202D03049884202D1FDF718
:1041000005FF01E0FDF7F2FEE269002319216425B5
:104110003226B2F5004F626828D0A0FB0101930F50
:104120009200FCF755F80146B0FBF5F06FF018026D
:10413000504301EB800006EB0010B0FBF5F000F0FF
:10414000F002B1FBF5F002EB0012B1FBF5F06FF0FD
:104150001803584301EB800006EB0010B0FBF5F0AC
:1041600000F00F0021681044886070BDA0FB0101C1
:1041700092185B41FCF72CF80146B0FBF5F0020108
:10418000B1FBF5F06FF01803584301EB800006EB2C
:10419000C000B0FBF5F000F0F80002EB4002B1FB0C
:1041A000F5F0584301EB800006EBC000B0FBF5F0E2
:1041B00000F00700D6E700000010014000140140A5
:1041C00081628285C28500214164222180F84210EB
:1041D000016921B10168CA6842F48072CA6001684D
:1041E0004A6942F001024A610068C16841F0200159
:1041F000C160002070472DE9F843984617460D46E8
:104200000446089E24E0701C22D0FDF7A9F9A0EB1B
:104210000800B0421AD8CEB12068C168490717D546
:10422000802D15D0402D13D00168C94309070FD444
:1042300001680025406800902046FFF7A4FE082092
:10424000606484F840500120BDE8F8830320FBE758
:104250002068006835EA000004D00020B842D2D0BF
:104260000020F1E70120F9E70148FEF763B80000FC
:10427000800100200148FEF75DB80000C801002061
:10428000FEE710B504464FF6FF73FEF7A3FA20468B
:10429000FEF74AF82128FAD010BD00000FB4054BF4
:1042A00010B503A9044A029800F0FAFD10BC5DF8AD
:1042B00014FB0000E15D0008880000200FB41CB56D
:1042C0000246002007AC00290BD0491ECDE9002191
:1042D000054B6A462146069800F0E2FD009A00214F
:1042E00011701CBC5DF814FBCF5500080FB4084BCF
:1042F00010B504A902AA039800F0D2FD044602A951
:10430000002001F06FF9204610BC5DF814FB00009E
:10431000E555000803B401984100009850EAC12017
:1043200018BF04204A0D18BF40F0010040F2FF7290
:10433000B2EB515F08BF40F00200012808BF052022
:1043400002B070470907090E002804DB00F1E020E5
:1043500080F80014704700F00F0000F1E02080F8B2
:10436000141D70470000000070B5C1482DED020B10
:104370002DED0E8B82B0119D25F000449FEDBEDB2C
:104380009FEDBFEB84423EDBA4F140511098A1F1B8
:104390007F6108430FD0BC48844202DC28D11098CA
:1043A00030B39DED100B02B0BDEC0E8B02B0BDE83A
:1043B000704000F069BC9DED100B53EC1D2B51ECCF
:1043C000100BFCF75AF89DED100B41EC180B53EC59
:1043D0001E2B51EC100BFCF750F853EC182BFBF78D
:1043E000A5FF41EC100B02B0BDEC0E8B02B070BD0E
:1043F000012000F08DFC02B0BDEC0E8B02B0BDE8D8
:10440000704000F055BCA1489FEDA18B844256DA64
:104410009DED100BB4F1795F0ADA51EC100BFFF748
:1044200079FF042808BF00F053FC9DED100BDAE77C
:1044300053EC102B51EC100BFCF71FF841EC190B4F
:1044400095480621B0EE490AF0EE690A784400F07A
:104450009FFB53EC192B51EC100BFCF70EF841ECC1
:104460001A0B8E48B0EE490AF0EE690A042178442E
:1044700000F08EFB53EC192B51EC100BFBF7FDFFFA
:1044800053EC182BFBF752FF41EC100B51EC1A0BBD
:1044900053EC102BFCF763F8CDE900019DED000B08
:1044A00053EC102B9DED100B51EC100BFBF7E5FFBF
:1044B0009DED101B53EC112BFBF738FFD2E09DED67
:1044C000100B51EC100B01F07FFC53EC182BFBF799
:1044D000D1FF9FED730BCDE9000153EC102B9DED47
:1044E000000B51EC100BFBF7C8FF41EC190B6E48A9
:1044F0000621B0EE490AF0EE690A784400F048FB64
:1045000053EC192B51EC100BFBF7B7FF41EC1B0BD5
:104510006648B0EE490AF0EE690A0421784400F0DA
:1045200037FB53EC192B51EC100BFBF7A6FF53ECA8
:10453000182BFBF7FBFE41EC1C0B51EC190B02F0A6
:1045400033FE41EC180B5A489FED5BABA04222DCD6
:1045500053EC1C2B51EC1B0BFCF701F8CDE90001CF
:104560009DED000B51EC180B53EC102BFBF785FF66
:1045700053EC182BFBF7DAFE53EC1A2BFBF77DFFFD
:1045800053EC1D2BFBF773FF53EC1E2BFBF772FF55
:1045900041EC100B5FE08DED008B002000909DED55
:1045A000000B51EC180B53EC102BFBF7BFFE9DEDED
:1045B000000B41EC1E0B53EC102B51EC100BFBF7D6
:1045C0005CFF53EC192BFBF755FF53EC1E2BFBF74D
:1045D000C6FF41EC190B53EC1C2B51EC1B0BFBF7EA
:1045E000BEFF41EC1B0B53EC1A2B51EC190BFBF7E4
:1045F00044FF53EC1D2BFBF73DFF41EC190B53EC33
:104600001A2B51EC180BFBF738FF53EC1B2BFBF765
:1046100034FF53EC192BFBF72AFF9DED000B41EC07
:10462000180B53EC1A2B51EC100BFBF726FF9FEDE8
:10463000249B53EC192BFBF71DFF41EC100B51ECA5
:10464000180B53EC102BFBF712FF53EC192BFBF755
:1046500011FF41EC100B002D3FF7C5AE51EC100BD4
:1046600081F0004141EC100BBDE6000000000000AD
:104670000000F03F00000000075C143326A6913CC8
:10468000182D4454FB21F93F0000F07F0000E03F6B
:10469000000000000000F03FF03A0000FE3A000089
:1046A000000000000000E03F423A0000503A0000E5
:1046B0003333EF3F00000000000000000000004026
:1046C000182D4454FB21E93F70B59B482DED020B9A
:1046D0002DED068B079D25F00044A04218DC97487D
:1046E000844202DC0AD1069840B19DED060BBDEC78
:1046F000068B02B0BDE8704000F0C6BA002DCCBFFA
:104700009FED8F0B9FED900BBDEC068B02B070BD43
:104710008F48A04215DD8F48A042D8BF4FF0FF342C
:1047200058DD9DED060B51EC100BFFF7F3FD04284F
:1047300008BF00F0CDFA9DED060BBDEC068B02B074
:1047400070BD9DED060B51EC100B01F03DFBCDE96A
:10475000060181489FED828BA0423CDD8248A04249
:104760001FDD00249FED82AB9DED060B53EC1A2B51
:1047700051EC100BFBF7DAFD9DED060B41EC190B2C
:1047800053EC1A2B51EC100BFBF777FE53EC182B64
:10479000FBF76DFE53EC192BFBF7E1FECDE90601AB
:1047A00049E09DED060B012453EC182B51EC100B46
:1047B000FBF7BCFD9DED060B41EC190B53EC182BE0
:1047C00051EC100BFBF753FE53EC192BFBF7C7FE14
:1047D000CDE906012FE06848A0421FDD02249FEDCD
:1047E000689B9DED060B53EC192B51EC100BFBF75E
:1047F00044FE53EC182BFBF799FD9DED060B41ECA5
:10480000180B53EC192B51EC100BFBF730FE53EC4B
:10481000182BFBF7A4FECDE906010CE09DED060B7D
:10482000032453EC102B9FED580B51EC100BFBF7AE
:1048300096FECDE906019DED060B53EC102B51ECD5
:10484000100BFBF71AFE41EC180B53EC182BFBF77F
:1048500014FE41EC190B4E480621B0EE490AF0EE69
:10486000690A784400F094F953EC182B51EC100BC2
:10487000FBF703FE41EC180B4648B0EE490AF0EE98
:10488000690A0521784400F083F953EC192B51ECA7
:10489000100BFBF7F2FD41EC100B51EC180B53EC35
:1048A000102B002C0EDAFBF741FD9DED061B53EC9F
:1048B000112BFBF7E2FD9DED061B53EC112BFBF7D3
:1048C000D9FD35E0FBF732FD9DED061B53EC112BB6
:1048D000FBF7D3FD41EC100B2F48784400EBC400EC
:1048E00090ED001B51EC100B53EC112BFBF7BFFDAF
:1048F0009DED061B53EC112BFBF7B9FD41EC100BA2
:104900002648784400EBC40090ED001B51EC100BDE
:1049100053EC112BFBF7AEFD41EC100B002DA2BFA9
:10492000BDEC068B02B070BD51EC100B81F0004164
:1049300041EC100B01E70000000010440000F07F84
:10494000182D4454FB21F93F182D4454FB21F9BF85
:104950000000DC3F0000203E0000F33F00000000AC
:10496000000000000000F03F0000E63F00000000F3
:104970000000000000000040008003400000000034
:10498000000000000000F83F000000000000F0BF41
:104990009237000048370000D23600008A36000007
:1049A00070B56B4E2DED040B2DED028B82B0DDF852
:1049B0001CC0DDE905235C422CF000411C4341EAA8
:1049C000D474049D22F00040B44205D86C422C43BC
:1049D00040EAD474B4420BD99DED061B9DED040B47
:1049E00002B0BDEC028B04B0BDE8704000F056B9D7
:1049F000ACF14054A4F17F641C430BD0022404EAC0
:104A0000AC7444EAD27405439FED538B9FED542B55
:104A100007D015E09DED040B51EC100B00F0E7FD05
:104A200042E0002C11BF012C9DED040B02B0BDEC47
:104A3000028B04BF04B070BD022C38D0032C3BD0D5
:104A40000B439FED491B9FED4A0B0AD0B14218D191
:104A5000B04209D121F0804120F0804007910590BB
:104A60000FE0002A15DA10E0434B7B44002C08BF0E
:104A700093ED000B0DD0012C10D0022C17D0032C7D
:104A80001AD0B0421DD1002A03DAB0EE410AF0EE8E
:104A9000610A02B0BDEC028B04B070BD93ED000B57
:104AA00051EC100B81F0004141EC100BF1E7B0EE3E
:104AB000480AF0EE680AECE7B0EE420AF0EE620A4D
:104AC000E7E7401A00153C28C8BF8DED000B19DC44
:104AD000BCF1000FBEBF10F13C0F9FED290B8DED17
:104AE000000B0FDB9DED060B53EC102B9DED040B23
:104AF00051EC100BFBF733FD01F066F900F077FD88
:104B0000CDE90001002C08BF9DED000BC1D0012CA8
:104B100010D0022C9FED1C0B53EC102B9DED000BC5
:104B200051EC100B0DD0FBF7A2FC53EC182BFBF74C
:104B30009EFCB9E7019880F0004001909DED000BCC
:104B4000A7E7FBF794FC53EC182BFBF793FCABE7C0
:104B50000000F07F00000000182D4454FB210940A4
:104B6000182D4454FB2109C0182D4454FB21F9BFD2
:104B7000182D4454FB21F93FBA3500000000000015
:104B80000000000000000000075C143326A6A13CD2
:104B900070B504462DED028B4D1E00EBC500B0EE46
:104BA000408AF0EE608A90ED000B35F0060017D0D9
:104BB00053EC182B51EC100BFBF75FFC41EC100B86
:104BC0006D1E04EBC50090ED001B51EC100B53EC77
:104BD000112BFBF7ABFB41EC100B35F00600E7D1D6
:104BE000022D36D0042D1CD0062D1CBFBDEC028B2F
:104BF00070BD53EC182B51EC100BFBF73EFC94ED01
:104C00000A1B53EC112BFBF791FB53EC182BFBF712
:104C100034FC94ED081B53EC112BFBF787FB41ECA4
:104C2000100B53EC182B51EC100BFBF726FC94EDFA
:104C3000061B53EC112BFBF779FB53EC182BFBF7FE
:104C40001CFC94ED040B53EC102BFBF76FFB41ECB9
:104C5000100B53EC182B51EC100BFBF70EFC94EDE2
:104C6000021B53EC112BFBF761FB53EC182BFBF7EA
:104C700004FC94ED001B53EC112BFBF757FBBDEC30
:104C8000028B41EC100B70BD10B553EC102B51ECA6
:104C9000100BFBF74BFB41EC100B10BD10B553ECA8
:104CA000112B51EC100BFBF741FB41EC100B10BD2D
:104CB0009FED050B10B553EC102B51EC100BFBF7CF
:104CC0004EFC41EC100B10BD000000000000000085
:104CD0009FED050B10B553EC102B51EC100BFBF7AF
:104CE000CCFB41EC100B10BD0000000000000010D8
:104CF00002E008C8121F08C1002AFAD170477047A5
:104D0000002001E001C1121F002AFBD17047000002
:104D10000149086070470000940000202DE9FF5F02
:104D200082B00021DDE90430020DDDF840B003431C
:104D300018D044F61050A2F2FF32424315141198D5
:104D400001281FD0A5EB0B00401C5FEA000A4FF0C2
:104D500000064E4FDFF83891B046504615D5CAF1DF
:104D6000000413E0119801244AA3012801D16FEA3D
:104D70000B010298119AC0E90031C0E9024206B065
:104D8000BDE8F09FCBF10000DFE704460021404A78
:104D9000491842EB0450CDE9001012E0E00707D0BB
:104DA00032463B4640464946FBF767FB804689460C
:104DB00032463B4610461946FBF75FFB06460F4658
:104DC0006410002CEAD1DDE90401DDE90023BAF129
:104DD000000F06DAFBF751FB42464B46FBF74DFB53
:104DE00005E0FBF7BCFB42464B46FBF7B8FB04462D
:104DF0000E460022284BFBF735FC03D84FF0FF305E
:104E0000014607E00022254B20463146FBF78EFA8B
:104E1000FBF737FD102409E0002C0ADB0A220023EF
:104E2000FBF7D6F9039B30321A55641E50EA010293
:104E3000F2D1641C039AC4F111031444119A012A9B
:104E400003D0012208430DD10AE0084304D000201A
:104E50004FF0110B119072E7A3EB0B056D1E0DE0E7
:104E60005B4504DD4FF0000205F1010504E003DAC3
:104E70004FF00002A5F10105002AECD0029811992B
:104E8000C0E90231C0E9004579E7000000001440A4
:104E90000000F03F300000000000F0430000E03F61
:104EA0002DE9FF4F95B09B468946064600250FE247
:104EB000252877D100242746F84A0121059400E0EF
:104EC000044316F8013F203B01FA03F01042F7D1EA
:104ED00030782A2811D06FF02F033078A0F13002FB
:104EE000092A16D8059A44F0020402EB820203EB69
:104EF00042021044761C0590EFE759F8042B059206
:104F0000002A03DA504244F40054059044F00204AD
:104F1000761C30782E2816D116F8010F44F00404C0
:104F20002A280DD06FF02F023078A0F13003092B22
:104F300009D807EB870302EB4303C718761CF3E796
:104F400059F8047B761C30786C280FD006DC4C288E
:104F500017D068280DD06A2814D104E0742810D026
:104F60007A280FD10DE044F400140AE044F48014D0
:104F700001E044F440147278824202D104F58014B6
:104F8000761C761C307866280BD013DC582877D036
:104F900009DC002875D04528F6D04628F4D04728EB
:104FA0001AD19DE118E0632835D0642879D06528AE
:104FB00012D195E1702873D008DC6728F1D06928F8
:104FC0006FD06E280DD06F2806D1B5E073282CD095
:104FD000752875D0782874D05A46179990476D1C5B
:104FE00075E1C4F30250022809D003280DD0D9F886
:104FF000001004280DD00D6009F1040967E1D9F80B
:105000000010EA17C1E90052F6E7D9F800100D8048
:10501000F2E70D70F0E719F8041B8DF8001000207E
:105020008DF80100EA46012003E059F804AB4FF087
:10503000FF3061074FF0000102D40DE008F10101DB
:105040008846B9420FDA8045F8DB1AF808100029C3
:10505000F4D108E008F1010188468142FADB1AF830
:1050600008100029F6D105985B46A0EB08072146F9
:105070003846179A00F094FA284400EB080507E038
:105080004DE029E10DE01AF8010B5A4617999047B7
:10509000B8F10108F7D25B4621463846179A13E16A
:1050A00042E00A220092C4F302524FF0000A022AA0
:1050B00008D059F804CB032A4FEAEC710AD00DE06E
:1050C00029E02AE009F1070121F00702F2E802C114
:1050D000914609E00FFA8CFC4FEAEC71042A03D1E7
:1050E0004FFA8CFC4FEAEC71002907DA0A460021DE
:1050F000DCF1000C61EB02012D2202E0220504D557
:105100002B228DF80420012203E0E20701D02022A7
:10511000F7E7904659E00A2102E010220DE0102145
:105120004FF0000A00910BE010224FF0000A44F00B
:1051300004040827009203E008224FF0000A0092BE
:10514000C4F30252022A05D059F804CB0021032AE5
:1051500008D009E009F1070121F00702F2E802C1D5
:10516000914605E01FFA8CFC042A01D10CF0FF0CDB
:105170004FF00008220728D5702806D0009B83F046
:10518000100353EA0A0305D00EE040228DF80420F4
:10519000012208E05CEA010206D030228DF80420EA
:1051A0008DF8050002229046009B83F0080353EA25
:1051B0000A030AD15CEA010201D1620705D5302257
:1051C0008DF804204FF001087F1E582804D034A029
:1051D00003900EA802900DE036A0F9E75346604612
:1051E000009AFAF7F5FF84460398825C0298401E05
:1051F000029002705CEA0100F0D1029806A9081A38
:1052000000F1200A600702D524F4803400E0012771
:10521000574502DDA7EB0A0000E0002000EB0A0181
:10522000009005984144401A0590E00306D45B467F
:105230002146179A059800F0B3F90544002706E0C7
:1052400001A85A46C05D179990476D1C7F1C4745C1
:10525000F6DBE0030CD55B462146179A059800F073
:105260009FF9054404E030205A46179990476D1C79
:105270000099481E00900029F5DC08E00298029988
:105280005A460078491C0291179990476D1CBAF153
:105290000001AAF1010AF1DC65E100000928010022
:1052A000303132333435363738396162636465669C
:1052B000000000003031323334353637383941425E
:1052C000434445460000000000F058F90544761CB0
:1052D000307800287FF4ECAD19B02846BDE8F08F97
:1052E000620700D4062709F1070222F0070CFCE848
:1052F0000223E14603F000485FEA080C02D00FF2F7
:10530000702C0DE05FEA045C02D50FF2682C07E018
:105310005FEAC47C02D00FF2602C01E0AFF2700CA7
:105320004FF0FF3823F00043CDF850C065280CD073
:1053300006DC452809D046281DD047283DD13DE050
:10534000662818D067287ED138E00021112F01DBB4
:10535000112000E0781CCDE9000106A90EA8FFF796
:10536000DDFCDDE90F010E9A03910021009207F1A7
:10537000010A04914DE04FF000400097CDE9011083
:1053800006A90EA8FFF7CAFCDDE90F0203920E9BE7
:1053900011990022DDF80CA00093049211B9791C38
:1053A00000EB010AB7EB0A0004D4C0F1FF3007F1AB
:1053B000010A0490AAEB0700019044E0012F00DAF3
:1053C00001270021112F01DD112000E03846CDE931
:1053D000000106A90EA8FFF7A1FCDDE90F010E9A56
:1053E0000391002104910092BA4621070CD403993D
:1053F000514500DA8A46BAF1010F05DD009AAAF19B
:105400000101515C302908D0B84202DA10F1040FD2
:1054100006DA0121CDE9011015E0AAF10101E9E761
:10542000002805DC049901440491AAEB000102E084
:10543000411C514500DD8A460499401A401C0190E8
:105440004FF000400290200704D40198504501DB42
:10545000CDF8048000208DF84F0002980DF14F0721
:10546000B0F1004F25D02B200E9002984FF002088B
:1054700000280CDA404202902D200E9007E00A210D
:105480000298FBF723F93031029007F8011DB8F1BB
:105490000001A8F10108F2DC02980028EFD1791E82
:1054A0000E980870307800F0200040F0450007F8B2
:1054B000020D12A8C01B00F107081498007800B173
:1054C000012000EB0A01019801EBE07105984144CD
:1054D000401A401E0590E00306D45B462146179A09
:1054E000059800F05DF805441498007818B15A4604
:1054F000179990476D1CE00324D55B462146179A07
:10550000059800F04DF805441CE00498002807DBDE
:10551000DDE90301884203DD0098405C179901E052
:10552000179930205A469047049805F10105401C10
:1055300004900198401E019004D12E205A461799DC
:1055400090476D1CBAF10001AAF1010ADDDC05E00B
:1055500017F8010B5A46179990476D1CB8F10001D6
:10556000A8F10108F4DC5B462146179A0598ABE6E2
:105570002D0000002B000000200000002DE9F0416C
:10558000044600251E461746880404D405E0394623
:105590002020B0476D1C641EF9D52846BDE8F08177
:1055A0002DE9F041044600251E469046C80301D56A
:1055B000302700E02027880404D505E0414638461E
:1055C000B0476D1C641EF9D52846BDE8F0814A68D5
:1055D000002A06D00A68531C0B6010704868401EF1
:1055E000486070470A68531C0B601070704710B514
:1055F00041EC100BFFF768F851EC100B10BD08B52B
:1056000060B120208DF8000028208DF801003020A6
:105610008DF8020038208DF8030004E0A322042155
:105620006846FAF718FE6A46042140F69E2001F00B
:10563000ADFB01F0E3F808BD3EB5044602208DF84D
:105640000000CA208DF80100E3208DF80200092037
:105650008DF803006A460421682001F097FBA3201F
:105660008DF80000610609D5C0218DF80110C82110
:105670008DF80210C2218DF8031005E08DF80100AD
:105680008DF802008DF8030014F4C07F09D0C42106
:105690008DF80410CC218DF80510C6218DF8061068
:1056A00005E08DF804008DF805008DF806008DF8F2
:1056B00008008DF807008DF809006A460A2140F6B7
:1056C000A72001F063FBA0074FF0D80503D02020EE
:1056D0008DF8000001E08DF800506A46012140F687
:1056E000B62001F053FBA00601D5012000E0002008
:1056F00000F08EF814F4C07F1ED0E0050AD5B22069
:105700008DF800008B208DF80100B6208DF8020086
:105710009B2009E0B0208DF8000080208DF801006A
:10572000B4208DF8020090208DF803006A46042111
:1057300040F6A22001F02AFBE1074FF40B6022D0D3
:10574000F8218DF800106A46012101F01FFBFA21B3
:10575000072000F069FA072000F034FA012000F079
:1057600051FA642000F010FB4FF4FA7000F01CFBBB
:10577000C821254800F0EEF9282000F003FA0A209D
:1057800000F010FA05E08DF800506A46012101F0A2
:10579000FDFAA00703D5D9208DF8000001E08DF8AF
:1057A00000506A46012140F23D7001F0EFFA6007B7
:1057B00001D5012000E0002000F048F8E00601D506
:1057C000012000E00020FFF71AFF104D44F0080010
:1057D000688101F013F80020A873600601D5062047
:1057E000A87314F4C07F02D0A87B801DA87314F0A6
:1057F000140F02D0A87B1030A873A00702D0A87B9A
:10580000001DA87300203EBD09E3CA02300300203A
:105810000EB54FF4976310B106A107C901E008A2C5
:1058200007CA8DE807006A460921184601F0AEFA5A
:105830000EBD0000B8AAB38DB4980D355D00000010
:10584000B8AAAAAAB088C3C5C700000008B560B14D
:10585000C0208DF80000C2208DF80100C4208DF812
:105860000200C6208DF8030004E08B220421684664
:10587000FAF7F1FC6A46042140F6982001F086FA16
:1058800000F0BCFF08BD0000C8234FF4806202494D
:1058900040F6F63000F094BE887200082DE9FF4F04
:1058A00089B01746DDE9165200244D4E88468146E0
:1058B0002C80A246B07B694600F02EFF4FF0FF3BE4
:1058C00018B158460DB0BDE8F08F708910F0140F74
:1058D0003ED0009909BA21F0FF029DF803100A4357
:1058E0003A6001999DF8073009BA21F0FF01194388
:1058F0007960029B9DF80B401BBA23F0FF03234302
:10590000BB60039C121424BA24F0FF0C9DF80F40D6
:1059100009144CEA040C1024C7F80CC01B144FEAFD
:105920002C4712FB02F211FB012113FB03F217FBC0
:1059300007221144A1F17061B1F1007F04D900F098
:105940005DFFA5F800A0BCE7298841F4807129809B
:105950004206694611D50A19A41D13885BBAA8F836
:10596000003053885BBAA8F80230928852BAA8F87F
:1059700004202A8842F008022A8010F4C07F11D047
:105980000A19A41D13885BBAA9F8003053885BBAC2
:10599000A9F80230928852BAA9F804202A8842F065
:1059A00070022A80800716D00C44E07800F0C00511
:1059B00000F03F016078C00706D0C80801F0070179
:1059C0003268491C02B190476078000703D57168BE
:1059D00009B1A80988470C9800F0E8FB002071E79E
:1059E0003003002030B5044613A285B007CA8DE805
:1059F00007004FF0FF35C82C16D8C820B0FBF4F1D3
:105A0000491E080A8DF80C008DF80D1003AA02211A
:105A100040F2162001F0BAF930B96A460C2140F67E
:105A2000C12001F0B3F910B1284605B030BD0548DA
:105A300084810020F9E70000FEF2ABC4AAF1DFDFA9
:105A4000BBAFDFDF300300202DE9FF4104463CA05F
:105A500004F00303006802903AA0006803903AA0A3
:105A600006683AA0056802A8C15C8DF80010C4F36E
:105A7000C101425C8DF80120C4F38112805C8DF875
:105A8000020003A8C35C8DF80430415C8DF805105A
:105A9000805C8DF806006A46032140F2264001F042
:105AA00075F94FF0FF37E0BB01AA032140F22A400D
:105AB00001F06CF9A8BBCDE9006560070BD59DF836
:105AC000000040F001008DF800009DF8040040F057
:105AD00001008DF80400A0060BD59DF8010040F0F0
