:020000040800F2
:10000000100D0020010100080F2E00081D2400081B
:100010000D2E0008070B0008B9370008000000008B
:10002000000000000000000000000000FF33000896
:10003000B10B000800000000FD3300080134000887
:100040001B0100081B0100081B0100081B01000820
:100050001B0100081B0100081B0100081B01000810
:100060001B0100081B0100081B0100081B01000800
:100070001B0100081B010008090B0008150B0008F4
:100080001B010008210B00081B0100081B010008D0
:100090001B0100081B0100081B0100081B010008D0
:1000A0001B0100081B0100081B0100081B010008C0
:1000B0001B0100081B0100081B0100081B010008B0
:1000C0001B0100081B0100081B0100081B010008A0
:1000D0001B010008A1370008AD3700081B0100080C
:1000E0001B0100081B0100081B010008DFF80CD0F1
:1000F00000F0A6FC00480047D9500008100D002071
:100100000648804706480047FEE7FEE7FEE7FEE7B1
:10011000FEE7FEE7FEE7FEE7FEE7FEE763340008E2
:10012000ED000008202A04DB203A21FA02F0002129
:10013000704721FA02F3D040C2F1200291400843F7
:100140001946704740EA01039B0703D009E008C93C
:10015000121F08C0042AFAD203E011F8013B00F88C
:10016000013B521EF9D27047D2B201E000F8012BD8
:10017000491EFBD270470022F6E710B513460A4627
:1001800004461946FFF7F0FF204610BD421E12F844
:10019000013F002BFBD111F8013B02F8013B002B82
:1001A000F9D1704730B505462A460B4612F8010BC7
:1001B00013F8014B08B1A042F8D01CB1002802D0BE
:1001C0006D1CF1E7284630BD421C10F8011B0029C8
:1001D000FBD1801A704730B504460020034600E08A
:1001E0005B1C934203D2E05CCD5C401BF8D030BD79
:1001F00010B5044600E0401C0378002BFBD100E062
:10020000401C521E04D311F8013B0370002BF7D1A0
:1002100000210170204610BD034611F8012B00F8A3
:10022000012B002AF9D118467047F0B480EA010288
:10023000D40F4200B2EB410F02D2024608461146EB
:100240004A0042D0C30DDDB2C1F3C752AD1A202D12
:1002500035DAC1F3160141F4000204B15242C5F18E
:10026000200602FA06F12A411044B3EBD05F23D0F6
:10027000C4B1012DA0EBC35009DCF0BC4FF000422B
:1002800002EAC352DBB200F5000000F01EBB4000E2
:1002900000F1807000EBC350A0F1807040EAD17093
:1002A000490009E0490841EAC071A0EBC35000F5DC
:1002B0000000400800EBC350F0BC00F0FDBA614202
:1002C000012202EB4101001BF6E7F0BC704781F010
:1002D0000041AAE780F00040A7E780EA010210B5DC
:1002E00002F00043400022D04A001FD0010E01EB73
:1002F0001261C0F35600C2F3560240F4000042F40B
:100300000002A0FB022000047F39140400D0401C2E
:1003100050EA124001D44000491EC2B20C0604EB60
:10032000D010401C4008802A02D003E0002010BDFD
:1003300020F00100002900DA0020184310BD30B47D
:1003400080EA010202F0004530F0004221F0004056
:1003500013D090B1C30DD40DC2F31601C0F3160033
:10036000E41A41F4000140F400027D34914201D3CB
:10037000641C00E04900002C02DA30BC0020704709
:100380004FF400000023914201D3891A034340082F
:100390004FEA4101F7D151B1914202D14FF00041F2
:1003A00005E002D24FF0010101E06FF0010103EB23
:1003B000C450284430BC00F07FBA420005D0C0F3DE
:1003C000C7525242914201DC0020704700EBC150FD
:1003D00070472DE9FE4F804681EA0300C00F0C46AE
:1003E000009021F0004123F00045B8EB0200A94144
:1003F00005D24046214690461C460B46024623F055
:100400000040104347D0270DC7F30A00C3F30A5139
:100410000290401A019040286BDAC3F3130040F4B5
:10042000801B0098924620B10023D2EB030A63EBB5
:100430000B0B01985946C0F14002504600F01BFAE0
:1004400006460D4650465946019A00F023FA10EB35
:1004500008006141002487EA115284EAE7731A43D5
:1004600040D0009A62B3019A012A4FEA075215DC84
:10047000001B61EB02014FF0004202EA0752CDE996
:100480000042001C41F5801132462B4600F05AFA1A
:1004900003B0BDE8F08F40462146F9E7001B61EB51
:1004A0000201001C41F5801300185B412018A2F5E1
:1004B000001747EB030140EAD570B6196D4111E012
:1004C0006D084FEA360645EAC0754FEA0752001B31
:1004D00061EB0201001C41F5801149084FEA300030
:1004E0000019514132462B4603B0BDE8F04F00F0F1
:1004F0001ABA0098012240000023D0EB020263EBFD
:10050000E073009821464FEAE074B8EB000061EB1D
:100510000401E9E783F000435BE781F0004158E71D
:100520002DE9FE4F81EA030404F0004421F000416C
:1005300000944FF0000B23F0004350EA01045ED01A
:1005400052EA03045BD0C3F30A54C1F30A552C44A6
:10055000A4F2F3340194A0FB0254C1F3130141F45B
:100560008011C3F3130343F4801301FB024400FB27
:10057000034E840A970A44EA815447EA8357A4FB4E
:10058000076802958D0A05FB07854FEA932C04FB4B
:100590000C542705029D4FEA065847EA1637B5EB7B
:1005A00008056EEB070C870E920E47EA811742EAA8
:1005B0008312A7FB0201B6EB0B0164EB00042B0DC9
:1005C00043EA0C335E1844EB1C50DA465146E7FB15
:1005D0000201C5F313044FEA0B3343EA14534FEA05
:1005E0000432019C43EA0603A4F10C040294009C2B
:1005F000CDE900B400F0A6F903B0BDE8F08F00200B
:100600000146F9E72DE9F04D81EA030404F0004BBF
:1006100021F0004514464FF0000A23F0004150EA53
:10062000050220D054EA01021DD0C5F30A57024644
:10063000C5F31303C1F31300C1F30A5640F4801548
:1006400043F48013A7EB0608101BD64608F2FD38CA
:1006500073EB050002D308F1010801E092185B4139
:10066000B8F1000F03DA00200146BDE8F08D00204C
:100670004FF48011064684460EE0171B73EB050706
:1006800005D3121B63EB050306434CEA010C490832
:100690004FEA300092185B4150EA0107EDD152EA6F
:1006A000030012D082EA040083EA0501084305D062
:1006B000101BAB4106D20122002306E000224FF0BE
:1006C000004302E06FF0010253101AEB06004CEBFE
:1006D000085110EB0A0041EB0B01BDE8F04D00F0B2
:1006E00022B9C10F80EAE0700844CA0796230021AE
:1006F00000F0EBB896230022114600F0E6B800F0B7
:10070000004220F00040C10DC0F3160040F400008C
:100710007F2901DA00207047962903DCC1F1960198
:10072000C84001E096398840002AF4D04042704722
:1007300020F00040C10DC0F3160040F400007F29F6
:1007400001DA00207047962903DCC1F19601C84008
:10075000704796398840704700F0004230F0004002
:100760000AD0C10D01F56071C0F3160042EA0151D3
:10077000C20840071143704700200146704700003F
:1007800030B5041E71F1000404DB4FF00044404218
:1007900064EB0101141E73F1000405DB1C464FF0ED
:1007A0000043524263EB0403994208BF904230BDBC
:1007B00001F0004330B421F0004150EA010206D0BC
:1007C0000A0DA2F56072C1F31301002A02DC30BCED
:1007D00000207047440F44EAC104C100E01830BC57
:1007E00000EBC25000F068B830B50B46014600205F
:1007F0002022012409E021FA02F59D4205D303FAE3
:1008000002F5491B04FA02F52844151EA2F1010263
:10081000F1DC30BD2DE9F05F0546002092469B4695
:1008200088460646814640241BE028464146474606
:100830002246FFF777FC53465A46C01A914110D31F
:1008400011461846224600F016F82D1A67EB0108EB
:100850004F4622460120002100F00DF817EB000959
:100860004E41201EA4F10104DFDC484631462A46F1
:100870004346BDE8F09F202A04DB203A00FA02F14B
:10088000002070479140C2F1200320FA03F319437E
:1008900090407047202A06DBCB17203A41FA02F03D
:1008A00043EAE07306E041FA02F3D040C2F12002CD
:1008B00091400843194670470029A8BF7047401C63
:1008C000490008BF20F00100704710B4B0FA80FC66
:1008D00000FA0CF050EA010404BF10BC704749B1A3
:1008E000CCF1200421FA04F411FA0CF118BF012113
:1008F00021430843A3EB0C01CB1D4FEA00614FEAF3
:10090000102042BF002010BC704700EBC3501044C1
:100910000029A4BF10BC7047401C490008BF20F04C
:10092000010010BC704710B5141E73F1000408DA02
:10093000401C41F1000192185B411A4301D120F0A3
:10094000010010BD2DE9F04D92469B4611B1B1FA60
:1009500081F202E0B0FA80F220329046FFF78BFF7E
:1009600004460F4640EA0A0041EA0B0153465A4644
:10097000084313D0114653EA010019D0C8F14002D0
:100980005046FFF7CFFB05460E46504659464246B5
:10099000FFF771FF084305D0012004E020463946E7
:1009A000BDE8F08D0020054346EAE0762C4337434E
:1009B0000A986305E40AA0EB08000022FD0A44EA55
:1009C00047540A3002D500200146E9E70105101915
:1009D0006941DDE9084500196941BDE8F04DA2E72C
:1009E00070B521F0004303430CD0C1F30A55002435
:1009F000D5EB040564EB0403D617AD1AB34102DB53
:100A00000020014670BD201841EB025170BDC1F3BA
:100A10000A52C1F3130140F2FF3341F480119A42AC
:100A200002DA00200146704740F233439A42A2F2B4
:100A3000334202DC5242FFF775BBFFF71CBF0000D8
:100A4000064C074D06E0E06840F0010394E807001B
:100A500098471034AC42F6D3FFF74CFB9074000873
:100A6000B07400082DE9F04D00231A461B1A8A4184
:100A700003DB00200146BDE8F08DC1F30A52C1F34B
:100A8000130141F480154FF0000BD10702D100187B
:100A90006D41521E0027044640F2FF11384601EB1B
:100AA000620A3E468046024600204FF48011FFF75E
:100AB00039FBC2197141BB1846EB0100B4EB030CC2
:100AC00075EB000C04D3E41A65EB000517460E46DF
:100AD000241908F101006D4180463428E3DDF9193D
:100AE00046EB0600091BA84103D24FF0FF32134624
:100AF00001E0002213461BEB070046EB0A51BDE85C
:100B0000F04DFFF710BFFEE7014800F02BB90000E1
:100B1000B0010020014800F025B90000F4010020D8
:100B2000014800F01FB900003802002030B590F8ED
:100B300040500124AC40C56B6C600468636043683E
:100B4000102B036803D099600068C26030BD9A60C2
:100B50000068C16030BD00003EB5094C94F83D50BE
:100B6000242DFBD0CDE900320A4640F6FF74014641
:100B700002940123024800F06DFC00203EBD0000FD
:100B8000CC0000203EB5094C94F83D50242DFBD0FC
:100B9000CDE900320A4640F6FF7401460294012373
:100BA000024800F07FFD00203EBD0000CC00002088
:100BB0007047000010B580210348FFF7DCFA0349B5
:100BC0000020088010BD00008C0200208200002060
:100BD00070B50E460546C824FFF7F6FA82B22946DC
:100BE0000B4802F0EAFD0EE000F03AF840B9314659
:100BF0000848FFF7D7FA18B1FFF7DCFF002070BDF7
:100C00000A2000F0BFF9641EE4B2EDD2012070BDED
:100C1000200100208C02002030B589B00C4605462A
:100C2000FFF7C8FF224608A1684602F0FBFD0AA1B3
:100C30006846FFF7CDFF002804D122462946074821
:100C400002F0BBFD09B030BD41542B434950534520
:100C50004E443D25640D0A003E00000020010020A6
:100C60000648018831B14288914205D100210180B6
:100C700008467047012070474180FBE78200002052
:100C800072B6FEE710B590F821100022022905D0B7
:100C90000421816380F82020012010BD01680B68C9
:100CA00023F00E030B6001680B6823F001030B6057
:100CB00090F84030C46B012101FA03F3636080F8BF
:100CC000211080F82020104610BD000010B590F8CB
:100CD00021100024022903D00421816301243DE076
:100CE00001680A6822F00E020A6001680A6822F0B0
:100CF00001020A601A4A0168914201D1012121E0F2
:100D0000174A1432914201D110211BE0144A2832B3
:100D1000914201D1891515E0114A3C32914201D12D
:100D200089140FE00E4A5032914202D14FF48031C3
:100D300008E00B4A6432914202D14FF4801101E085
:100D40004FF08071064A083A5160012180F8211065
:100D5000002180F82010416B01B18847204610BD6A
:100D6000080002402DE9F05FC16B0C6801680B6858
:100D7000D0F840C0042202FA0CF2494DDFF824A159
:100D8000494E4A4FDFF828B1DFF828E122422CD043
:100D90005A072AD50A68920603D40A6822F0040288
:100DA0000A600168A94201D1042219E0514501D12C
:100DB000402215E0B14202D14FF4806210E0B94206
:100DC00002D14FF480420BE0594502D14FF480220A
:100DD00006E0714502D14FF4800201E04FF08062DD
:100DE0002F4908394A60C16A3BE04FF0020808FA0F
:100DF0000CF818EA040F4FF000094FF0010235D04B
:100E00005FEA837832D50B689B0605D40B6823F024
:100E10000A030B6080F821200168A94201D1022257
:100E200019E0514501D1202215E0B14202D14FF421
:100E3000007210E0B94202D14FF400520BE0594564
:100E400002D14FF4003206E0714502D14FF4001296
:100E500001E04FF00072124908394A6080F8209092
:100E6000816A00291AD0BDE8F05F0847082505FA15
:100E70000CF5254212D01B0710D50B6823F00E038A
:100E80000B6090F84010C36B02FA01F15960826365
:100E900080F8212080F82090016BE2E7BDE8F09F08
:100EA000080002401C0002403000024044000240A2
:100EB000580002406C00024030B528B308C81349FE
:100EC00014221944B1FBF2F18900C1631049816316
:100ED000022141771A6843F6F0718A43D0E9001481
:100EE0002143D0E902452C4321430469214344694D
:100EF0002143846921431143196000214163012288
:100F000042770177084630BD012030BDF8FFFDBFB4
:100F10000000024070B5044690F82000002501282A
:100F20000CD0012084F8200094F821600020012ECC
:100F300006D084F820000225284670BD022070BD2E
:100F4000022684F82160A0632068066826F0010666
:100F500006602046FFF7EAFDE06A00282068016885
:100F600002D041F00E0106E021F00401016020688A
:100F7000016841F00A0101602068016841F0010147
:100F80000160D9E770B5044600F004F90546601C1D
:100F900002D004480078044400F0FCF8401BA04252
:100FA000FAD370BD3C0000202DE9F84FDFF8B8916E
:100FB0000024A9F1040B23460F2709F1040AABF121
:100FC000040EC9E00125A5402A40AA427DD1674E02
:100FD000D1F804C0ACEB0608B44532D014DCBCF147
:100FE000030F3AD009DCBCF1000F2AD0BCF1010F8D
:100FF0001CD0BCF1020F31D11DE0BCF1110F17D094
:10100000BCF1120F2AD119E0B8F5881F19D006DCFF
:10101000B8F5803F15D0B8F5801F1FD111E0B8F5A5
:10102000001F0ED0B8F5041F18D10AE0CB6815E0F8
:10103000CB681B1D12E0CB6808330FE0CB680C3384
:101040000CE08B682BB1012B4FF0080303D04561F6
:1010500004E0042302E0056100E00023FF2A01D838
:10106000064601E000F104064FEA840501D9A5F126
:101070002005D6F8008007FA05FC28EA0C0803FAD8
:1010800005F548EA0508C6F800804D68ED0062D510
:10109000374DAE6946F00106AE61AD6924F0030636
:1010A00005F001050095334D06EB050CDCF8085002
:1010B000A607360F07FA06F825EA0805DFF8B88014
:1010C000404503D14FF0000817E044E0DFF8AC8062
:1010D000404502D14FF001080FE0DFF8A480404501
:1010E00002D14FF0020808E0DFF89880404502D1B5
:1010F0004FF0030801E04FF0040808FA06F848EA48
:101100000508CCF808804D68D9F80060ED024D461E
:1011100001D5164300E096432E604D68DAF8006072
:10112000AD02554601D5164300E096432E604D684A
:10113000DBF80060AD035D4601D5164300E0964341
:101140002E604D68DEF80060ED03754601D516434C
:1011500000E096432E60641C0D682A46E5407FF44B
:1011600031AFBDE8F88F0000080401400000111005
:10117000001002400000014000080140000C014046
:1011800000100140001401400AB1016170470904D8
:10119000FBE7000001488068704700003C00002029
:1011A00070B5040025D094F83D00002520B984F8DE
:1011B0003C50204600F00EFB242084F83D002068BF
:1011C000016821F0010101602068016841F40041DB
:1011D00001602068016821F40041016000F056FCC4
:1011E0004D4A6168914201D84C4900E04C4988421F
:1011F00001D2012070BD4B492368B0FBF1F15E685C
:1012000026F03F060E435E606368934206D94FF4B2
:10121000967359434FF47A73B1FBF3F12368491C79
:101220001E6A26F03F06314319626168914210D868
:101230004900401EB0FBF1F2521CC2F30B02042A1B
:1012400001D2042022E0B0FBF1F0401CC0F30B00FF
:101250001CE0A268F2B301EBC10303EB0116431ECD
:10126000B3FBF6F35B1C43F480431B0549D092B3F8
:1012700001EBC10202EB0111401EB0FBF1F0401C7A
:10128000C0F30B0040F4804040F400402168CA697C
:101290004CF6FF739A431043C861D4E90710014329
:1012A0002068026822F0C00211430160D4E9030102
:1012B00001432068826848F2FF339A4311438160FA
:1012C000D4E9050108432168CA6822F0FF021043EF
:1012D000C86001E00EE016E02068016841F00101FD
:1012E00001602564202084F83D00256384F83E5089
:1012F000002070BD01EB4106431EB3FBF6F35B1CFF
:10130000B3E70120C2E701EB4101401EB0FBF1F061
:10131000401CC0F30B00B7E7A086010080841E00CC
:1013200000093D0040420F002DE9F84F1F4690464E
:101330008A460446DDF82890FFF72CFF054694F80E
:101340003D0020287FD119230122404920460095E5
:1013500001F0C8F9002876D194F83C00012872D039
:10136000012084F83C0020680168C90703D10168A6
:1013700041F0010101602068016821F40061016011
:10138000212084F83D00102084F83E0000262664C9
:10139000C4F824806785608D20852D48E0622B4647
:1013A0004A465146204601F051F890B920684169FB
:1013B0008069009036E02A464946204601F070FADE
:1013C00050B1206C042804D12068016841F40071F8
:1013D00001600120BDE8F88F606A2168007808612B
:1013E000606A401C6062618D491E6185218D491EC5
:1013F00089B2218522685369DB435B070BD451B165
:1014000000781061606A401C6062608D401E6085DB
:10141000208D401E20852A464946204601F036F997
:101420000028CED1208D0028C5D154F83D0B01688D
:1014300041F400710160202004F81E09E677667708
:101440000020C7E7FFE70220C4E700000200100009
:101450000000FFFF2DE9FF4F83B00025DDE9107983
:101460009A4693460446DDF848800095FFF792FEC1
:10147000064694F83D0020287CD119230122854995
:101480002046009601F02EF90028F5D194F83C0092
:1014900001286FD0012084F83C0020680168C9074A
:1014A00003D1016841F0010101602068016821F465
:1014B00000610160222084F83D00402084F83E0055
:1014C00025646762A4F82A90608D20857248E062E6
:1014D000CDE9008653465A462046049901F004F8A7
:1014E00000287DD1208DDFF8B491202768B1012834
:1014F00014D00228206801681ED041F48061016088
:101500002068416980690090B6E02068416981697E
:101510000091016841F400710160ADE0206801684C
:1015200021F48061016072B620684169816900918F
:10153000016841F400710AE041F40061016072B693
:101540002068416981690091016821F4806101602E
:1015500062B691E0032868D801280CD002284346DF
:101560004FF000024946204600960FD001F0BAF82D
:10157000B0BB10E08BE032464146204601F058F9FE
:1015800070BB20680069616A08706CE001F0AAF81D
:1015900030BB72B634E02068016821F480610160DC
:1015A00072B620680069616A0870606A401C6062F7
:1015B000208D401E2085608D401E6085384846F293
:1015C000A8110068B0FBF1F0C0EBC00000EB800098
:1015D0000090401E009008D020684069C04300E0A1
:1015E00029E040070CD50098F3E744F8305F6773B3
:1015F000A573206940F02000206162B625731AE0CF
:101600002068016841F40071016020680069616A26
:101610000870606A401C6062218D491E2185618DC1
:10162000491E618562B621681BE03246414620466C
:1016300001F0FEF818B1012007B0BDE8F08F206876
:101640000069616A0870606A401C6062218D491EF1
:101650002185618D491E618521684A69D2435207FF
:101660000AD409690170606A401C6062208D401EC6
:101670002085608D401E6085208D00287FF46AAF34
:1016800084F83D7084F83E5084F83C50D4E7022042
:10169000D2E70000020010000000FFFF040001007C
:1016A000480000202DE9FF4F83B09A46DDE91197ED
:1016B00093460446DDF84080FFF76CFD054694F83C
:1016C0003D0020287FD11923012240492046009562
:1016D00001F008F8002876D194F83C00012872D077
:1016E000012084F83C0020680168C90703D1016823
:1016F00041F0010101602068016821F4006101608E
:10170000212084F83D00402084F83E000026266415
:10171000C4F82480A4F82A90608D20852C48E062CB
:10172000CDE9007553465A462046049900F05AFF09
:1017300070B930E02A463946204601F0B1F858B178
:10174000206C042804D12068016841F40071016014
:10175000012007B0BDE8F08F606A21680078086159
:10176000606A401C6062218D491E89B22185628DAC
:10177000521E628522685369DB435B070BD469B153
:1017800000781061606A401C6062208D401E2085D8
:10179000608D401E6085208D0028CBD12A463946B9
:1017A000204600F073FF0028CAD154F83D0B0168B1
:1017B00041F400710160202004F81E09E677667785
:1017C0000020C6E7FFE70220C3E700000200100088
:1017D0000000FFFF10B586B0002100910191029139
:1017E000039100680F4988421AD10F4CA06940F05C
:1017F0000800A061A069694600F008000490C020BC
:10180000009012200190032003900848FFF7CCFBC2
:10181000E06940F40010E061E06900F40010049019
:1018200006B010BD0054004000100240000C014002
:101830000248816802781144816070473C000020B2
:10184000074810B5016841F010010160032000F065
:1018500075F80F2000F006F800F024F8002010BD05
:101860000020024070B50D4D04464FF47A7128787F
:10187000B1FBF0F00A490968B1FBF0F000F0DCFAC6
:1018800048B9102C07D200222146501E00F036F82D
:1018900000206C6070BD012070BD00003C00002085
:1018A000480000200C4808B5816941F001018161C0
:1018B000816901F001010091C16941F08051C1616C
:1018C000C06900F0805000900448416821F0E06158
:1018D00041F00071416008BD00100240000001406D
:1018E000002809DB00F01F0201219140400980001F
:1018F00000F1E020C0F8001170470000F0B40E4B7A
:101900001B680C46C3F30223C3F10705042D00D95D
:101910000425191D072901D2002300E0DB1E012642
:1019200006FA05F1491E214099409E40761E164058
:101930003143F0BC01F09EBF0CED00E0064900F021
:10194000070208684FF6FF03184040EA0220034AE6
:1019500010430860704700000CED00E00000FA053D
:101960002DE9F0470F46050061D0434E306800F086
:101970000700B84209D2306820F0070038433060D1
:10198000306800F00700B84251D128683B4C81070D
:1019900012D5400703D5606840F4E06060602878A5
:1019A000000703D5606840F4605060606068A96813
:1019B00020F0F000084360602878C00728D06868ED
:1019C000012810D02168022810D0890700292EDABA
:1019D000616821F0030101436160FFF7DBFB804692
:1019E00041F288390DE021688903EFE78901EDE7CD
:1019F000FFF7D0FBA0EB0801494502D90320BDE861
:101A0000F0876068696800F00C00B0EB810FEFD1DF
:101A1000306800F00700B8420BD9306820F00700AA
:101A200038433060306800F00700B84201D0012030
:101A3000E5E72878400705D56068E96820F4E060AC
:101A4000084360602878000706D56068296920F49B
:101A5000605040EAC100606000F038F86168084AF0
:101A6000C1F30311515CC84006490860064800688C
:101A7000FFF7F8FE0020C2E70020024000100240FD
:101A8000FA60000848000020400000200448054992
:101A900000684968044AC1F30221515CC84070479C
:101AA00048000020001002400A610008044805496F
:101AB00000684968044AC1F3C221515CC8407047BC
:101AC00048000020001002400A6100080E4A5168D8
:101AD0000E4801F00C03042B11D0082B0FD10C4839
:101AE000C1F38343C903C05C0AD55168084AC1F3F6
:101AF0004041921E515C054A5043B0FBF1F07047E3
:101B000004494843704700000010024000127A0068
:101B1000EA60000800093D002DE9F84F040070D08C
:101B20002078C04DC00749D06868C0F38100012803
:101B300007D06868C0F38100022809D16868C00333
:101B400006D52868800339D560680028E7D035E0DD
:101B50006068B0F5803F0BD010B1B0F5A02F11D068
:101B6000286820F480302860286820F4802002E073
:101B7000286840F480302860606890B1FFF70AFB65
:101B800006460AE0286840F480202860F0E700BF9D
:101B9000FFF700FB801B642873D828688003F7D503
:101BA0000CE0FFF7F7FA064605E000BFFFF7F2FA90
:101BB000801B6428F0D828688003F7D420789A4ED8
:101BC00080074FF001094FF0000839D5686810F020
:101BD0000C0F07D06868C0F38100022809D168683B
:101BE000C00306D42868800714D52069012808D1CD
:101BF00010E02069B0B1C6F80090FFF7CBFA0746B5
:101C000005E00AE1FFF7C6FAC01B0228C4D828681D
:101C10008007F7D52868616920F0F80040EAC10024
:101C200028600DE0C6F80080FFF7B4FA074604E02C
:101C3000FFF7B0FAC01B022823D828688007F7D422
:101C4000207800072CD57948A169D9B1C0F8009057
:101C5000FFF7A0FA074604E0FFF79CFAC01B022832
:101C60000FD8686A8007F7D571484FF4FA510068B9
:101C7000B0FBF1F0009000BF0098411E0091FAD235
:101C80000EE080E0C0F80080FFF784FA074604E029
:101C9000FFF780FAC01B022875D8686A8007F7D45E
:101CA0002078400760D5E8690027C00008D4E869BB
:101CB00040F08050E861E869012700F08050009012
:101CC0005C480168C90513D40168834641F48071FA
:101CD0000160FFF75FFA824606E000BFFFF75AFA9D
:101CE000A0EB0A0064284ED8DBF80000C005F5D54B
:101CF000E06801280AD008B1052813D0286A20F02E
:101D000001002862286A20F0040002E0286A40F0FE
:101D100001002862E06841F2883B98B1FFF73AFA87
:101D200082460BE0286A40F004002862EEE700BF1C
:101D3000FFF730FAA0EB0A0159455AD8286A800704
:101D4000F6D50CE0FFF726FA824605E0FFF722FA07
:101D5000A0EB0A0159454CD8286A8007F6D41FB178
:101D6000E86920F08050E861E06988B36968C1F3F0
:101D70008101022944D00228C6F8608004D0FFF710
:101D800009FA044638E034E0FFF704FA074604E0B5
:101D9000FFF700FAC01B02282BD828688001F7D46F
:101DA000206AB0F5803F05D16868A16820F4003052
:101DB00008436860D4E908010843696821F4741194
:101DC00008436860C6F86090FFF7E4F9044606E04F
:101DD00025E000BFFFF7DEF9001B022809D82868BC
:101DE0008001F7D51BE000BFFFF7D4F9001B0228E4
:101DF00002D90320BDE8F88F28688001F4D40EE0F2
:101E00000128F7D06868226A00F48031914204D139
:101E1000616A00F47010884201D00120EAE70020D6
:101E2000E8E7000000100240000042428004424205
:101E3000480000200070004010B5401EB0F1807FC7
:101E400001D3012010BD4FF0E02460610F21601725
:101E500001F010FD0020A06107202061002010BDCE
:101E60007047704710F8411F4078084370470000E2
:101E7000F8B5016804460868CA684B6910F00F0F8E
:101E80004FF0000559D003F0010602F49077374374
:101E900065D0C10705D0D10503D5616C41F00101C2
:101EA0006164410705D5D90703D0616C41F0020197
:101EB0006164810705D5D90703D0616C41F0040145
:101EC0006164010707D502F02001314303D0616C42
:101ED00041F008016164616C00293AD0800604D5A4
:101EE000900602D5204601F045FB20684069616CF0
:101EF000C0F38010090700D460B3204601F005FB51
:101F000020684069400621D52068143050E8001F41
:101F100021F0400140E80012002AF5D1E06BA8B1A1
:101F20006D494163E06BFEF7D1FE002811D0E06BF4
:101F3000416B01B0BDE8F040084783060FD593061A
:101F40000DD52046BDE8F84001F014BB2046FFF750
:101F500088FFF8BD2046FFF784FF6564F8BD266B57
:101F60002023012E7CD1C6067AD5D60678D50868FE
:101F70004868009048694FF00206400640D5E16B82
:101F8000086840680004000CE8D0A28D8242E5D9C0
:101F9000E085886920282DD020680C3050E8001F8B
:101FA00021F4807140E80012002AF5D12068143035
:101FB00050E8001F21F0010140E80012002AF5D18D
:101FC0002068143050E8001F21F0400140E8001262
:101FD000002AF5D184F84230256320680C3050E89F
:101FE000001F21F0100140E80012002AF5D1E06B3B
:101FF000FEF748FE6663A08DE18D401A81B22AE0AB
:10200000A08DE18D401A81B2E08D0028A6D0002974
:10201000A4D022680C3252E8000F20F4907042E8FD
:102020000007002FF5D12068143050E8002F22F06F
:10203000010240E80027002FF5D184F842302563E3
:1020400020680C3050E8002F22F0100240E80023F6
:10205000002BF5D166632046FFF702FFF8BDFFE7CE
:1020600005062BD5150629D594F841002128F5D170
:10207000A068B0F5805F01D12069B0B1206A411C31
:102080002162216800784860E08C401E0004000C4A
:10209000E084E3D12068C16821F08001C16020683C
:1020A000C16841F04001C160D8E7206A0088C0F3F0
:1020B00008004860206A801C2062E5E74006CDD514
:1020C0005006CBD5CA68204622F04002CA6084F888
:1020D000413000F0A1F9C1E76534000870B5040093
:1020E00004D094F84100002510B106E0012070BD35
:1020F00084F84050204600F023F8242084F8410062
:102100002068C16821F40051C160204601F094FAB2
:102110002068016921F4904101612068416921F042
:102120002A0141612068C16841F40051C1606564C1
:10213000202084F8410084F842006563002070BDCF
:102140002DE9F04186B00024009401940294039498
:102150000646DFF840C103684F48022103224F4D75
:1021600010274FF0800863454FD1836943F48043C3
:102170008361836903F480430493836943F0040318
:1021800083618069039200F0040004900802CDE9A5
:10219000000169462846FEF707FF2815CDE900042F
:1021A000694628460294FEF7FFFE3E4D3C48C5E9CD
:1021B0000007C5E902482C614FF400506C61C5E985
:1021C000064047462846FEF777FE08B1FEF758FD61
:1021D000B5636E62334D324844351430C5E90004AE
:1021E000C5E902472C616C61AC612846EC61FEF7E1
:1021F00063FE08B1FEF744FDF56300221146252079
:102200006E62FFF77BFB25203EE0DFF89CC0634554
:102210003CD1C36943F40033C361C36903F40033A1
:102220000493836943F0040383618069039200F09F
:10223000040004900420CDE9000169462846FEF719
:10224000B3FE0820CDE90004694628460294FEF753
:10225000ABFE144D124888353C302860C5E9017446
:10226000C5E9038480146C61C5E906402846FEF781
:1022700023FE08B1FEF704FDB563002211462620B7
:102280006E62FFF73BFB2620FFF72AFB06B0BDE896
:10229000F0810000003801400010024000080140B9
:1022A00044000240B00100200044004090F8423059
:1022B000202B01D00220704721B11AB10023036303
:1022C00001F016BA012070470A49884211D10A4923
:1022D0000888802801D3002008800848084B02782D
:1022E00008881A54401C0880012204490148FFF75D
:1022F000DDBF704720010020820000208600002002
:102300008C0200202DE9F843044690F841001F4656
:1023100016460D46202802D00220BDE8F8837DB184
:1023200076B100206064212084F84100FEF732FF7E
:10233000A6848046E684A068B0F5805F02D003E002
:102340000120EAE7206910B12E4600250EE00026A4
:102350000CE08021204601F0E6F9A0B9AEB116F8F4
:10236000010B21684860E08C401EE084E08C43460D
:102370004FF0000200970028EBD14FF040012046BB
:1023800001F0D1F930B10320C7E735F8020BC0F3F3
:102390000800E6E7202084F841000020BDE70000A7
:1023A00070B5044690F84100202801D0022070BD8D
:1023B00049B342B32162A284E284002060642123F5
:1023C00084F84130A56B114BAB62A56B104BEB62EF
:1023D000A56B104B2B63A36B5863256813462A1D0E
:1023E000A06BFEF797FD21686FF040000860206841
:1023F000143050E8001F41F0800140E80012002A2C
:10240000F5D1002070BD012070BD0000BF34000870
:10241000013500087534000870477047FEE7016811
:102420004A69D24352050FD46FF480624A61002199
:1024300040F8301F202242738173026942F0040287
:10244000026101730120704700207047F8B504460F
:10245000C06A1E460D461746082807D0012805D039
:1024600010F5803F02D0206B122804D1206801684B
:1024700041F480710160134600224FF001112046A3
:10248000009600F02FF940B120680068C00502D521
:102490004FF4007020640320F8BD2069B0F5804F30
:1024A0000ED00620216800EAD51040F0F000086147
:1024B00033463A460B49204600F05CF978B902E011
:1024C00005F0FE0000E0E8B22168086105493346E6
:1024D0003A46891F204600F04DF90028DCD0012043
:1024E000F8BD0000080001002DE9F84F044600681F
:1024F00089460B9D01689846174641F4806101604A
:102500002068016841F48071016000954FF0011B63
:102510000022594620460A9B00F0E4F84FF4007A66
:1025200040B120680068C00501D5C4F840A0032070
:10253000BDE8F88F216809F0FE0008612B462849A4
:1025400020460A9A00F016F9F0BB206841698069BC
:1025500000902A4620460A9900F0A2F940B1206C6A
:1025600004283AD12068016841F40071016034E028
:10257000FEB2B8F1010F09D02168380A08612A4675
:1025800020460A9900F08CF90028E8D120680661FD
:102590002A4620460A9900F083F90028DFD12068F6
:1025A000016841F48071016000950022594620467F
:1025B0000A9B00F097F80028B3D1216809F0FF00CA
:1025C00040F00100086100E007E02B460449204686
:1025D0000A9A00F0CFF80028AAD00120A8E700004E
:1025E000020001002DE9F843044600680D46DDE9CC
:1025F000089701689846164641F4807101604B4681
:1026000000224FF001112046009700F06BF848B10E
:1026100020680068C00502D54FF4007020640320D4
:10262000BDE8F883216805F0FE0008613B464A4694
:102630001549204600F09EF888B9206841698069F4
:1026400000903A464946204600F02AF948B1206CED
:10265000042804D12068016841F400710160012060
:10266000DEE7F5B2B8F1010F09D02168300A086140
:102670003A464946204600F013F90028E7D1206881
:1026800005610020CCE700000200010070B516468D
:102690000D4604461EE02046FFF7C1FE08B10120AA
:1026A00070BD681C16D0FEF775FD801BA84200D8CF
:1026B00085B920684069C04340070BD5002044F825
:1026C000300F20216173A073216941F02001216145
:1026D0002073E4E720684069C0434007DBD4002052
:1026E00070BD00002DE9F047984617460D46044698
:1026F000C1F30746DDF820902AE000BFB8F1FF3FA4
:1027000026D0FEF747FDA0EB0901414502D8B8F1FC
:10271000000F1DD12068012E16D0806925EA000027
:102720000004000C12D00020B84211D1002044F85F
:10273000300F20216173A073216941F020012161D4
:1027400020730120BDE8F0874069E7E70120EBE74F
:102750002068012E0AD0806925EA00000004000CE0
:1027600006D00020B842C9D00020EBE74069F3E76B
:102770000120F7E72DE9F047984616460D46044636
:102780004FF000094FF0200AC1F3074723E020680B
:102790004069C043400515D42068016841F40071C8
:1027A000016021686FF480604861C4F8309084F85B
:1027B0003DA084F83E90216C41F00401216484F82E
:1027C0003C9021E0701C06D0FEF7E4FCA0EB080072
:1027D000B04203D816B1012F1FD021E02068012F8D
:1027E00015D0806925EA00000004000C18D000BF55
:1027F00044F8309F84F80DA084F80E90216941F0D0
:102800002001216184F80C900120BDE8F087406927
:1028100025EA00000004000CEAD12068406901E0CC
:102820002068806925EA00000004000CAFD1ECE7C5
:102830002DE9F041002590460E460446202728E069
:102840004069C043C0060CD454F8301B6FF0100030
:10285000486144F810596777A577206A2062257788
:1028600014E0FEF797FCA0EB0800B04200D886B950
:1028700020684069C04340060BD544F8305F677359
:10288000A573206940F02000206125730120BDE878
:10289000F08120684169C9434906D1D40020F6E798
:1028A00070B516460D4604461EE02046FFF7B7FDFC
:1028B00008B1012070BD681C16D0FEF76BFC801BB0
:1028C000A84200D885B920684069C04300060BD5EE
:1028D000002044F8300F20216173A073216941F07A
:1028E000200121612073E4E720684069C0430006AD
:1028F000DBD4002070BD10B580216B2000F08AF879
:102900006420FEF73FFB00216B2000F083F80320DA
:1029100000F04BF8002000F043F8322000F062F89D
:102920000021382000F076F800216A2000F072F8CB
:102930000021232000F06EF88021372000F06AF893
:10294000752000F011F8682801D0012010BD012188
:102950006B2000F05FF800216C2000F05BF8322063
:1029600000F040F8002010BD1FB500218DF80C10BC
:102970000A4900BF91F83D20242AFBD040F6FF739E
:10298000012203A98DE80E0013460246D321034815
:10299000FEF760FD9DF80C0004B010BDCC000020D7
:1029A000C006010E1C2000F035B8C006010E1B2029
:1029B00000F030B8BC2801D3012110E0622801D317
:1029C00002210CE02A2801D3032108E0142801D3B6
:1029D000042104E00A2801D3052100E006211A2081
:1029E00000F018B810B504464FF47A70844201D94B
:1029F000044602E0042C00D20424B0FBF4F0401E94
:102A0000C1B2192000F006F86008BDE81040FFF7D9
:102A1000D1BF00001FB58DF80C100A4991F83D2078
:102A2000242AFBD040F6FF73012203A98DE80E0093
:102A300013460246D2210348FEF734FE04B00020BC
:102A400010BD0000CC00002010B50446007B01281A
:102A500002D1206802F0E2FA002020606060A060ED
:102A6000207310BD5FF0010200F07F030B70C009FE
:102A700009D043F08003521C01F8013B042AF3DD26
:102A80004FF0FF307047104670472DE9F041044683
:102A9000002500680F462E4610B10220207315E075
:102AA00001202073084602F0C9FB2060002808D0EE
:102AB000C4E9016702E0206846556D1CA068A84281
:102AC000F9D8BDE8F081206846556D1CA068A84281
:102AD000F9D866608842F4D22660F2E72DE9FF4F0C
:102AE00081B090464FF00006119C0F9A9A465FEA1B
:102AF000000BB146314608D1012005B0BDE8F08F8A
:102B0000232816D02B2814D0761C0298805D00282C
:102B1000F6D141F030070AB147F0010706EB0A058C
:102B20000E98AD1C68B1012805D0022806D00320FC
:102B3000E3E70220E1E747F0020701E047F004077E
:102B4000AD1CB8F1000F03D098F80000022807D0A0
:102B5000691D2046FFF799FF206850B3691D14E0F6
:102B60005FF0000018F80010401C7D29FAD100F138
:102B70000409AAEB0900291A00912046C91CFFF795
:102B800084FF2068A8B10099C91CFDF7F4FAD4E9C4
:102B90000020411C61601754D4E90001014428461B
:102BA000FFF760FF002806DA2046FFF74DFF0520FB
:102BB000A3E70420A1E7616823680844411C320AA6
:102BC00061601A54D4E90020411C61601654D4E9B4
:102BD0000001084432460299FDF70AFB6068304460
:102BE00060600E9959B12368411C4FEA1B22616055
:102BF0001A54D4E90030421C626003F800B0B8F106
:102C0000000F0ED098F800000228D4E90001084413
:102C100009D052464146FDF795FA616801EB0A007A
:102C20006060002069E74A464146FDF78BFA61681B
:102C300001EB0900F4E7000030B591B01446149D93
:102C4000034600910AA2302104A800F0D3FD012020
:102C50000021CDE90205CDE900010A46234604A979
:102C60000A20FFF73BFF002800D0012011B030BD43
:102C7000247379732F25732F25732F7468696E67FA
:102C80002F70726F70657274792F706F737400009B
:102C9000114808B5416941F00101416140690022D4
:102CA00000F00100009011460E20FEF727FE0E20D6
:102CB000FEF716FE002211460F20FEF71FFE0F2022
:102CC000FEF70EFE002209211120FEF717FEBDE8D7
:102CD00008401120FEF704BE0010024070B586B017
:102CE00000241C480094019402940394816941F0EB
:102CF00010018161816901F010010491816941F045
:102D000020018161816901F020010491816941F014
:102D100004018161816901F004010491816941F03C
:102D20000801816180690C4E00F008004FF4407585
:102D30000490002229463046FEF726FA012000952D
:102D4000CDE901040220039069463046FEF72CF9D4
:102D500006B070BD00100240000C01400D4810B5D7
:102D60000B4901600C49416000214FF480428160B1
:102D7000C0E9031241618161C1610162FEF710FA8D
:102D8000002803D0BDE81040FDF77ABF10BD000059
:102D900000540040CC000020801A06000C4810B5FA
:102DA0000A4901604FF4E1314160002181600C2249
:102DB000C160C0E904128161C161FFF78FF9002889
:102DC00003D0BDE81040FDF75BBF10BD00380140E7
:102DD000200100200C4810B50A4901604FF416513B
:102DE0004160002181600C22C160C0E90412816150
:102DF000C161FFF773F9002803D0BDE81040FDF76B
:102E00003FBF10BD0044004068010020FEE7FEE720
:102E100070B500240021204600F0DDF800250020D8
:102E200000F063F96D1CEDB2802DF8D3641CE4B2A0
:102E3000082CEFD370BD000010B5064C0122110222
:102E40002046FEF7A1F920460122BDE810405102BC
:102E5000FEF79AB9000C01402DE9F047144E00240A
:102E600007464FF080084FF40079B51528FA04F2B0
:102E70003A4049463046FEF787F901222946304656
:102E8000FEF782F9002229463046FEF77DF9641CE0
:102E9000E4B2082CEAD3012229463046FEF774F941
:102EA00029463046BDE8F0470022FEF76DB9000024
:102EB000000C014070B501220B4D540221462846FA
:102EC000FEF762F90122160231462846FEF75CF948
:102ED000002221462846FEF757F931462846BDE82C
:102EE00070400022FEF750B9000C014070B50A4D49
:102EF0004FF40074002221462846FEF745F90122CE
:102F000011022846FEF740F921462846BDE87040E8
:102F10000122FEF739B90000000C014010B5002075
:102F20004FF47A720021491C9142FCD3401C90421C
:102F3000F8D3FFF781FFAE2000F0C6F8D52000F0EF
:102F4000C3F8802000F0C0F8A82000F0BDF83F20B2
:102F500000F0BAF8D32000F0B7F8002000F0B4F881
:102F6000402000F0B1F8A12000F0AEF8C82000F039
:102F7000ABF8DA2000F0A8F8122000F0A5F88120C4
:102F800000F0A2F8CF2000F09FF8D92000F09CF8C4
:102F9000F12000F099F8DB2000F096F8302000F0E6
:102FA00093F8A42000F090F8A62000F08DF88D2072
:102FB00000F08AF8142000F087F8AF2000F084F8C1
:102FC000BDE81040FFF724BF0246012000E0504357
:102FD000491EFCD2704710B50C4640F0B00000F01E
:102FE00073F8102040EA141000F06EF804F00F009F
:102FF000BDE8104000F068B82DE9F0410746CE006A
:103000004000083E801E15464FF0FF38F1B2C0B2B6
:10301000FFF7E1FF1148002400EB05152819A0F582
:10302000805090F8000E00F060F8641CE4B2082CA8
:10303000F4D308EB4700F1B2C0B2FFF7CCFF002495
:103040002819A0F5805090F8080E00F04EF8641C86
:10305000E4B2082CF4D3BDE8F08100005A6D0008FA
:103060002DE9F04700241D461646884681460A276A
:1030700013E0291B0A20491EFFF7A6FFB6FBF0F05C
:10308000B0FBF7F107FB110208EB0400C1B24846A0
:103090003032FFF7B1FF641CE4B2AC42E9D3BDE8C3
:1030A000F0872DE9F04115460E460746002406E05C
:1030B0003019C1B23846FFF79FFF641CE4B22A5DA5
:1030C000002AF5D1BDE8F08110B50446FFF7F2FE05
:1030D0007820FFF7C1FE0020FFF7BEFE2046FFF775
:1030E000BBFEBDE81040FFF701BF10B50446FFF777
:1030F000E1FE7820FFF7B0FE4020FFF7ADFE20464E
:10310000FFF7AAFEBDE81040FFF7F0BE10B58CB087
:10311000044630216846FDF72EF83EA12046FDF713
:103120007BF830216846FDF726F8404840A1026848
:10313000684600F077FB69462046FDF727F84248CD
:1031400042A10268684600F06DFB69462046FDF723
:103150001DF830216846FDF70EF8424842A102688A
:10316000684600F05FFB69462046FDF70FF8302106
:103170006846FDF700F8434843A10268684600F03E
:1031800051FB69462046FDF701F830216846FCF7FF
:10319000F2FF444844A10268684600F043FB6946D8
:1031A0002046FCF7F3FF30216846FCF7E4FF464871
:1031B00046A10268684600F035FB69462046FCF7E8
:1031C000E5FF30216846FCF7D6FF484848A1026871
:1031D000684600F027FB69462046FCF7D7FF302100
:1031E0006846FCF7C8FF4A484AA10268684600F0F2
:1031F00019FB69462046FCF7C9FF4EA12046FCF7A3
:10320000C5FF4DA000F0E6FA2046FCF7DDFF0CB04C
:10321000C0B210BD7B226964223A22313233222CA3
:1032200022706172616D73223A7B000004000020FD
:1032300022626F6479223A7B2276616C7565223A4C
:1032400025647D2C000000000C00002022626F64C9
:10325000795F7A223A7B2276616C7565223A256421
:103260007D2C000010000020226C65667462616392
:103270006B30223A7B2276616C7565223A25647D3B
:103280002C000000200000202272696768746261CF
:10329000636B30223A7B2276616C7565223A256435
:1032A0007D2C000018000020226C656674666F7229
:1032B0007761726430223A7B2276616C7565223ABE
:1032C00025647D2C000000001C000020226C656637
:1032D00074666F7277617264305F7A223A7B22760D
:1032E000616C7565223A25647D2C00002800002061
:1032F000227269676874666F727761726430223A0D
:103300007B2276616C7565223A25647D2C00000075
:103310002C000020227269676874666F7277617290
:1033200064305F7A223A7B2276616C7565223A2599
:10333000647D00007D7D000046696C6C20627566CE
:10334000206F6B210D0A000030B5C5B00020419000
:1033500042904390044644904FF4807101A8FCF7DA
:103360000AFF01A8FFF7D2FE05000BD041A800908C
:1033700000232A4611A112A0FFF75EFC70B113A032
:1033800000F028FA45B030BD015DDDE94123D1549C
:103390004299491C641C24B2429100E001A8AC424D
:1033A000F2DB429881B24198FDF736FC0FA04299BA
:1033B00000F010FA41A8FFF747FBE3E767707300DE
:1033C00034663839324E4D384B7500005741524EF5
:1033D0003A094544505F4E657742756666657220CE
:1033E0004661696C65640D0A0000000053656E64F7
:1033F0002025642042797465730D0A007047704778
:10340000FEF716BA30B58FB028216846FCF7B3FE38
:1034100014210AA8FCF7AFFE01210804CDE9001031
:103420000024029402250491CDE907504FF4E010E6
:1034300009906846FEF770FB08B172B6FEE70F20F0
:10344000CDE90A054FF48060CDE90C4002210AA8BD
:103450000E94FEF785FA002801D072B6FEE70FB091
:1034600030BD704710B5406A0021C185C184FEF7A8
:10347000F8FC10BD70B5446A2068406994F84110AA
:10348000C0F3C0100025212904D118B1E5842046DD
:1034900000F062F82068406994F84210C0F3801090
:1034A000222904D118B1E585204600F02EF8606C81
:1034B00040F0100060642046FEF7D3FC70BD10B5EC
:1034C0000146406A09680968890616D40021C1844A
:1034D0000168143151E8002F22F0800241E80023F6
:1034E000002BF5D101680C3151E8002F42F0400269
:1034F00041E80023002BF5D110BDFEF78DFF10BD74
:1035000010B5406AFEF789FF10BD01680C3151E823
:10351000002F22F4907241E80023002BF5D10168BE
:10352000143151E8002F22F0010241E80023002B62
:10353000F5D1016B012909D101680C3151E8002F47
:1035400022F0100241E80023002BF5D1202180F861
:10355000421000210163704701680C3151E8002FCF
:1035600022F0C00241E80023002BF5D1202180F891
:103570004110704708B590F84210222901D002206E
:1035800008BD82684FF480539A4201D1016921B18C
:10359000816A9A421BD04AB10AE00268816A526885
:1035A000C2F308020A80816A891C08E0026972B1CC
:1035B0000268526802F07F020A70816A491C8162C7
:1035C000C18D491E0904090CC18503D01BE00268A6
:1035D0005268F1E70168CA6822F02002CA600168F7
:1035E000CA6822F48072CA6001684A6922F0010246
:1035F0004A61202180F8421000214163026B012AB8
:1036000003D0FEF761FE002008BD016301680C31A4
:1036100051E8002F22F0100241E80023002BF5D1E1
:1036200001680A68D20602D50A6849680091818D4E
:10363000FEF716FCE7E7000070B504460068016974
:10364000E26821F44051114301612169A0680843F7
:10365000616908432168CA6841F20C639A430243D6
:10366000CA6020684169A26921F440711143416137
:103670001E492068884202D1FEF718FA01E0FEF7E1
:1036800005FA00EBC00101EB0012606864218000C4
:10369000B2FBF0F3B3FBF1F36FF018067343B2FB28
:1036A000F0F5B2FBF0F605EB8305322303EB0515CD
:1036B000B5FBF1F5B6FBF1F605F0F00505EB0615E7
:1036C000B2FBF0F6B2FBF0F0B0FBF1F06FF01802D5
:1036D000504306EB800003EB0010B0FBF1F02168D3
:1036E00000F00F002844886070BD000000380140E1
:1036F00081628285C28500214164222180F84210C6
:10370000016921B10168CA6842F48072CA60016827
:103710004A6942F001024A610068C16841F0200133
:10372000C160002070472DE9F041984617460E46CB
:103730000446069D27E0681C25D02DB1FDF72AFD23
:10374000A0EB0800A8421ED920680C3050E8001FEA
:1037500021F4D07140E80012002AF5D1206814301D
:1037600050E8001F21F0010140E80012002AF5D1C5
:10377000202084F8410084F84200002084F84000B2
:103780000320BDE8F0812068006836EA000004D01C
:103790000020B842CFD00020F3E70120F9E7000075
:1037A0000148FEF765BB0000200100200148FEF73C
:1037B0005FBB000068010020FEE710B504464FF62D
:1037C000FF73FEF79FFD2046FEF74CFB2128FAD041
:1037D00010BD00000FB4054B10B503A9044A0298B0
:1037E00000F098F910BC5DF814FB000005500008CB
:1037F000880000200FB41CB50246002007AC002949
:103800000BD0491ECDE90021054B6A46214606989A
:1038100000F080F9009A002111701CBC5DF814FBC7
:10382000434200080FB4084B10B504A902AA03983C
:1038300000F070F9044602A9002000F00DFD2046BA
:1038400010BC5DF814FB000059420008490050EA22
:10385000C12018BF04204A0D18BF40F0010040F2FB
:10386000FF72B2EB515F08BF40F00200012808BFB1
:10387000052070470907090E002804DB00F1E0204D
:1038800080F80014704700F00F0000F1E02080F88D
:10389000141D70472DE9F0414F1E00EBC70104468F
:1038A000D1E9000115461E4637F006020DD02A4622
:1038B0003346FCF735FE7F1E04EBC703D3E9002334
:1038C000FCF787FD37F00602F1D1022F25D0042F37
:1038D00013D0062F18BFBDE8F0812A463346FCF707
:1038E0001FFED4E90A23FCF774FD2A463346FCF791
:1038F00017FED4E90823FCF76CFD2A463346FCF793
:103900000FFED4E90623FCF764FD2A463346FCF794
:1039100007FED4E90423FCF75CFD2A463346FCF796
:10392000FFFDD4E90223FCF754FD2A463346FCF799
:10393000F7FDD4E90023BDE8F041FCF74ABD0122C0
:10394000FDF74EB8FCF745BD002213461046114660
:10395000FCF758BE024A00201107FDF741B80000ED
:1039600001FDFFFF02E008C8121F08C1002AFAD1BA
:1039700070477047002001E001C1121F002AFBD1EF
:103980007047000001490860704700009400002063
:103990002DE9FF5F82B00021DDE90430020DDDF882
:1039A00040B0034318D044F61050A2F2FF32424315
:1039B0001514119801281FD0A5EB0B00401C5FEADD
:1039C000000A4FF000064E4FDFF83891B0465046DF
:1039D00015D5CAF1000413E0119801244AA3012867
:1039E00001D16FEA0B010298119AC0E90031C0E9D8
:1039F000024206B0BDE8F09FCBF10000DFE70446CD
:103A00000021404A491842EB0450CDE9001012E071
:103A1000E00707D032463B4640464946FCF780FD6A
:103A20008046894632463B4610461946FCF778FDEB
:103A300006460F466410002CEAD1DDE90401DDE9F9
:103A40000023BAF1000F06DAFCF76AFD42464B4646
:103A5000FCF766FD05E0FCF7D5FD42464B46FCF75A
:103A6000D1FD04460E460022284BFCF789FE03D800
:103A70004FF0FF30014607E00022254B204631463B
:103A8000FCF7A7FCFCF7C3FF102409E0002C0ADBBD
:103A90000A220023FCF7BEFE039B30321A55641E37
:103AA00050EA0102F2D1641C039AC4F111031444D8
:103AB000119A012A03D0012208430DD10AE00843DC
:103AC00004D000204FF0110B119072E7A3EB0B050F
:103AD0006D1E0DE05B4504DD4FF0000205F10105B0
:103AE00004E003DA4FF00002A5F10105002AECD052
:103AF00002981199C0E90231C0E9004579E7000058
:103B0000000014400000F03F300000000000F043CF
:103B10000000E03F2DE9FF4F95B09B4689460646E1
:103B200000250FE2252877D100242746F84A0121F5
:103B3000059400E0044316F8013F203B01FA03F02E
:103B40001042F7D130782A2811D06FF02F03307847
:103B5000A0F13002092A16D8059A44F0020402EBBB
:103B6000820203EB42021044761C0590EFE759F8FD
:103B7000042B0592002A03DA504244F400540590C5
:103B800044F00204761C30782E2816D116F8010F66
:103B900044F004042A280DD06FF02F023078A0F1F1
:103BA0003003092B09D807EB870302EB4303C7183F
:103BB000761CF3E759F8047B761C30786C280FD01C
:103BC00006DC4C2817D068280DD06A2814D104E0F0
:103BD000742810D07A280FD10DE044F400140AE0C4
:103BE00044F4801401E044F440147278824202D11B
:103BF00004F58014761C761C307866280BD013DC14
:103C0000582877D009DC002875D04528F6D04628FA
:103C1000F4D047281AD19DE118E0632835D06428F4
:103C200079D0652812D195E1702873D008DC672817
:103C3000F1D069286FD06E280DD06F2806D1B5E07D
:103C400073282CD0752875D0782874D05A461799C7
:103C500090476D1C75E1C4F30250022809D0032877
:103C60000DD0D9F8001004280DD00D6009F1040919
:103C700067E1D9F80010EA17C1E90052F6E7D9F870
:103C800000100D80F2E70D70F0E719F8041B8DF8B5
:103C9000001000208DF80100EA46012003E059F8E9
:103CA00004AB4FF0FF3061074FF0000102D40DE08C
:103CB00008F101018846B9420FDA8045F8DB1AF8AD
:103CC00008100029F4D108E008F10101884681427A
:103CD000FADB1AF808100029F6D105985B46A0EB2C
:103CE000080721463846179A00F094FA284400EB5A
:103CF000080507E04DE029E10DE01AF8010B5A46EE
:103D000017999047B8F10108F7D25B46214638462B
:103D1000179A13E142E00A220092C4F302524FF0D4
:103D2000000A022A08D059F804CB032A4FEAEC71A2
:103D30000AD00DE029E02AE009F1070121F007028D
:103D4000F2E802C1914609E00FFA8CFC4FEAEC71EF
:103D5000042A03D14FFA8CFC4FEAEC71002907DAF0
:103D60000A460021DCF1000C61EB02012D2202E089
:103D7000220504D52B228DF80420012203E0E2075E
:103D800001D02022F7E7904659E00A2102E01022F4
:103D90000DE010214FF0000A00910BE010224FF0CF
:103DA000000A44F004040827009203E008224FF0C0
:103DB000000A0092C4F30252022A05D059F804CB3B
:103DC0000021032A08D009E009F1070121F00702C8
:103DD000F2E802C1914605E01FFA8CFC042A01D1E9
:103DE0000CF0FF0C4FF00008220728D5702806D0F1
:103DF000009B83F0100353EA0A0305D00EE0402233
:103E00008DF80420012208E05CEA010206D030228D
:103E10008DF804208DF8050002229046009B83F067
:103E2000080353EA0A030AD15CEA010201D16207DE
:103E300005D530228DF804204FF001087F1E582848
:103E400004D034A003900EA802900DE036A0F9E74C
:103E500053466046009AFCF7DDFC84460398825C7A
:103E60000298401E029002705CEA0100F0D10298B4
:103E700006A9081A00F1200A600702D524F480344C
:103E800000E00127574502DDA7EB0A0000E0002013
:103E900000EB0A01009005984144401A0590E003A8
:103EA00006D45B462146179A059800F0B3F90544FD
:103EB000002706E001A85A46C05D179990476D1C7F
:103EC0007F1C4745F6DBE0030CD55B462146179A7D
:103ED000059800F09FF9054404E030205A461799F0
:103EE00090476D1C0099481E00900029F5DC08E001
:103EF000029802995A460078491C029117999047F6
:103F00006D1CBAF10001AAF1010AF1DC65E10000C3
:103F1000092801003031323334353637383961629F
:103F20006364656600000000303132333435363763
:103F300038394142434445460000000000F058F93A
:103F40000544761C307800287FF4ECAD19B0284683
:103F5000BDE8F08F620700D4062709F1070222F0BE
:103F6000070CFCE80223E14603F000485FEA080C76
:103F700002D00FF2702C0DE05FEA045C02D50FF264
:103F8000682C07E05FEAC47C02D00FF2602C01E0ED
:103F9000AFF2700C4FF0FF3823F00043CDF850C063
:103FA00065280CD006DC452809D046281DD04728B6
:103FB0003DD13DE0662818D067287ED138E0002149
:103FC000112F01DB112000E0781CCDE9000106A9CA
:103FD0000EA8FFF7DDFCDDE90F010E9A0391002129
:103FE000009207F1010A04914DE04FF00040009764
:103FF000CDE9011006A90EA8FFF7CAFCDDE90F0202
:1040000003920E9B11990022DDF80CA000930492FC
:1040100011B9791C00EB010AB7EB0A0004D4C0F116
:10402000FF3007F1010A0490AAEB0700019044E079
:10403000012F00DA01270021112F01DD112000E0FE
:104040003846CDE9000106A90EA8FFF7A1FCDDE97D
:104050000F010E9A0391002104910092BA462107A4
:104060000CD40399514500DA8A46BAF1010F05DDF7
:10407000009AAAF10101515C302908D0B84202DA55
:1040800010F1040F06DA0121CDE9011015E0AAF1C3
:104090000101E9E7002805DC049901440491AAEB39
:1040A000000102E0411C514500DD8A460499401A96
:1040B000401C01904FF000400290200704D401986A
:1040C000504501DBCDF8048000208DF84F000298A8
:1040D0000DF14F07B0F1004F25D02B200E90029824
:1040E0004FF0020800280CDA404202902D200E907A
:1040F00007E00A210298FCF777FB3031029007F8BD
:10410000011DB8F10001A8F10108F2DC02980028B5
:10411000EFD1791E0E980870307800F0200040F042
:10412000450007F8020D12A8C01B00F107081498FB
:10413000007800B1012000EB0A01019801EBE07169
:1041400005984144401A401E0590E00306D45B46A2
:104150002146179A059800F05DF8054414980078F8
:1041600018B15A46179990476D1CE00324D55B4659
:104170002146179A059800F04DF805441CE0049874
:10418000002807DBDDE90301884203DD0098405C7D
:10419000179901E0179930205A469047049805F185
:1041A0000105401C04900198401E019004D12E206E
:1041B0005A46179990476D1CBAF10001AAF1010AFD
:1041C000DDDC05E017F8010B5A46179990476D1C86
:1041D000B8F10001A8F10108F4DC5B462146179A0A
:1041E0000598ABE62D0000002B0000002000000029
:1041F0002DE9F041044600251E461746880404D4E4
:1042000005E039462020B0476D1C641EF9D52846CC
:10421000BDE8F0812DE9F041044600251E46904698
:10422000C80301D5302700E02027880404D505E025
:1042300041463846B0476D1C641EF9D52846BDE896
:10424000F0814A68002A06D00A68531C0B6010707F
:104250004868401E486070470A68531C0B60107025
:10426000704700002DE9F04D8D4F21F0004A86B0D7
:1042700005460C46BA452ADBAAEB070028430AD0BC
:104280008848824501DC1AD1CDB106B02846BDE888
:10429000F04DFFF754BB844A844B2846FCF740F9A5
:1042A00007460E46824A834B28462146FCF738F9DA
:1042B00006B03A463346BDE8F04DFCF78AB8012017
:1042C000FFF760FB06B0BDE8F04DFFF73DBB7A4855
:1042D000824542DABAF1795F0BDA2846FFF7B6FA7F
:1042E000042808BFFFF736FB284606B02146BDE884
:1042F000F08D2A460B461046FCF712F9834602461B
:104300006E480E460B4606217844FFF7C3FA5A461C
:104310003346FCF705F9804669488A465A463346D3
:1043200004217844FFF7B6FA5A463346FCF7F8F80A
:1043300000223B46FCF74DF802460B4640465146EC
:10434000FCF760F92A462346FCF7EAF806B02A464D
:104350002346BDE8F04DFCF73CB8284624F0004168
:1043600000223D463B46FCF7D8F84FF0FF32FCF701
:1043700037FB0646024653480F460B460621784453
:10438000FFF788FA32463B46FCF7CAF8CDE9000150
:104390004D4832463B4604217844FFF77BFA3246CB
:1043A0003B46FCF7BDF800222B46FCF712F883468B
:1043B00002913046394601F071FE804643480D4671
:1043C000504517DCDDE900015A46029BFCF71AF95B
:1043D00042462B46FCF7A4F842462B46FBF7F9FF72
:1043E0000122FCF7FDFA304A304BFCF793F8304AD3
:1043F000304B4CE04FF0000A52460B464046FBF76C
:10440000E8FFCDE9031052462B4610461946FCF74B
:1044100087F832463B46FCF780F8DDE90332FCF7CB
:10442000F1F806460F46DDE900015A46029BFCF70B
:10443000E9F883460091012230463946FCF7D0FA6C
:10444000194A1A4BFCF769F806460F460122404606
:104450002946FCF7C5FA5A46009BFCF761F832463C
:104460003B46FCF757F806460F46012250462946C0
:10447000FCF7B6FA0E4DDFF858802A464346FCF7A3
:104480004CF832463B46FCF748F82A464346FCF7D0
:1044900044F8002CD8BF81F0004106B0BDE8F08D93
:1044A0000000F03F0000F07F075C143326A6913C2B
:1044B000182D4454FB21F93F0000E03F4430000038
:1044C0005A300000CE2F0000E42F00003333EF3FBE
:1044D000FB21E93F2DE9F84F04460D4621F000404D
:1044E00000917349814211DC7249884201DC06D196
:1044F0002CB120462946BDE8F84FFFF720BA6E4898
:10450000002DCCBF6D496E49BDE8F88F6D498142E1
:1045100011DD6D498142D8BF4FF0FF366DDD204679
:104520002946FFF793F9042808BFFFF713FA20463E
:104530002946BDE8F88F6549654F25F00045814261
:1045400033DD6449814219DD002632464FF0804355
:1045500020462946FBF73DFF80468A460122204639
:104560002946FCF73DFA00223B46FBF7D3FF4246C3
:104570005346FCF747F804460D463EE0012600226C
:10458000BA463B4620462946FBF723FF80460F46A6
:104590000022534620462946FBF7BCFF42463B46D5
:1045A000FCF730F804460D4627E04B4981421BDDFD
:1045B000DFF828A102260022534620462946FBF7B1
:1045C000AFFF00223B46FBF704FF80460F46002268
:1045D000534620462946FBF79DFF42463B46FCF7E3
:1045E00011F804460D4608E0032622462B4600201B
:1045F0003B49FCF707F804460D4622462B46104679
:104600001946FBF78DFF8B46824602460B46FBF7A9
:1046100087FF07460246334888460B460621784402
:10462000FFF738F952465B46FBF77AFF82462E4881
:104630008B463A46434605217844FFF72BF93A4624
:104640004346FBF76DFF02460B46002E5046594687
:104650000CDAFBF7BEFE22462B46FBF761FF01B0EA
:1046600022462B46BDE8F04FFBF757BFFBF7B1FEE4
:1046700022462B46FBF754FF1C4A7A4402EBC60342
:10468000D3E90023FBF746FF22462B46FBF742FF08
:10469000174A7A4402EBC603D3E90023FBF73DFF38
:1046A000009A002AB8BF81F00041BDE8F88F0000F1
:1046B000000010440000F07F182D4454FB21F93F06
:1046C000FB21F9BF0000DC3F0000203E0000F33F6B
:1046D0000000F03F0000E63F008003400000F83F8C
:1046E0000000F0BFE62D0000A42D0000422D0000C8
:1046F0000A2D00002DE9F04D9446CCF1000423F082
:1047000000464CEA0404524F46EAD4749A4688465E
:1047100021F00042BC4206D8454240EA050442EA84
:10472000D474BC4204D9BDE8F04D6246FFF70AB923
:10473000AAF14055A5F17F6555EA0C040BD002247F
:1047400004EAAA74434DDFF810E144EAD87452EA4F
:10475000000B04D00CE0BDE8F04DFFF7BBBE002C11
:1047600014BF012CBDE8F08D022C30D0032C32D0C8
:1047700056EA0C0B0AD0BE4220D1BA4209D126F02B
:10478000804622F080423346114617E000291ADBAA
:1047900025E0DFF8C8B0FB44002C04BFDBE90001D2
:1047A000BDE8F08D012C02BFDBE9000181F0004182
:1047B000BDE8F08D022C0AD0032C0CD0BA4212D1E5
:1047C000B8F1000F0BDA23482549BDE8F08D2846E3
:1047D0002449BDE8F08D28467146BDE8F08D1D489E
:1047E0002149BDE8F08D921B12153C2AC4BF19481F
:1047F0001D490EDCBAF1000FBEBF12F13C0F0020C4
:10480000014606DB6246FBF7FDFE21F00041FFF7A3
:1048100061FE002C08BFBDE8F08D012C04BF81F0C3
:104820000041BDE8F08D114A114B022C07D0FBF777
:1048300071FE2A46BDE8F04D0A4BFBF76BBEFBF755
:1048400069FE2A46BDE8F04D064BFBF766BE000048
:104850000000F07F182D4454FB2109C09E2C00005D
:10486000FB21F9BFFB210940FB21F93F075C143311
:1048700026A6A13C08B560B120208DF800002820B4
:104880008DF8010030208DF8020038208DF80300EB
:1048900004E0A32204216846FBF766FC6A46042173
:1048A00040F69E2001F00CFB01F042F808BD00002C
:1048B0003EB5044602208DF80000CA208DF80100A4
:1048C000E3208DF8020009208DF803006A460421D8
:1048D000682001F0F5FAA3208DF80000610609D5E3
:1048E000C0218DF80110C8218DF80210C2218DF869
:1048F000031005E08DF801008DF802008DF803002B
:1049000014F4C07F09D0C4218DF80410CC218DF897
:104910000510C6218DF8061005E08DF804008DF80D
:1049200005008DF806008DF808008DF807008DF859
:1049300009006A460A2140F6A72001F0C1FAA00743
:104940004FF0D80503D020208DF8000001E08DF84D
:1049500000506A46012140F6B62001F0B1FAA006E7
:1049600001D5012000E0002000F08EF814F4C07F93
:104970001ED0E0050AD5B2208DF800008B208DF8FE
:104980000100B6208DF802009B2009E0B0208DF8D0
:10499000000080208DF80100B4208DF802009020E6
:1049A0008DF803006A46042140F6A22001F088FA3F
:1049B000E1074FF40B6022D0F8218DF800106A4611
:1049C000012101F07DFAFA21072000F067FA0720A3
:1049D00000F032FA012000F04FFA642000F0F2FA01
:1049E0004FF4FA7000F0FEFAC821254800F0ECF907
:1049F000282000F001FA0A2000F00EFA05E08DF8F8
:104A000000506A46012101F05BFAA00703D5D920C6
:104A10008DF8000001E08DF800506A46012140F257
:104A20003D7001F04DFA600701D5012000E0002043
:104A300000F048F8E00601D5012000E00020FFF773
:104A400019FF104D44F00800688100F071FF00204C
:104A5000A873600601D50620A87314F4C07F02D0A5
:104A6000A87B801DA87314F0140F02D0A87B10300F
:104A7000A873A00702D0A87B001DA87300203EBD2C
:104A800009E3CA027C0200200EB54FF4976310B10F
:104A900006A107C901E008A207CA8DE807006A4617
:104AA0000921184601F00CFA0EBD0000B8AAB38D1A
:104AB000B4980D355D000000B8AAAAAAB088C3C595
:104AC000C700000008B560B1C0208DF80000C2200A
:104AD0008DF80100C4208DF80200C6208DF8030077
:104AE00004E08B2204216846FBF73EFB6A46042162
:104AF00040F6982001F0E4F900F01AFF08BD00002C
:104B0000C8234FF48062024940F6F63000F0F2BD4F
:104B1000646100082DE9FF4F89B01746DDE91652A0
:104B200000244C4E884681462C80A246B07B6946C4
:104B300000F08CFE4FF0FF3B18B158460DB0BDE8B9
:104B4000F08F708910F0140F3CD0009909BA21F051
:104B5000FF039DF803100B433B6001991B1409BA36
:104B600021F0FF029DF807105B430A437A60029927
:104B70009DF80B4009BA21F0FF012143B960039C65
:104B8000091424BA24F0FF0C9DF80F4012144CEACB
:104B9000040CC7F80CC04FEA2C47494302FB023211
:104BA00007FB071111441024A1F17061B1F1007FDE
:104BB00004D900F0BDFEA5F800A0BEE7298841F4A5
:104BC000807129804206694611D50A19A41D1388EF
:104BD0005BBAA8F8003053885BBAA8F80230928814
:104BE00052BAA8F804202A8842F008022A8010F459
:104BF000C07F11D00A19A41D13885BBAA9F8003030
:104C000053885BBAA9F80230928852BAA9F80420F6
:104C10002A8842F070022A80800716D00C44E0787F
:104C200000F0C00500F03F016078C00706D0C8085A
:104C300001F007013268491C02B190476078000713
:104C400003D5716809B1A80988470C9800F02CFBBE
:104C5000002073E77C02002030B5044613A285B023
:104C600007CA8DE807004FF0FF35C82C16D8C820BA
:104C7000B0FBF4F1491E080A8DF80C008DF80D10F8
:104C800003AA022140F2162001F01AF930B96A464F
:104C90000C2140F6C12001F013F910B1284605B0EF
:104CA00030BD054884810020F9E70000FEF2ABC466
:104CB000AAF1DFDFBBAFDFDF7C0200202DE9FF417F
:104CC00004463CA004F00303006802903AA0006888
:104CD00003903AA006683AA0056802A8C15C8DF866
:104CE0000010C4F3C101425C8DF80120C4F38112AD
:104CF000805C8DF8020003A8C35C8DF80430415C31
:104D00008DF80510805C8DF806006A46032140F29C
:104D1000264001F0D5F84FF0FF37E0BB01AA032190
:104D200040F22A4001F0CCF8A8BBCDE9006560074D
:104D30000BD59DF8000040F001008DF800009DF8B3
:104D4000040040F001008DF80400A0060BD59DF88A
:104D5000010040F001008DF801009DF8050040F0D1
:104D600001008DF80500E0050BD59DF8020040F02C
:104D700001008DF802009DF8060040F001008DF85A
:104D800006006A4603214FF4886001F099F810B9D3
:104D900001AA032100E004E040F2314001F090F864
:104DA00018B1384604B0BDE8F081064804810020FF
:104DB000F8E700004CCD6C000CC92C00365676008C
:104DC000264666007C0200204FF47A7290FBF2F0D7
:104DD00008B54843010E8DF80010010C8DF8011044
:104DE000010A8DF802108DF803006A4604214FF481
:104DF000AE7001F065F808BD0521B0FBF1F008B513
:104E0000010A8DF800108DF801006A4602214FF466
:104E1000AD7001F055F808BD0521B0FBF1F008B503
:104E2000010A8DF800108DF801006A4602214FF446
:104E3000AC7001F045F808BD08B500218DF80010F0
:104E4000C10702D030218DF80010810705D59DF8EB
:104E5000001041F00C018DF80010400705D59DF8B9
:104E6000000040F003008DF800006A4601214FF475
:104E7000A47001F025F808BD08B560B1042800D978
:104E80000420401E8DF800006A46012140F24F10B8
:104E900001F016F808BD0120F3E700002DE9FC4100
:104EA000054640074FF0FF367CD0B1F5C86F79D882
:104EB0000846FBF71FFC3E49FBF741FA074601A8ED
:104EC00000F036FB9DF80400022806D004280DD01F
:104ED00008282ED0102865D134E00E213846FBF783
:104EE0006CFAFBF725FC84B2324907E00D21384605
:104EF000FBF763FAFBF71CFC2F4984B23846FBF73B
:104F0000ECF9FBF715FC210A8DF8001080B28DF842
:104F10000140010A8DF802108DF80300E8076C4685
:104F200020D0224602214FF4EA7000F0C9FFC8BB2E
:104F300011E00C213846FBF740FAFBF7F9FB84B28D
:104F40001E49DBE70B213846FBF737FAFBF7F0FB8E
:104F500084B21B49D2E7A21C02214FF4927000F0E8
:104F6000AFFFF8B9A8070DD56A4602214FF4EC70DF
:104F700000F0A6FFB0B9A21C02214FF4947000F01B
:104F80009FFF78B9680710D56A4602214FF4EE708A
:104F900000F096FF30B9A21C02214FF4967000F089
:104FA0008FFF10B13046BDE8FC810020FBE7000018
:104FB00000004843000040460000C0450000404556
:104FC0000000C0440521B0FBF1F008B5010A8DF8DE
:104FD00000108DF801006A4602214FF4EF7000F0D6
:104FE0006FFF08BD0521B0FBF1F008B5010A8DF88F
:104FF00000108DF801006A4602214FF4ED7000F0B8
:105000005FFF08BD13B54FF0FF3301226946024828
:10501000FDF778F900981CBD6801002010B5002844
:1050200021D0114B0022001F196803E0814203D8F0
:105030000A4649680029F9D152B11368841A9C4282
:1050400004D1006818441060104602E0506000E08F
:10505000186039B102680B1A934203D10B681A44E5
:1050600002604968416010BD8C00002000B5024616
:1050700000F00DF80346D01C00F009F843EAC00325
:10508000901D00F004F843EA801080B200BD90F952
:105090000010002902DD4FF00000704702DA4FF0E7
:1050A0000400704790F90110002902DD4FF0010063
:1050B000704702DA4FF00500704790F902000028AF
:1050C00002DD4FF00200704702DA4FF00600704731
:1050D0004FF0070070470000FCF7B2FBFEF792F9B3
:1050E000FDF7FCFDFDF7D4FDFDF738FEFDF756FE9C
:1050F000FDF770FE012239493948FDF7D7F86420E1
:10510000FBF740FFFDF70AFF6420FBF73BFFFDF7CD
:105110007FFE0124204600F0FDFEFDF7ECFBFDF7CD
:1051200077FE01212FA20846FDF7BBFF012322468F
:1051300004211846FDF794FF0CE000BF00F0AEF923
:105140000246214628A0FEF745FB2FA2062101209A
:10515000FDF7A7FF00F0A2F90028EFD121462BA010
:10516000FEF738FB2DA206210120FDF79AFF641CF3
:10517000E4B2062CCED34FF47A742046FBF702FF3C
:1051800029A0FEF727FB2046FBF7FCFE01262A4D4F
:1051900000270024012000F0D1FE022000F0CEFE06
:1051A000032000F0CBFE042000F0C8FE052000F034
:1051B000C5FE641CE4B2032CECD32E706420FBF714
:1051C000E1FE28780128E4D1FEF7BEF8FBF7F2FCF7
:1051D0002F706420FBF7D6FEDBE70000860000207E
:1051E000200100204D5055004D5055256420444D60
:1051F00050206661696C65642E45727220636F642D
:1052000065A3BA25640D0A00457272004D505525FC
:105210006420696E74206F6B0D0A0000696E6974FA
:10522000206F6B2E2E2E000053797374656D2069EC
:105230006E74206F6B0D0A0000000020F0B50B307B
:10524000154D20F007010024144A0FE003688B423B
:105250000BD38B4205D95E1A43184768C3E9006730
:1052600000E04368136002C004E0021D10680028DB
:10527000ECD12046002802D1286808B10020F0BDFA
:10528000064A07481060074A121A22F00702C0E9CE
:10529000002401202860D7E7900000208C00002027
:1052A0001403002010050020704700002DE9F04194
:1052B000124C20F00101002594F8240010B10020C8
:1052C000BDE8F081A07A4FF0FF3668B10840277C36
:1052D0002074884200D0354641B1012000F0B2FE72
:1052E00000F026FB38B127743046E9E7207D00B195
:1052F000012000F0A7FE2846E2E700004C00002055
:105300002DE9F74F8EB00CA902A8CDE900010BAB37
:1053100003AA09A907A8FFF7FDFB18B1012011B0E6
:10532000BDE8F08FBDF80800C0057DD50398FBF7F8
:10533000D8F96FF01D042146FBF73FF88246049828
:10534000FBF7CFF92146FBF738F881460598FBF7C4
:10535000C8F92146FBF731F880460698FBF7C1F9FA
:105360002146FBF72AF8054601215046FBF725F8B0
:1053700006464146FAF7B1FF04464FF04041484621
:10538000FAF7ABFF07462946FAF7A7FF2146FAF7D7
:105390004CFFFBF7E1F9FEF765FF4FF0663B5A461D
:1053A0003D4BFBF7BDF8FBF703FA0E9908600121AE
:1053B0004046FBF702F841460090FAF78EFF04469C
:1053C00038464946FAF789FF2146FAF780FF4FF041
:1053D0007E51FAF72AFFFBF7BFF907460C46304625
:1053E0004946FAF77AFF064629460098FAF775FF0C
:1053F0003146FAF71AFFFBF7AFF93A462346FFF7B3
:1054000079F95A46244BFBF78BF8FBF7D1F90F9942
:10541000086029460846FAF760FF074641460846F5
:10542000FAF75BFF064600E034E049460846FAF723
:1054300054FF044651460846FAF74FFF2146FAF753
:10544000F4FE3146FAF743FF3946FAF740FFFBF71F
:1054500083F906460C4629465046FAF73EFF0546B4
:1054600041464846FAF739FF2946FAF7DEFE0121A0
:10547000FAF7A3FFFBF770F932462346FFF73AF934
:105480005A46054BFBF74CF8FBF792F91099086068
:10549000002044E7022042E766A64C4010B500F029
:1054A00065F808B10A2010BD782000F0ADFC10F0BE
:1054B000FF0F01D0012010BD7820FFF7F7FE10F09C
:1054C000FF0F01D0022010BD642000F05DFC10F041
:1054D000FF0F01D0032010BDFFF712FB10F0FF0FEC
:1054E00001D0042010BD1148FFF7C0FDFFF7E6FB17
:1054F00010F0FF0F01D0052010BD40F27310FFF730
:10550000D7F910F0FF0F01D0062010BD6420FFF77F
:10551000A3FB10F0FF0F01D0072010BD012000F009
:1055200059FB10F0FF00F8D0092010BD78000020D2
:105530000D494A7A42B1012A08D0022A0FD0032A23
:105540000FD04FF0FF307047022200E004220270BB
:10555000C97C11B11106C90D0170002070470822E5
:10556000F5E71022F3E700004C0000202DE9FC4194
:105570004C4C80208DF8000020686B460122817C15
:1055800060680078FBF7FEFA4FF0FF37002832D151
:105590006420FBF7F7FC00258DF8005020686B466F
:1055A0000122817C60680078FBF7ECFA002870D15A
:1055B00020686B460622817D60680078FBF7CCFA94
:1055C000002866D19DF805009DF80310C007400F24
:1055D00001F0010140EA41019DF801004FF0010690
:1055E00000F00100014309D0012905D0022915D09E
:1055F0002DA0FEF7EFF84CE0E67410E020686B4653
:105600000122C17860680078FBF7A6FA40BB9DF8DC
:10561000000010F00F0020D0042822D0E574FF20F5
:1056200004F80A0F4FF6FF7104F8020C04F8010C9D
:105630006070A180A0712072A67026766576E572F2
:10564000A572E56025616561A576E576A5834FF4D1
:10565000FA6000F0FBFA18B907E01D48FEF7BAF847
:1056600017E01CA0FEF7B6F8C6E7022000F010FA1B
:1056700078B92A2000F052FB58B9322000F084FBA0
:1056800038B90020FFF712FE18B9002000F034FAF4
:1056900010B13846BDE8FC81002000F0B5FB0020C9
:1056A000F8E700004C000020556E737570706F7243
:1056B00074656420736F6674776172652070726FB1
:1056C00064756374207265762025642E0A000000DC
:1056D0004074000848616C662073656E7369746974
:1056E00076697479207061727420666F756E642EAD
:1056F0000A0000002DE9FF4FDFF89480064685B0D0
:1057000098F8250015460F464FF0FF39B0BBAFB3F0
:10571000002420E0301B102800DD102080B28346DA
:105720003A1901469246204600F0CAFB30BB6A4651
:105730005946204600F0D2F800BB50465A4669460A
:10574000FAF749FD20B16FF0010009B0BDE8F08F14
:1057500004EB0B0084B2B442DCD3280A8DF81000AD
:105760008DF81150D8F80000444604AB817ED8F87B
:10577000040002220078FBF705FA08B14846E4E786
:10578000012084F825000898E0840020DDE700006F
:105790004C0000202DE9F84305464FF0FF3928283A
:1057A00044D80727284C00267DB1012000F084FA58
:1057B00020208DF800004FF00108012D17D0052D95
:1057C00018D88DF8018005201FE0002000F074FA41
:1057D0008DF800608DF8017020686B460222817C94
:1057E00060680078FBF7CEF900BB267529E08DF8DC
:1057F0000160E8E7142D04D802208DF801000A208A
:1058000003E003208DF80100142000F087FA9DF8D2
:1058100001006B4607EB80108DF801002068022222
:10582000817C60680078FBF7ADF910B14846BDE8AF
:10583000F8830820A072267384F814800020FFF7F4
:1058400035FD0020F3E700004C0000202DE9F8436F
:10585000214C0646174694F8240089464FF0FF383D
:1058600090B3A07A80B320686B460222817A606888
:105870000078FBF771F938BBBDF8000045BAB542B6
:1058800002D2002038701FE060684188B5EB510FEC
:1058900011D9216800786B46497C0122FBF75CF93D
:1058A00090B99DF80000C00605D500F041F86FF0F2
:1058B0000100BDE8F8832068F2B24B46C17A606807
:1058C0000078FBF749F908B14046F2E7B5FBF6F07E
:1058D000401E38700020ECE74C000020F8B51600A0
:1058E0000D464FF0FF371FD0104CA17AE1B1010AED
:1058F0008DF80010C0B28DF801004119606842892E
:10590000914211D8216800786B46097E0222FBF78C
:1059100039F948B92068EAB23346417D60680078B9
:10592000FBF71AF9002800D03846F8BD4C000020DB
:10593000F8B5564C4FF0FF36A07A00287DD00025F0
:105940008DF8005020686B460122C17B60680078AA
:10595000FBF718F9002870D120686B4601224179C5
:1059600060680078FBF70EF9002866D120686B4666
:105970000122017960680078FBF704F900285CD106
:1059800094F82400E0B30C208DF8000020686B46EA
:105990000122017960680078FBF7F4F8002872D1E1
:1059A0003220FBF7EFFAC0208DF80000A07AC00784
:1059B00002D0E0208DF8000020686B4601220179BA
:1059C00060680078FBF7DEF800285CD1607C18B1D5
:1059D00002208DF8000001E08DF8005020686B4631
:1059E0000122C17B60680078FBF7CCF828BB8DF8FA
:1059F000005020686B4601224179606800783EE0E3
:105A0000FFE704208DF8000020686B460122017931
:105A100060680078FBF7B6F878B9A07C90B9A07AF6
:105A2000C0070FD05FF060008DF8000020686B4663
:105A3000012201796068007800E024E0FBF7A2F819
:105A400008BB01E04020EFE73220FBF79BFA607CC7
:105A500018B101208DF8000001E08DF80050206899
:105A60006B460122C17B60680078FBF78BF850B968
:105A70002068064B01224179606810330078FBF7FB
:105A800081F8002800D03046F8BD00004C0000200E
:105A900038B5184C4FF0FF35A17A19B3022806D05B
:105AA000042806D008280ED010281BD10DE00020B5
:105AB00000E008208DF80000607A9DF80010B0EB3F
:105AC000D10F04D005E01020F4E71820F2E7002001
:105AD00038BD20686B460122C17960680078FBF709
